{
  "address": "0x2AD9AA95B2D586f40A90a3a53334EDc927288c0f",
  "abi": [
    {
      "inputs": [
        {
          "internalType": "address",
          "name": "_rewardToken",
          "type": "address"
        }
      ],
      "stateMutability": "nonpayable",
      "type": "constructor"
    },
    {
      "anonymous": false,
      "inputs": [
        {
          "indexed": false,
          "internalType": "address",
          "name": "_address",
          "type": "address"
        },
        {
          "indexed": false,
          "internalType": "string",
          "name": "_description",
          "type": "string"
        }
      ],
      "name": "AddPrivilege",
      "type": "event"
    },
    {
      "anonymous": false,
      "inputs": [
        {
          "indexed": false,
          "internalType": "address",
          "name": "_address",
          "type": "address"
        },
        {
          "indexed": false,
          "internalType": "string",
          "name": "_name",
          "type": "string"
        },
        {
          "indexed": false,
          "internalType": "string",
          "name": "_firstname",
          "type": "string"
        }
      ],
      "name": "AddProfil",
      "type": "event"
    },
    {
      "anonymous": false,
      "inputs": [
        {
          "indexed": false,
          "internalType": "address",
          "name": "_address",
          "type": "address"
        },
        {
          "indexed": false,
          "internalType": "uint256",
          "name": "_amount",
          "type": "uint256"
        },
        {
          "indexed": false,
          "internalType": "uint256",
          "name": "_indexp",
          "type": "uint256"
        }
      ],
      "name": "BuyToken",
      "type": "event"
    },
    {
      "anonymous": false,
      "inputs": [
        {
          "indexed": false,
          "internalType": "uint256",
          "name": "_session",
          "type": "uint256"
        },
        {
          "indexed": false,
          "internalType": "address",
          "name": "_adresse",
          "type": "address"
        },
        {
          "indexed": false,
          "internalType": "uint256",
          "name": "_nbVote",
          "type": "uint256"
        }
      ],
      "name": "GetWinnerSession",
      "type": "event"
    },
    {
      "anonymous": false,
      "inputs": [
        {
          "indexed": false,
          "internalType": "address",
          "name": "_address",
          "type": "address"
        },
        {
          "indexed": false,
          "internalType": "uint256",
          "name": "_amount",
          "type": "uint256"
        }
      ],
      "name": "GetWinnerToken",
      "type": "event"
    },
    {
      "anonymous": false,
      "inputs": [
        {
          "indexed": false,
          "internalType": "uint256",
          "name": "_session",
          "type": "uint256"
        },
        {
          "indexed": false,
          "internalType": "address",
          "name": "_adresse",
          "type": "address"
        },
        {
          "indexed": false,
          "internalType": "string",
          "name": "motivation",
          "type": "string"
        }
      ],
      "name": "HistoricVote",
      "type": "event"
    },
    {
      "anonymous": false,
      "inputs": [
        {
          "indexed": true,
          "internalType": "address",
          "name": "previousOwner",
          "type": "address"
        },
        {
          "indexed": true,
          "internalType": "address",
          "name": "newOwner",
          "type": "address"
        }
      ],
      "name": "OwnershipTransferred",
      "type": "event"
    },
    {
      "stateMutability": "payable",
      "type": "fallback"
    },
    {
      "inputs": [
        {
          "internalType": "string",
          "name": "_description",
          "type": "string"
        }
      ],
      "name": "addPrivilege",
      "outputs": [],
      "stateMutability": "payable",
      "type": "function"
    },
    {
      "inputs": [
        {
          "internalType": "uint256",
          "name": "_idp",
          "type": "uint256"
        },
        {
          "internalType": "uint256",
          "name": "_amount",
          "type": "uint256"
        }
      ],
      "name": "addPrivilegePrice",
      "outputs": [],
      "stateMutability": "nonpayable",
      "type": "function"
    },
    {
      "inputs": [],
      "name": "amountpriv",
      "outputs": [
        {
          "internalType": "uint256",
          "name": "",
          "type": "uint256"
        }
      ],
      "stateMutability": "view",
      "type": "function"
    },
    {
      "inputs": [
        {
          "internalType": "uint256",
          "name": "_amount",
          "type": "uint256"
        }
      ],
      "name": "approveArpacoin",
      "outputs": [],
      "stateMutability": "nonpayable",
      "type": "function"
    },
    {
      "inputs": [],
      "name": "arpa3Token",
      "outputs": [
        {
          "internalType": "contract IERC20",
          "name": "",
          "type": "address"
        }
      ],
      "stateMutability": "view",
      "type": "function"
    },
    {
      "inputs": [
        {
          "internalType": "uint256",
          "name": "_indexp",
          "type": "uint256"
        },
        {
          "internalType": "uint256",
          "name": "_amount",
          "type": "uint256"
        }
      ],
      "name": "buyPrivilege",
      "outputs": [],
      "stateMutability": "nonpayable",
      "type": "function"
    },
    {
      "inputs": [],
      "name": "counter",
      "outputs": [
        {
          "internalType": "uint256",
          "name": "",
          "type": "uint256"
        }
      ],
      "stateMutability": "view",
      "type": "function"
    },
    {
      "inputs": [],
      "name": "getArpaTokenBalance",
      "outputs": [
        {
          "internalType": "uint256",
          "name": "",
          "type": "uint256"
        }
      ],
      "stateMutability": "view",
      "type": "function"
    },
    {
      "inputs": [],
      "name": "getBalanceSC",
      "outputs": [
        {
          "internalType": "uint256",
          "name": "",
          "type": "uint256"
        }
      ],
      "stateMutability": "view",
      "type": "function"
    },
    {
      "inputs": [],
      "name": "getMyBalanceDep",
      "outputs": [
        {
          "internalType": "uint256",
          "name": "",
          "type": "uint256"
        }
      ],
      "stateMutability": "view",
      "type": "function"
    },
    {
      "inputs": [],
      "name": "getMyEthBalance",
      "outputs": [
        {
          "internalType": "uint256",
          "name": "",
          "type": "uint256"
        }
      ],
      "stateMutability": "view",
      "type": "function"
    },
    {
      "inputs": [],
      "name": "getOrders",
      "outputs": [
        {
          "components": [
            {
              "internalType": "address",
              "name": "winnerAddress",
              "type": "address"
            },
            {
              "internalType": "uint256",
              "name": "privilegeID",
              "type": "uint256"
            },
            {
              "internalType": "string",
              "name": "descprivi",
              "type": "string"
            },
            {
              "internalType": "uint256",
              "name": "timestamprivi",
              "type": "uint256"
            },
            {
              "internalType": "uint256",
              "name": "amountprivi",
              "type": "uint256"
            },
            {
              "internalType": "bool",
              "name": "consoprivi",
              "type": "bool"
            }
          ],
          "internalType": "struct Arpa3.Orders[]",
          "name": "",
          "type": "tuple[]"
        }
      ],
      "stateMutability": "view",
      "type": "function"
    },
    {
      "inputs": [],
      "name": "getPrivilege",
      "outputs": [
        {
          "components": [
            {
              "internalType": "uint256",
              "name": "idP",
              "type": "uint256"
            },
            {
              "internalType": "uint256",
              "name": "amount",
              "type": "uint256"
            },
            {
              "internalType": "string",
              "name": "description",
              "type": "string"
            },
            {
              "internalType": "uint256",
              "name": "nbVote",
              "type": "uint256"
            },
            {
              "internalType": "bool",
              "name": "isActive",
              "type": "bool"
            }
          ],
          "internalType": "struct Arpa3.Privilege[]",
          "name": "",
          "type": "tuple[]"
        }
      ],
      "stateMutability": "view",
      "type": "function"
    },
    {
      "inputs": [],
      "name": "getProposal",
      "outputs": [
        {
          "components": [
            {
              "internalType": "address",
              "name": "addresse",
              "type": "address"
            },
            {
              "internalType": "string",
              "name": "name",
              "type": "string"
            },
            {
              "internalType": "string",
              "name": "firstname",
              "type": "string"
            },
            {
              "internalType": "string",
              "name": "service",
              "type": "string"
            },
            {
              "internalType": "uint256",
              "name": "nbvote",
              "type": "uint256"
            }
          ],
          "internalType": "struct Arpa3.Proposal[]",
          "name": "",
          "type": "tuple[]"
        }
      ],
      "stateMutability": "view",
      "type": "function"
    },
    {
      "inputs": [],
      "name": "getWinner",
      "outputs": [
        {
          "components": [
            {
              "internalType": "address",
              "name": "addresse",
              "type": "address"
            },
            {
              "internalType": "string",
              "name": "name",
              "type": "string"
            },
            {
              "internalType": "string",
              "name": "firstname",
              "type": "string"
            },
            {
              "internalType": "string",
              "name": "service",
              "type": "string"
            },
            {
              "internalType": "uint256",
              "name": "nbvote",
              "type": "uint256"
            }
          ],
          "internalType": "struct Arpa3.Proposal",
          "name": "",
          "type": "tuple"
        }
      ],
      "stateMutability": "view",
      "type": "function"
    },
    {
      "inputs": [],
      "name": "hasVoted",
      "outputs": [
        {
          "internalType": "bool",
          "name": "",
          "type": "bool"
        }
      ],
      "stateMutability": "view",
      "type": "function"
    },
    {
      "inputs": [
        {
          "internalType": "address",
          "name": "_address",
          "type": "address"
        }
      ],
      "name": "isAccountExist",
      "outputs": [
        {
          "internalType": "bool",
          "name": "",
          "type": "bool"
        }
      ],
      "stateMutability": "view",
      "type": "function"
    },
    {
      "inputs": [],
      "name": "minimumVote",
      "outputs": [
        {
          "internalType": "uint256",
          "name": "",
          "type": "uint256"
        }
      ],
      "stateMutability": "view",
      "type": "function"
    },
    {
      "inputs": [
        {
          "internalType": "uint256",
          "name": "_idp",
          "type": "uint256"
        },
        {
          "internalType": "bool",
          "name": "_status",
          "type": "bool"
        }
      ],
      "name": "moderatePrivilege",
      "outputs": [],
      "stateMutability": "nonpayable",
      "type": "function"
    },
    {
      "inputs": [],
      "name": "number",
      "outputs": [
        {
          "internalType": "uint256",
          "name": "",
          "type": "uint256"
        }
      ],
      "stateMutability": "view",
      "type": "function"
    },
    {
      "inputs": [
        {
          "internalType": "uint256",
          "name": "",
          "type": "uint256"
        }
      ],
      "name": "ordersArray",
      "outputs": [
        {
          "internalType": "address",
          "name": "winnerAddress",
          "type": "address"
        },
        {
          "internalType": "uint256",
          "name": "privilegeID",
          "type": "uint256"
        },
        {
          "internalType": "string",
          "name": "descprivi",
          "type": "string"
        },
        {
          "internalType": "uint256",
          "name": "timestamprivi",
          "type": "uint256"
        },
        {
          "internalType": "uint256",
          "name": "amountprivi",
          "type": "uint256"
        },
        {
          "internalType": "bool",
          "name": "consoprivi",
          "type": "bool"
        }
      ],
      "stateMutability": "view",
      "type": "function"
    },
    {
      "inputs": [],
      "name": "owner",
      "outputs": [
        {
          "internalType": "address",
          "name": "",
          "type": "address"
        }
      ],
      "stateMutability": "view",
      "type": "function"
    },
    {
      "inputs": [
        {
          "internalType": "uint256",
          "name": "",
          "type": "uint256"
        }
      ],
      "name": "proposalArray",
      "outputs": [
        {
          "internalType": "address",
          "name": "addresse",
          "type": "address"
        },
        {
          "internalType": "string",
          "name": "name",
          "type": "string"
        },
        {
          "internalType": "string",
          "name": "firstname",
          "type": "string"
        },
        {
          "internalType": "string",
          "name": "service",
          "type": "string"
        },
        {
          "internalType": "uint256",
          "name": "nbvote",
          "type": "uint256"
        }
      ],
      "stateMutability": "view",
      "type": "function"
    },
    {
      "inputs": [],
      "name": "renounceOwnership",
      "outputs": [],
      "stateMutability": "nonpayable",
      "type": "function"
    },
    {
      "inputs": [],
      "name": "rewardAmount",
      "outputs": [
        {
          "internalType": "uint256",
          "name": "",
          "type": "uint256"
        }
      ],
      "stateMutability": "view",
      "type": "function"
    },
    {
      "inputs": [
        {
          "internalType": "uint256",
          "name": "_amount",
          "type": "uint256"
        }
      ],
      "name": "setAmountPrivilege",
      "outputs": [],
      "stateMutability": "nonpayable",
      "type": "function"
    },
    {
      "inputs": [
        {
          "internalType": "uint256",
          "name": "_index",
          "type": "uint256"
        },
        {
          "internalType": "bool",
          "name": "_status",
          "type": "bool"
        }
      ],
      "name": "setConsoOrders",
      "outputs": [],
      "stateMutability": "nonpayable",
      "type": "function"
    },
    {
      "inputs": [
        {
          "internalType": "uint256",
          "name": "_amount",
          "type": "uint256"
        }
      ],
      "name": "setMinimumVote",
      "outputs": [],
      "stateMutability": "nonpayable",
      "type": "function"
    },
    {
      "inputs": [
        {
          "internalType": "string",
          "name": "_name",
          "type": "string"
        },
        {
          "internalType": "string",
          "name": "_firstname",
          "type": "string"
        },
        {
          "internalType": "string",
          "name": "_service",
          "type": "string"
        }
      ],
      "name": "setProfilAndProposal",
      "outputs": [],
      "stateMutability": "nonpayable",
      "type": "function"
    },
    {
      "inputs": [
        {
          "internalType": "uint256",
          "name": "_amount",
          "type": "uint256"
        }
      ],
      "name": "setRewardAmount",
      "outputs": [],
      "stateMutability": "nonpayable",
      "type": "function"
    },
    {
      "inputs": [
        {
          "internalType": "uint256",
          "name": "_id",
          "type": "uint256"
        },
        {
          "internalType": "string",
          "name": "_motivation",
          "type": "string"
        }
      ],
      "name": "setVote",
      "outputs": [],
      "stateMutability": "nonpayable",
      "type": "function"
    },
    {
      "inputs": [
        {
          "internalType": "enum Arpa3.WorkflowStatus",
          "name": "_step",
          "type": "uint8"
        }
      ],
      "name": "setWorkflowstatus",
      "outputs": [],
      "stateMutability": "nonpayable",
      "type": "function"
    },
    {
      "inputs": [],
      "name": "startVoteSession",
      "outputs": [],
      "stateMutability": "nonpayable",
      "type": "function"
    },
    {
      "inputs": [],
      "name": "stopVoteSession",
      "outputs": [],
      "stateMutability": "nonpayable",
      "type": "function"
    },
    {
      "inputs": [
        {
          "internalType": "address",
          "name": "newOwner",
          "type": "address"
        }
      ],
      "name": "transferOwnership",
      "outputs": [],
      "stateMutability": "nonpayable",
      "type": "function"
    },
    {
      "inputs": [
        {
          "internalType": "address",
          "name": "",
          "type": "address"
        }
      ],
      "name": "users",
      "outputs": [
        {
          "internalType": "string",
          "name": "name",
          "type": "string"
        },
        {
          "internalType": "string",
          "name": "firstname",
          "type": "string"
        },
        {
          "internalType": "uint256",
          "name": "nbVotePrivilege",
          "type": "uint256"
        },
        {
          "internalType": "bool",
          "name": "hasvoted",
          "type": "bool"
        },
        {
          "internalType": "bool",
          "name": "active",
          "type": "bool"
        }
      ],
      "stateMutability": "view",
      "type": "function"
    },
    {
      "inputs": [],
      "name": "votingSessionNumber",
      "outputs": [
        {
          "internalType": "uint256",
          "name": "",
          "type": "uint256"
        }
      ],
      "stateMutability": "view",
      "type": "function"
    },
    {
      "inputs": [],
      "name": "workflowstatus",
      "outputs": [
        {
          "internalType": "enum Arpa3.WorkflowStatus",
          "name": "",
          "type": "uint8"
        }
      ],
      "stateMutability": "view",
      "type": "function"
    },
    {
      "stateMutability": "payable",
      "type": "receive"
    }
  ],
  "transactionHash": "0xbcf01d5d3846b89eaf03689d5d72ac5cfa6b3044871bd1294726e7958c438f29",
  "args": [
    "0x67b01552eEACc87FA0AA0C2dc4285735A48DD326"
  ],
  "numDeployments": 2,
  "solcInputHash": "d8dbfda236830f810286ffe041742ad7",
  "bytecode": "0x60a060405260006004556706f05b59d3b2000060055560016006556706f05b59d3b200006009553480156200003357600080fd5b5060405162005065380380620050658339818101604052810190620000599190620001f1565b620000796200006d620000bb60201b60201c565b620000c360201b60201c565b600180819055508073ffffffffffffffffffffffffffffffffffffffff1660808173ffffffffffffffffffffffffffffffffffffffff16815250505062000223565b600033905090565b60008060009054906101000a900473ffffffffffffffffffffffffffffffffffffffff169050816000806101000a81548173ffffffffffffffffffffffffffffffffffffffff021916908373ffffffffffffffffffffffffffffffffffffffff1602179055508173ffffffffffffffffffffffffffffffffffffffff168173ffffffffffffffffffffffffffffffffffffffff167f8be0079c531659141344cd1fd0a4f28419497f9722a3daafe3b4186f6b6457e060405160405180910390a35050565b600080fd5b600073ffffffffffffffffffffffffffffffffffffffff82169050919050565b6000620001b9826200018c565b9050919050565b620001cb81620001ac565b8114620001d757600080fd5b50565b600081519050620001eb81620001c0565b92915050565b6000602082840312156200020a576200020962000187565b5b60006200021a84828501620001da565b91505092915050565b608051614dfc6200026960003960008181610a2c015281816111390152818161165401528181611aef015281816122b7015281816123f90152612eca0152614dfc6000f3fe6080604052600436106102295760003560e01c80638da5cb5b11610123578063b32c9356116100ab578063f2fde38b1161006f578063f2fde38b146107b7578063f3b3cb6a146107e0578063f5ad317514610809578063f7b2a7be14610832578063ffdf7cb11461085d57610230565b8063b32c9356146106f8578063b47e9d4014610723578063b9e2bea01461073a578063c366c56c14610765578063c6abda3c1461078e57610230565b8063a730bfaf116100f2578063a730bfaf1461060c578063a87430ba14610635578063a8a65a7814610676578063a96c879e1461069f578063aaa98346146106e157610230565b80638da5cb5b146105605780638e7ea5b21461058b5780639867a103146105b65780639b169595146105e157610230565b80633db42de7116101b15780636482133811610175578063648213381461049f578063715018a6146104ca578063771f7805146104e15780637f47997e1461050a5780638381f58a1461053557610230565b80633db42de7146103cc57806342e3cf1e146103f557806358e7a5991461042057806361bc221a1461044b578063634c2d771461047657610230565b80632d033284116101f85780632d033284146102f05780632e2dc43e1461031b5780633a19825d146103465780633cfdf802146103875780633d665f45146103a357610230565b80630709dec81461023257806314b4a4f91461025d5780631dbe22be1461029a5780631f21580d146102c557610230565b3661023057005b005b34801561023e57600080fd5b50610247610886565b6040516102549190613094565b60405180910390f35b34801561026957600080fd5b50610284600480360381019061027f9190613117565b6108a5565b604051610291919061315f565b60405180910390f35b3480156102a657600080fd5b506102af6108fe565b6040516102bc9190613360565b60405180910390f35b3480156102d157600080fd5b506102da610a28565b6040516102e79190613094565b60405180910390f35b3480156102fc57600080fd5b50610305610ac9565b6040516103129190613094565b60405180910390f35b34801561032757600080fd5b50610330610acf565b60405161033d91906134dc565b60405180910390f35b34801561035257600080fd5b5061036d6004803603810190610368919061352a565b610c4f565b60405161037e9594939291906135b0565b60405180910390f35b6103a1600480360381019061039c919061367d565b610e4d565b005b3480156103af57600080fd5b506103ca60048036038101906103c5919061352a565b6110e2565b005b3480156103d857600080fd5b506103f360048036038101906103ee919061352a565b611137565b005b34801561040157600080fd5b5061040a6111ec565b6040516104179190613094565b60405180910390f35b34801561042c57600080fd5b50610435611233565b6040516104429190613741565b60405180910390f35b34801561045757600080fd5b50610460611246565b60405161046d9190613094565b60405180910390f35b34801561048257600080fd5b5061049d6004803603810190610498919061352a565b61124c565b005b3480156104ab57600080fd5b506104b461125e565b6040516104c1919061315f565b60405180910390f35b3480156104d657600080fd5b506104df6112b5565b005b3480156104ed57600080fd5b5061050860048036038101906105039190613788565b6112c9565b005b34801561051657600080fd5b5061051f611356565b60405161052c9190613094565b60405180910390f35b34801561054157600080fd5b5061054a61135c565b6040516105579190613094565b60405180910390f35b34801561056c57600080fd5b50610575611362565b60405161058291906137c8565b60405180910390f35b34801561059757600080fd5b506105a061138b565b6040516105ad9190613867565b60405180910390f35b3480156105c257600080fd5b506105cb611652565b6040516105d891906138e8565b60405180910390f35b3480156105ed57600080fd5b506105f6611676565b6040516106039190613094565b60405180910390f35b34801561061857600080fd5b50610633600480360381019061062e9190613903565b61167c565b005b34801561064157600080fd5b5061065c60048036038101906106579190613117565b611739565b60405161066d959493929190613943565b60405180910390f35b34801561068257600080fd5b5061069d6004803603810190610698919061352a565b611899565b005b3480156106ab57600080fd5b506106c660048036038101906106c1919061352a565b6118ab565b6040516106d8969594939291906139a4565b60405180910390f35b3480156106ed57600080fd5b506106f66119ac565b005b34801561070457600080fd5b5061070d611aeb565b60405161071a9190613094565b60405180910390f35b34801561072f57600080fd5b50610738611b8c565b005b34801561074657600080fd5b5061074f611c1d565b60405161075c9190613b52565b60405180910390f35b34801561077157600080fd5b5061078c60048036038101906107879190613b74565b611e92565b005b34801561079a57600080fd5b506107b560048036038101906107b09190613bf9565b612170565b005b3480156107c357600080fd5b506107de60048036038101906107d99190613117565b6121a5565b005b3480156107ec57600080fd5b5061080760048036038101906108029190613788565b612228565b005b34801561081557600080fd5b50610830600480360381019061082b9190613903565b612271565b005b34801561083e57600080fd5b50610847612704565b6040516108549190613094565b60405180910390f35b34801561086957600080fd5b50610884600480360381019061087f9190613c26565b61270a565b005b60003373ffffffffffffffffffffffffffffffffffffffff1631905090565b6000600d60008373ffffffffffffffffffffffffffffffffffffffff1673ffffffffffffffffffffffffffffffffffffffff16815260200190815260200160002060030160019054906101000a900460ff169050919050565b6060600a805480602002602001604051908101604052809291908181526020016000905b82821015610a1f57838290600052602060002090600502016040518060a0016040529081600082015481526020016001820154815260200160028201805461096990613d09565b80601f016020809104026020016040519081016040528092919081815260200182805461099590613d09565b80156109e25780601f106109b7576101008083540402835291602001916109e2565b820191906000526020600020905b8154815290600101906020018083116109c557829003601f168201915b50505050508152602001600382015481526020016004820160009054906101000a900460ff16151515158152505081526020019060010190610922565b50505050905090565b60007f000000000000000000000000000000000000000000000000000000000000000073ffffffffffffffffffffffffffffffffffffffff166370a08231336040518263ffffffff1660e01b8152600401610a8391906137c8565b602060405180830381865afa158015610aa0573d6000803e3d6000fd5b505050506040513d601f19601f82011682018060405250810190610ac49190613d4f565b905090565b60055481565b6060600c805480602002602001604051908101604052809291908181526020016000905b82821015610c4657838290600052602060002090600602016040518060c00160405290816000820160009054906101000a900473ffffffffffffffffffffffffffffffffffffffff1673ffffffffffffffffffffffffffffffffffffffff1673ffffffffffffffffffffffffffffffffffffffff16815260200160018201548152602001600282018054610b8690613d09565b80601f0160208091040260200160405190810160405280929190818152602001828054610bb290613d09565b8015610bff5780601f10610bd457610100808354040283529160200191610bff565b820191906000526020600020905b815481529060010190602001808311610be257829003601f168201915b5050505050815260200160038201548152602001600482015481526020016005820160009054906101000a900460ff16151515158152505081526020019060010190610af3565b50505050905090565b600b8181548110610c5f57600080fd5b90600052602060002090600502016000915090508060000160009054906101000a900473ffffffffffffffffffffffffffffffffffffffff1690806001018054610ca890613d09565b80601f0160208091040260200160405190810160405280929190818152602001828054610cd490613d09565b8015610d215780601f10610cf657610100808354040283529160200191610d21565b820191906000526020600020905b815481529060010190602001808311610d0457829003601f168201915b505050505090806002018054610d3690613d09565b80601f0160208091040260200160405190810160405280929190818152602001828054610d6290613d09565b8015610daf5780601f10610d8457610100808354040283529160200191610daf565b820191906000526020600020905b815481529060010190602001808311610d9257829003601f168201915b505050505090806003018054610dc490613d09565b80601f0160208091040260200160405190810160405280929190818152602001828054610df090613d09565b8015610e3d5780601f10610e1257610100808354040283529160200191610e3d565b820191906000526020600020905b815481529060010190602001808311610e2057829003601f168201915b5050505050908060040154905085565b610e55612c02565b60011515600d60003373ffffffffffffffffffffffffffffffffffffffff1673ffffffffffffffffffffffffffffffffffffffff16815260200190815260200160002060030160019054906101000a900460ff16151514610eeb576040517f08c379a0000000000000000000000000000000000000000000000000000000008152600401610ee290613dc8565b60405180910390fd5b6005543414610f2f576040517f08c379a0000000000000000000000000000000000000000000000000000000008152600401610f2690613e34565b60405180910390fd5b610f37612fb7565b600354816000018181525050600081602001818152505082828080601f016020809104026020016040519081016040528093929190818152602001838380828437600081840152601f19601f8201169050808301925050505050505081604001819052506001816080019015159081151581525050600a819080600181540180825580915050600190039060005260206000209060050201600090919091909150600082015181600001556020820151816001015560408201518160020190816110019190614025565b506060820151816003015560808201518160040160006101000a81548160ff021916908315150217905550505034600e60003373ffffffffffffffffffffffffffffffffffffffff1673ffffffffffffffffffffffffffffffffffffffff168152602001908152602001600020600082825461107d9190614126565b925050819055506003600081546110939061415a565b919050819055507f79b4967f952c2e2a563ed6ece6722a54e83844ba5ab08f9f5cdaaf27560125de3384846040516110cd939291906141de565b60405180910390a1506110de612c51565b5050565b6110ea612c5a565b6000811161112d576040517f08c379a00000000000000000000000000000000000000000000000000000000081526004016111249061425c565b60405180910390fd5b8060058190555050565b7f000000000000000000000000000000000000000000000000000000000000000073ffffffffffffffffffffffffffffffffffffffff1663095ea7b333670de0b6b3a764000084611188919061427c565b6040518363ffffffff1660e01b81526004016111a59291906142be565b6020604051808303816000875af11580156111c4573d6000803e3d6000fd5b505050506040513d601f19601f820116820180604052508101906111e891906142fc565b5050565b6000600e60003373ffffffffffffffffffffffffffffffffffffffff1673ffffffffffffffffffffffffffffffffffffffff16815260200190815260200160002054905090565b600260009054906101000a900460ff1681565b60035481565b611254612c5a565b8060068190555050565b6000600d60003373ffffffffffffffffffffffffffffffffffffffff1673ffffffffffffffffffffffffffffffffffffffff16815260200190815260200160002060030160009054906101000a900460ff16905090565b6112bd612c5a565b6112c76000612cd8565b565b6112d1612c5a565b6000821015611315576040517f08c379a000000000000000000000000000000000000000000000000000000000815260040161130c90614375565b60405180910390fd5b80600c838154811061132a57611329614395565b5b906000526020600020906006020160050160006101000a81548160ff0219169083151502179055505050565b60075481565b60045481565b60008060009054906101000a900473ffffffffffffffffffffffffffffffffffffffff16905090565b611393612fe8565b6003808111156113a6576113a56136ca565b5b600260009054906101000a900460ff1660038111156113c8576113c76136ca565b5b14611408576040517f08c379a00000000000000000000000000000000000000000000000000000000081526004016113ff90614410565b60405180910390fd5b600b6008548154811061141e5761141d614395565b5b90600052602060002090600502016040518060a00160405290816000820160009054906101000a900473ffffffffffffffffffffffffffffffffffffffff1673ffffffffffffffffffffffffffffffffffffffff1673ffffffffffffffffffffffffffffffffffffffff16815260200160018201805461149d90613d09565b80601f01602080910402602001604051908101604052809291908181526020018280546114c990613d09565b80156115165780601f106114eb57610100808354040283529160200191611516565b820191906000526020600020905b8154815290600101906020018083116114f957829003601f168201915b5050505050815260200160028201805461152f90613d09565b80601f016020809104026020016040519081016040528092919081815260200182805461155b90613d09565b80156115a85780601f1061157d576101008083540402835291602001916115a8565b820191906000526020600020905b81548152906001019060200180831161158b57829003601f168201915b505050505081526020016003820180546115c190613d09565b80601f01602080910402602001604051908101604052809291908181526020018280546115ed90613d09565b801561163a5780601f1061160f5761010080835404028352916020019161163a565b820191906000526020600020905b81548152906001019060200180831161161d57829003601f168201915b50505050508152602001600482015481525050905090565b7f000000000000000000000000000000000000000000000000000000000000000081565b60065481565b611684612c5a565b600081116116c7576040517f08c379a00000000000000000000000000000000000000000000000000000000081526004016116be9061447c565b60405180910390fd5b600082101561170b576040517f08c379a0000000000000000000000000000000000000000000000000000000008152600401611702906144e8565b60405180910390fd5b80600a83815481106117205761171f614395565b5b9060005260206000209060050201600101819055505050565b600d60205280600052604060002060009150905080600001805461175c90613d09565b80601f016020809104026020016040519081016040528092919081815260200182805461178890613d09565b80156117d55780601f106117aa576101008083540402835291602001916117d5565b820191906000526020600020905b8154815290600101906020018083116117b857829003601f168201915b5050505050908060010180546117ea90613d09565b80601f016020809104026020016040519081016040528092919081815260200182805461181690613d09565b80156118635780601f1061183857610100808354040283529160200191611863565b820191906000526020600020905b81548152906001019060200180831161184657829003601f168201915b5050505050908060020154908060030160009054906101000a900460ff16908060030160019054906101000a900460ff16905085565b6118a1612c5a565b8060098190555050565b600c81815481106118bb57600080fd5b90600052602060002090600602016000915090508060000160009054906101000a900473ffffffffffffffffffffffffffffffffffffffff169080600101549080600201805461190a90613d09565b80601f016020809104026020016040519081016040528092919081815260200182805461193690613d09565b80156119835780601f1061195857610100808354040283529160200191611983565b820191906000526020600020905b81548152906001019060200180831161196657829003601f168201915b5050505050908060030154908060040154908060050160009054906101000a900460ff16905086565b6119b4612c5a565b60006004819055506007600081546119cb9061415a565b9190508190555060028060006101000a81548160ff021916908360038111156119f7576119f66136ca565b5b021790555060005b600b80549050811015611ae8576000600b8281548110611a2257611a21614395565b5b9060005260206000209060050201600401819055506000600d6000600b8481548110611a5157611a50614395565b5b906000526020600020906005020160000160009054906101000a900473ffffffffffffffffffffffffffffffffffffffff1673ffffffffffffffffffffffffffffffffffffffff1673ffffffffffffffffffffffffffffffffffffffff16815260200190815260200160002060030160006101000a81548160ff02191690831515021790555080611ae19061415a565b90506119ff565b50565b60007f000000000000000000000000000000000000000000000000000000000000000073ffffffffffffffffffffffffffffffffffffffff166370a08231306040518263ffffffff1660e01b8152600401611b4691906137c8565b602060405180830381865afa158015611b63573d6000803e3d6000fd5b505050506040513d601f19601f82011682018060405250810190611b879190613d4f565b905090565b611b94612c5a565b6003600260006101000a81548160ff02191690836003811115611bba57611bb96136ca565b5b021790555060065460045410611c1b57611c1a600b60085481548110611be357611be2614395565b5b906000526020600020906005020160000160009054906101000a900473ffffffffffffffffffffffffffffffffffffffff16612d9c565b5b565b6060600b805480602002602001604051908101604052809291908181526020016000905b82821015611e8957838290600052602060002090600502016040518060a00160405290816000820160009054906101000a900473ffffffffffffffffffffffffffffffffffffffff1673ffffffffffffffffffffffffffffffffffffffff1673ffffffffffffffffffffffffffffffffffffffff168152602001600182018054611cca90613d09565b80601f0160208091040260200160405190810160405280929190818152602001828054611cf690613d09565b8015611d435780601f10611d1857610100808354040283529160200191611d43565b820191906000526020600020905b815481529060010190602001808311611d2657829003601f168201915b50505050508152602001600282018054611d5c90613d09565b80601f0160208091040260200160405190810160405280929190818152602001828054611d8890613d09565b8015611dd55780601f10611daa57610100808354040283529160200191611dd5565b820191906000526020600020905b815481529060010190602001808311611db857829003601f168201915b50505050508152602001600382018054611dee90613d09565b80601f0160208091040260200160405190810160405280929190818152602001828054611e1a90613d09565b8015611e675780601f10611e3c57610100808354040283529160200191611e67565b820191906000526020600020905b815481529060010190602001808311611e4a57829003601f168201915b5050505050815260200160048201548152505081526020019060010190611c41565b50505050905090565b60026003811115611ea657611ea56136ca565b5b600260009054906101000a900460ff166003811115611ec857611ec76136ca565b5b14611f08576040517f08c379a0000000000000000000000000000000000000000000000000000000008152600401611eff9061457a565b60405180910390fd5b600d60003373ffffffffffffffffffffffffffffffffffffffff1673ffffffffffffffffffffffffffffffffffffffff16815260200190815260200160002060030160009054906101000a900460ff1615611f98576040517f08c379a0000000000000000000000000000000000000000000000000000000008152600401611f8f906145e6565b60405180910390fd5b600b805490508310611fdf576040517f08c379a0000000000000000000000000000000000000000000000000000000008152600401611fd690614652565b60405180910390fd5b6001600d60003373ffffffffffffffffffffffffffffffffffffffff1673ffffffffffffffffffffffffffffffffffffffff16815260200190815260200160002060030160006101000a81548160ff021916908315150217905550600b838154811061204e5761204d614395565b5b906000526020600020906005020160040160008154809291906120709061415a565b9190505550600b6008548154811061208b5761208a614395565b5b906000526020600020906005020160040154600b84815481106120b1576120b0614395565b5b90600052602060002090600502016004015411156120d157826008819055505b6004600081546120e09061415a565b919050819055507f9a4b1974a303b6b8937c2f2186a95dc8466a1b5f12f3908d04c7e4afc0079bd9600754600b858154811061211f5761211e614395565b5b906000526020600020906005020160000160009054906101000a900473ffffffffffffffffffffffffffffffffffffffff1684846040516121639493929190614672565b60405180910390a1505050565b612178612c5a565b80600260006101000a81548160ff0219169083600381111561219d5761219c6136ca565b5b021790555050565b6121ad612c5a565b600073ffffffffffffffffffffffffffffffffffffffff168173ffffffffffffffffffffffffffffffffffffffff160361221c576040517f08c379a000000000000000000000000000000000000000000000000000000000815260040161221390614724565b60405180910390fd5b61222581612cd8565b50565b612230612c5a565b80600a838154811061224557612244614395565b5b906000526020600020906005020160040160006101000a81548160ff0219169083151502179055505050565b600081116122b4576040517f08c379a00000000000000000000000000000000000000000000000000000000081526004016122ab90614790565b60405180910390fd5b807f000000000000000000000000000000000000000000000000000000000000000073ffffffffffffffffffffffffffffffffffffffff166370a08231336040518263ffffffff1660e01b815260040161230e91906137c8565b602060405180830381865afa15801561232b573d6000803e3d6000fd5b505050506040513d601f19601f8201168201806040525081019061234f9190613d4f565b1015612390576040517f08c379a000000000000000000000000000000000000000000000000000000000815260040161238790614822565b60405180910390fd5b80600a83815481106123a5576123a4614395565b5b906000526020600020906005020160010154146123f7576040517f08c379a00000000000000000000000000000000000000000000000000000000081526004016123ee9061488e565b60405180910390fd5b7f000000000000000000000000000000000000000000000000000000000000000073ffffffffffffffffffffffffffffffffffffffff166323b872dd3330846040518463ffffffff1660e01b8152600401612454939291906148ae565b6020604051808303816000875af1158015612473573d6000803e3d6000fd5b505050506040513d601f19601f8201168201806040525081019061249791906142fc565b6124d6576040517f08c379a00000000000000000000000000000000000000000000000000000000081526004016124cd90614931565b60405180910390fd5b6124de61302d565b33816000019073ffffffffffffffffffffffffffffffffffffffff16908173ffffffffffffffffffffffffffffffffffffffff168152505082816020018181525050600a838154811061253457612533614395565b5b9060005260206000209060050201600201805461255090613d09565b80601f016020809104026020016040519081016040528092919081815260200182805461257c90613d09565b80156125c95780601f1061259e576101008083540402835291602001916125c9565b820191906000526020600020905b8154815290600101906020018083116125ac57829003601f168201915b50505050508160400181905250428160600181815250508181608001818152505060008160a0019015159081151581525050600c81908060018154018082558091505060019003906000526020600020906006020160009091909190915060008201518160000160006101000a81548173ffffffffffffffffffffffffffffffffffffffff021916908373ffffffffffffffffffffffffffffffffffffffff16021790555060208201518160010155604082015181600201908161268d9190614025565b50606082015181600301556080820151816004015560a08201518160050160006101000a81548160ff02191690831515021790555050507ff6f342132c7de5e5a1e99c8efae544c94731f3ff093f5c3c97c6973d9415cdfb3383856040516126f793929190614951565b60405180910390a1505050565b60095481565b600073ffffffffffffffffffffffffffffffffffffffff163373ffffffffffffffffffffffffffffffffffffffff1603612779576040517f08c379a0000000000000000000000000000000000000000000000000000000008152600401612770906149d4565b60405180910390fd5b600d60003373ffffffffffffffffffffffffffffffffffffffff1673ffffffffffffffffffffffffffffffffffffffff16815260200190815260200160002060030160019054906101000a900460ff1615612809576040517f08c379a000000000000000000000000000000000000000000000000000000000815260040161280090614a40565b60405180910390fd5b60008686905011801561281f5750600084849050115b801561282e5750600082829050115b61286d576040517f08c379a000000000000000000000000000000000000000000000000000000000815260040161286490614aac565b60405180910390fd5b8585600d60003373ffffffffffffffffffffffffffffffffffffffff1673ffffffffffffffffffffffffffffffffffffffff16815260200190815260200160002060000191826128be929190614ad7565b508383600d60003373ffffffffffffffffffffffffffffffffffffffff1673ffffffffffffffffffffffffffffffffffffffff1681526020019081526020016000206001019182612910929190614ad7565b506000600d60003373ffffffffffffffffffffffffffffffffffffffff1673ffffffffffffffffffffffffffffffffffffffff16815260200190815260200160002060030160006101000a81548160ff0219169083151502179055506001600d60003373ffffffffffffffffffffffffffffffffffffffff1673ffffffffffffffffffffffffffffffffffffffff16815260200190815260200160002060030160016101000a81548160ff0219169083151502179055506129cf612fe8565b33816000019073ffffffffffffffffffffffffffffffffffffffff16908173ffffffffffffffffffffffffffffffffffffffff168152505086868080601f016020809104026020016040519081016040528093929190818152602001838380828437600081840152601f19601f82011690508083019250505050505050816020018190525084848080601f016020809104026020016040519081016040528093929190818152602001838380828437600081840152601f19601f82011690508083019250505050505050816040018190525082828080601f016020809104026020016040519081016040528093929190818152602001838380828437600081840152601f19601f8201169050808301925050505050505081606001819052506000816080018181525050600b81908060018154018082558091505060019003906000526020600020906005020160009091909190915060008201518160000160006101000a81548173ffffffffffffffffffffffffffffffffffffffff021916908373ffffffffffffffffffffffffffffffffffffffff1602179055506020820151816001019081612b819190614025565b506040820151816002019081612b979190614025565b506060820151816003019081612bad9190614025565b506080820151816004015550507fdb662c8b79ccb9909891c358aec9651e782d0ad9523566bd659c084b5fefcec73388888888604051612bf1959493929190614ba7565b60405180910390a150505050505050565b600260015403612c47576040517f08c379a0000000000000000000000000000000000000000000000000000000008152600401612c3e90614c3c565b60405180910390fd5b6002600181905550565b60018081905550565b612c62612faf565b73ffffffffffffffffffffffffffffffffffffffff16612c80611362565b73ffffffffffffffffffffffffffffffffffffffff1614612cd6576040517f08c379a0000000000000000000000000000000000000000000000000000000008152600401612ccd90614ca8565b60405180910390fd5b565b60008060009054906101000a900473ffffffffffffffffffffffffffffffffffffffff169050816000806101000a81548173ffffffffffffffffffffffffffffffffffffffff021916908373ffffffffffffffffffffffffffffffffffffffff1602179055508173ffffffffffffffffffffffffffffffffffffffff168173ffffffffffffffffffffffffffffffffffffffff167f8be0079c531659141344cd1fd0a4f28419497f9722a3daafe3b4186f6b6457e060405160405180910390a35050565b612da4612c02565b600073ffffffffffffffffffffffffffffffffffffffff168173ffffffffffffffffffffffffffffffffffffffff1603612e13576040517f08c379a0000000000000000000000000000000000000000000000000000000008152600401612e0a90614d14565b60405180910390fd5b8073ffffffffffffffffffffffffffffffffffffffff16600b60085481548110612e4057612e3f614395565b5b906000526020600020906005020160000160009054906101000a900473ffffffffffffffffffffffffffffffffffffffff1673ffffffffffffffffffffffffffffffffffffffff1614612ec8576040517f08c379a0000000000000000000000000000000000000000000000000000000008152600401612ebf90614da6565b60405180910390fd5b7f000000000000000000000000000000000000000000000000000000000000000073ffffffffffffffffffffffffffffffffffffffff1663a9059cbb826009546040518363ffffffff1660e01b8152600401612f259291906142be565b6020604051808303816000875af1158015612f44573d6000803e3d6000fd5b505050506040513d601f19601f82011682018060405250810190612f6891906142fc565b507f2e06e81581e774f145d32b1feac204fb2683499d425091cb4fcfc137726008c281600954604051612f9c9291906142be565b60405180910390a1612fac612c51565b50565b600033905090565b6040518060a00160405280600081526020016000815260200160608152602001600081526020016000151581525090565b6040518060a00160405280600073ffffffffffffffffffffffffffffffffffffffff168152602001606081526020016060815260200160608152602001600081525090565b6040518060c00160405280600073ffffffffffffffffffffffffffffffffffffffff168152602001600081526020016060815260200160008152602001600081526020016000151581525090565b6000819050919050565b61308e8161307b565b82525050565b60006020820190506130a96000830184613085565b92915050565b600080fd5b600080fd5b600073ffffffffffffffffffffffffffffffffffffffff82169050919050565b60006130e4826130b9565b9050919050565b6130f4816130d9565b81146130ff57600080fd5b50565b600081359050613111816130eb565b92915050565b60006020828403121561312d5761312c6130af565b5b600061313b84828501613102565b91505092915050565b60008115159050919050565b61315981613144565b82525050565b60006020820190506131746000830184613150565b92915050565b600081519050919050565b600082825260208201905092915050565b6000819050602082019050919050565b6131af8161307b565b82525050565b600081519050919050565b600082825260208201905092915050565b60005b838110156131ef5780820151818401526020810190506131d4565b60008484015250505050565b6000601f19601f8301169050919050565b6000613217826131b5565b61322181856131c0565b93506132318185602086016131d1565b61323a816131fb565b840191505092915050565b61324e81613144565b82525050565b600060a08301600083015161326c60008601826131a6565b50602083015161327f60208601826131a6565b5060408301518482036040860152613297828261320c565b91505060608301516132ac60608601826131a6565b5060808301516132bf6080860182613245565b508091505092915050565b60006132d68383613254565b905092915050565b6000602082019050919050565b60006132f68261317a565b6133008185613185565b93508360208202850161331285613196565b8060005b8581101561334e578484038952815161332f85826132ca565b945061333a836132de565b925060208a01995050600181019050613316565b50829750879550505050505092915050565b6000602082019050818103600083015261337a81846132eb565b905092915050565b600081519050919050565b600082825260208201905092915050565b6000819050602082019050919050565b6133b7816130d9565b82525050565b600060c0830160008301516133d560008601826133ae565b5060208301516133e860208601826131a6565b5060408301518482036040860152613400828261320c565b915050606083015161341560608601826131a6565b50608083015161342860808601826131a6565b5060a083015161343b60a0860182613245565b508091505092915050565b600061345283836133bd565b905092915050565b6000602082019050919050565b600061347282613382565b61347c818561338d565b93508360208202850161348e8561339e565b8060005b858110156134ca57848403895281516134ab8582613446565b94506134b68361345a565b925060208a01995050600181019050613492565b50829750879550505050505092915050565b600060208201905081810360008301526134f68184613467565b905092915050565b6135078161307b565b811461351257600080fd5b50565b600081359050613524816134fe565b92915050565b6000602082840312156135405761353f6130af565b5b600061354e84828501613515565b91505092915050565b613560816130d9565b82525050565b600082825260208201905092915050565b6000613582826131b5565b61358c8185613566565b935061359c8185602086016131d1565b6135a5816131fb565b840191505092915050565b600060a0820190506135c56000830188613557565b81810360208301526135d78187613577565b905081810360408301526135eb8186613577565b905081810360608301526135ff8185613577565b905061360e6080830184613085565b9695505050505050565b600080fd5b600080fd5b600080fd5b60008083601f84011261363d5761363c613618565b5b8235905067ffffffffffffffff81111561365a5761365961361d565b5b60208301915083600182028301111561367657613675613622565b5b9250929050565b60008060208385031215613694576136936130af565b5b600083013567ffffffffffffffff8111156136b2576136b16130b4565b5b6136be85828601613627565b92509250509250929050565b7f4e487b7100000000000000000000000000000000000000000000000000000000600052602160045260246000fd5b6004811061370a576137096136ca565b5b50565b600081905061371b826136f9565b919050565b600061372b8261370d565b9050919050565b61373b81613720565b82525050565b60006020820190506137566000830184613732565b92915050565b61376581613144565b811461377057600080fd5b50565b6000813590506137828161375c565b92915050565b6000806040838503121561379f5761379e6130af565b5b60006137ad85828601613515565b92505060206137be85828601613773565b9150509250929050565b60006020820190506137dd6000830184613557565b92915050565b600060a0830160008301516137fb60008601826133ae565b5060208301518482036020860152613813828261320c565b9150506040830151848203604086015261382d828261320c565b91505060608301518482036060860152613847828261320c565b915050608083015161385c60808601826131a6565b508091505092915050565b6000602082019050818103600083015261388181846137e3565b905092915050565b6000819050919050565b60006138ae6138a96138a4846130b9565b613889565b6130b9565b9050919050565b60006138c082613893565b9050919050565b60006138d2826138b5565b9050919050565b6138e2816138c7565b82525050565b60006020820190506138fd60008301846138d9565b92915050565b6000806040838503121561391a576139196130af565b5b600061392885828601613515565b925050602061393985828601613515565b9150509250929050565b600060a082019050818103600083015261395d8188613577565b905081810360208301526139718187613577565b90506139806040830186613085565b61398d6060830185613150565b61399a6080830184613150565b9695505050505050565b600060c0820190506139b96000830189613557565b6139c66020830188613085565b81810360408301526139d88187613577565b90506139e76060830186613085565b6139f46080830185613085565b613a0160a0830184613150565b979650505050505050565b600081519050919050565b600082825260208201905092915050565b6000819050602082019050919050565b600060a083016000830151613a5060008601826133ae565b5060208301518482036020860152613a68828261320c565b91505060408301518482036040860152613a82828261320c565b91505060608301518482036060860152613a9c828261320c565b9150506080830151613ab160808601826131a6565b508091505092915050565b6000613ac88383613a38565b905092915050565b6000602082019050919050565b6000613ae882613a0c565b613af28185613a17565b935083602082028501613b0485613a28565b8060005b85811015613b405784840389528151613b218582613abc565b9450613b2c83613ad0565b925060208a01995050600181019050613b08565b50829750879550505050505092915050565b60006020820190508181036000830152613b6c8184613add565b905092915050565b600080600060408486031215613b8d57613b8c6130af565b5b6000613b9b86828701613515565b935050602084013567ffffffffffffffff811115613bbc57613bbb6130b4565b5b613bc886828701613627565b92509250509250925092565b60048110613be157600080fd5b50565b600081359050613bf381613bd4565b92915050565b600060208284031215613c0f57613c0e6130af565b5b6000613c1d84828501613be4565b91505092915050565b60008060008060008060608789031215613c4357613c426130af565b5b600087013567ffffffffffffffff811115613c6157613c606130b4565b5b613c6d89828a01613627565b9650965050602087013567ffffffffffffffff811115613c9057613c8f6130b4565b5b613c9c89828a01613627565b9450945050604087013567ffffffffffffffff811115613cbf57613cbe6130b4565b5b613ccb89828a01613627565b92509250509295509295509295565b7f4e487b7100000000000000000000000000000000000000000000000000000000600052602260045260246000fd5b60006002820490506001821680613d2157607f821691505b602082108103613d3457613d33613cda565b5b50919050565b600081519050613d49816134fe565b92915050565b600060208284031215613d6557613d646130af565b5b6000613d7384828501613d3a565b91505092915050565b7f55736572206e6f74207265636f72646564000000000000000000000000000000600082015250565b6000613db2601183613566565b9150613dbd82613d7c565b602082019050919050565b60006020820190508181036000830152613de181613da5565b9050919050565b7f496e636f727265637420616d6f756e7400000000000000000000000000000000600082015250565b6000613e1e601083613566565b9150613e2982613de8565b602082019050919050565b60006020820190508181036000830152613e4d81613e11565b9050919050565b7f4e487b7100000000000000000000000000000000000000000000000000000000600052604160045260246000fd5b60008190508160005260206000209050919050565b60006020601f8301049050919050565b600082821b905092915050565b600060088302613ee57fffffffffffffffffffffffffffffffffffffffffffffffffffffffffffffffff82613ea8565b613eef8683613ea8565b95508019841693508086168417925050509392505050565b6000613f22613f1d613f188461307b565b613889565b61307b565b9050919050565b6000819050919050565b613f3c83613f07565b613f50613f4882613f29565b848454613eb5565b825550505050565b600090565b613f65613f58565b613f70818484613f33565b505050565b5b81811015613f9457613f89600082613f5d565b600181019050613f76565b5050565b601f821115613fd957613faa81613e83565b613fb384613e98565b81016020851015613fc2578190505b613fd6613fce85613e98565b830182613f75565b50505b505050565b600082821c905092915050565b6000613ffc60001984600802613fde565b1980831691505092915050565b60006140158383613feb565b9150826002028217905092915050565b61402e826131b5565b67ffffffffffffffff81111561404757614046613e54565b5b6140518254613d09565b61405c828285613f98565b600060209050601f83116001811461408f576000841561407d578287015190505b6140878582614009565b8655506140ef565b601f19841661409d86613e83565b60005b828110156140c5578489015182556001820191506020850194506020810190506140a0565b868310156140e257848901516140de601f891682613feb565b8355505b6001600288020188555050505b505050505050565b7f4e487b7100000000000000000000000000000000000000000000000000000000600052601160045260246000fd5b60006141318261307b565b915061413c8361307b565b9250828201905080821115614154576141536140f7565b5b92915050565b60006141658261307b565b91507fffffffffffffffffffffffffffffffffffffffffffffffffffffffffffffffff8203614197576141966140f7565b5b600182019050919050565b82818337600083830152505050565b60006141bd8385613566565b93506141ca8385846141a2565b6141d3836131fb565b840190509392505050565b60006040820190506141f36000830186613557565b81810360208301526142068184866141b1565b9050949350505050565b7f6e6f7420656e6f75676820666f722070726976696c6567650000000000000000600082015250565b6000614246601883613566565b915061425182614210565b602082019050919050565b6000602082019050818103600083015261427581614239565b9050919050565b60006142878261307b565b91506142928361307b565b92508282026142a08161307b565b915082820484148315176142b7576142b66140f7565b5b5092915050565b60006040820190506142d36000830185613557565b6142e06020830184613085565b9392505050565b6000815190506142f68161375c565b92915050565b600060208284031215614312576143116130af565b5b6000614320848285016142e7565b91505092915050565b7f4261642073657474696e67730000000000000000000000000000000000000000600082015250565b600061435f600c83613566565b915061436a82614329565b602082019050919050565b6000602082019050818103600083015261438e81614352565b9050919050565b7f4e487b7100000000000000000000000000000000000000000000000000000000600052603260045260246000fd5b7f53657373696f6e20566f7465206e6f7420636c6f736564000000000000000000600082015250565b60006143fa601783613566565b9150614405826143c4565b602082019050919050565b60006020820190508181036000830152614429816143ed565b9050919050565b7f42616420616d6f756e7420666f722070726976696c6567650000000000000000600082015250565b6000614466601883613566565b915061447182614430565b602082019050919050565b6000602082019050818103600083015261449581614459565b9050919050565b7f4261642070726976696c656765206964656e7469666965720000000000000000600082015250565b60006144d2601883613566565b91506144dd8261449c565b602082019050919050565b60006020820190508181036000830152614501816144c5565b9050919050565b7f566f74696e672073657373696f6e20686176656e74207374617274656420796560008201527f7400000000000000000000000000000000000000000000000000000000000000602082015250565b6000614564602183613566565b915061456f82614508565b604082019050919050565b6000602082019050818103600083015261459381614557565b9050919050565b7f596f75206861766520616c726561647920766f74656400000000000000000000600082015250565b60006145d0601683613566565b91506145db8261459a565b602082019050919050565b600060208201905081810360008301526145ff816145c3565b9050919050565b7f50726f706f73616c206e6f7420666f756e640000000000000000000000000000600082015250565b600061463c601283613566565b915061464782614606565b602082019050919050565b6000602082019050818103600083015261466b8161462f565b9050919050565b60006060820190506146876000830187613085565b6146946020830186613557565b81810360408301526146a78184866141b1565b905095945050505050565b7f4f776e61626c653a206e6577206f776e657220697320746865207a65726f206160008201527f6464726573730000000000000000000000000000000000000000000000000000602082015250565b600061470e602683613566565b9150614719826146b2565b604082019050919050565b6000602082019050818103600083015261473d81614701565b9050919050565b7f4e6f7420636f7272656374207072696365000000000000000000000000000000600082015250565b600061477a601183613566565b915061478582614744565b602082019050919050565b600060208201905081810360008301526147a98161476d565b9050919050565b7f4e6f7420656e6f756768742066756e647320746f20627579207468697320707260008201527f6976696c65676500000000000000000000000000000000000000000000000000602082015250565b600061480c602783613566565b9150614817826147b0565b604082019050919050565b6000602082019050818103600083015261483b816147ff565b9050919050565b7f5065746974206d616c696e207661202e2e2e0000000000000000000000000000600082015250565b6000614878601283613566565b915061488382614842565b602082019050919050565b600060208201905081810360008301526148a78161486b565b9050919050565b60006060820190506148c36000830186613557565b6148d06020830185613557565b6148dd6040830184613085565b949350505050565b7f5472616e73666572206572726575720000000000000000000000000000000000600082015250565b600061491b600f83613566565b9150614926826148e5565b602082019050919050565b6000602082019050818103600083015261494a8161490e565b9050919050565b60006060820190506149666000830186613557565b6149736020830185613085565b6149806040830184613085565b949350505050565b7f6e6f7420636f6e6e656374656400000000000000000000000000000000000000600082015250565b60006149be600d83613566565b91506149c982614988565b602082019050919050565b600060208201905081810360008301526149ed816149b1565b9050919050565b7f4163636f756e7420616c72656164792045786973740000000000000000000000600082015250565b6000614a2a601583613566565b9150614a35826149f4565b602082019050919050565b60006020820190508181036000830152614a5981614a1d565b9050919050565b7f56616c7565206e6f7420656d7074790000000000000000000000000000000000600082015250565b6000614a96600f83613566565b9150614aa182614a60565b602082019050919050565b60006020820190508181036000830152614ac581614a89565b9050919050565b600082905092915050565b614ae18383614acc565b67ffffffffffffffff811115614afa57614af9613e54565b5b614b048254613d09565b614b0f828285613f98565b6000601f831160018114614b3e5760008415614b2c578287013590505b614b368582614009565b865550614b9e565b601f198416614b4c86613e83565b60005b82811015614b7457848901358255600182019150602085019450602081019050614b4f565b86831015614b915784890135614b8d601f891682613feb565b8355505b6001600288020188555050505b50505050505050565b6000606082019050614bbc6000830188613557565b8181036020830152614bcf8186886141b1565b90508181036040830152614be48184866141b1565b90509695505050505050565b7f5265656e7472616e637947756172643a207265656e7472616e742063616c6c00600082015250565b6000614c26601f83613566565b9150614c3182614bf0565b602082019050919050565b60006020820190508181036000830152614c5581614c19565b9050919050565b7f4f776e61626c653a2063616c6c6572206973206e6f7420746865206f776e6572600082015250565b6000614c92602083613566565b9150614c9d82614c5c565b602082019050919050565b60006020820190508181036000830152614cc181614c85565b9050919050565b7f6e6f742076616c6964206163636f756e74000000000000000000000000000000600082015250565b6000614cfe601183613566565b9150614d0982614cc8565b602082019050919050565b60006020820190508181036000830152614d2d81614cf1565b9050919050565b7f596f7520617265206e6f74207468652057696e6e65722053657373696f6e207660008201527f6f74650000000000000000000000000000000000000000000000000000000000602082015250565b6000614d90602383613566565b9150614d9b82614d34565b604082019050919050565b60006020820190508181036000830152614dbf81614d83565b905091905056fea26469706673582212201dbb564dd355bee8e646d49634eac049ea03fa2a61357478c9396b10a43c82ac64736f6c63430008130033",
  "devdoc": {
    "kind": "dev",
    "methods": {
      "addPrivilegePrice(uint256,uint256)": {
        "details": "send Token to winner"
      },
      "owner()": {
        "details": "Returns the address of the current owner."
      },
      "renounceOwnership()": {
        "details": "Leaves the contract without owner. It will not be possible to call `onlyOwner` functions. Can only be called by the current owner. NOTE: Renouncing ownership will leave the contract without an owner, thereby disabling any functionality that is only available to the owner."
      },
      "stopVoteSession()": {
        "details": "Reinit du compteur de vote en cours pour la session (number)MinimumVote to send token at vote session stop"
      },
      "transferOwnership(address)": {
        "details": "Transfers ownership of the contract to a new account (`newOwner`). Can only be called by the current owner."
      }
    },
    "version": 1
  },
  "userdoc": {
    "kind": "user",
    "methods": {
      "addPrivilegePrice(uint256,uint256)": {
        "notice": "Display the winner and clean data for next session"
      },
      "isAccountExist(address)": {
        "notice": "Check if user is recorded on chain / Address and Proposal "
      },
      "setProfilAndProposal(string,string,string)": {
        "notice": "Record profil user and record proposaleach users can be proposal"
      }
    },
    "version": 1
  },
  "storageLayout": {
    "storage": [
      {
        "astId": 7,
        "contract": "contracts/Arpa3.sol:Arpa3",
        "label": "_owner",
        "offset": 0,
        "slot": "0",
        "type": "t_address"
      },
      {
        "astId": 123,
        "contract": "contracts/Arpa3.sol:Arpa3",
        "label": "_status",
        "offset": 0,
        "slot": "1",
        "type": "t_uint256"
      },
      {
        "astId": 297,
        "contract": "contracts/Arpa3.sol:Arpa3",
        "label": "workflowstatus",
        "offset": 0,
        "slot": "2",
        "type": "t_enum(WorkflowStatus)294"
      },
      {
        "astId": 299,
        "contract": "contracts/Arpa3.sol:Arpa3",
        "label": "counter",
        "offset": 0,
        "slot": "3",
        "type": "t_uint256"
      },
      {
        "astId": 302,
        "contract": "contracts/Arpa3.sol:Arpa3",
        "label": "number",
        "offset": 0,
        "slot": "4",
        "type": "t_uint256"
      },
      {
        "astId": 305,
        "contract": "contracts/Arpa3.sol:Arpa3",
        "label": "amountpriv",
        "offset": 0,
        "slot": "5",
        "type": "t_uint256"
      },
      {
        "astId": 308,
        "contract": "contracts/Arpa3.sol:Arpa3",
        "label": "minimumVote",
        "offset": 0,
        "slot": "6",
        "type": "t_uint256"
      },
      {
        "astId": 310,
        "contract": "contracts/Arpa3.sol:Arpa3",
        "label": "votingSessionNumber",
        "offset": 0,
        "slot": "7",
        "type": "t_uint256"
      },
      {
        "astId": 312,
        "contract": "contracts/Arpa3.sol:Arpa3",
        "label": "winningProposalID",
        "offset": 0,
        "slot": "8",
        "type": "t_uint256"
      },
      {
        "astId": 315,
        "contract": "contracts/Arpa3.sol:Arpa3",
        "label": "rewardAmount",
        "offset": 0,
        "slot": "9",
        "type": "t_uint256"
      },
      {
        "astId": 330,
        "contract": "contracts/Arpa3.sol:Arpa3",
        "label": "privilegeArray",
        "offset": 0,
        "slot": "10",
        "type": "t_array(t_struct(Privilege)326_storage)dyn_storage"
      },
      {
        "astId": 345,
        "contract": "contracts/Arpa3.sol:Arpa3",
        "label": "proposalArray",
        "offset": 0,
        "slot": "11",
        "type": "t_array(t_struct(Proposal)341_storage)dyn_storage"
      },
      {
        "astId": 373,
        "contract": "contracts/Arpa3.sol:Arpa3",
        "label": "ordersArray",
        "offset": 0,
        "slot": "12",
        "type": "t_array(t_struct(Orders)369_storage)dyn_storage"
      },
      {
        "astId": 378,
        "contract": "contracts/Arpa3.sol:Arpa3",
        "label": "users",
        "offset": 0,
        "slot": "13",
        "type": "t_mapping(t_address,t_struct(Profil)356_storage)"
      },
      {
        "astId": 382,
        "contract": "contracts/Arpa3.sol:Arpa3",
        "label": "balances",
        "offset": 0,
        "slot": "14",
        "type": "t_mapping(t_address,t_uint256)"
      }
    ],
    "types": {
      "t_address": {
        "encoding": "inplace",
        "label": "address",
        "numberOfBytes": "20"
      },
      "t_array(t_struct(Orders)369_storage)dyn_storage": {
        "base": "t_struct(Orders)369_storage",
        "encoding": "dynamic_array",
        "label": "struct Arpa3.Orders[]",
        "numberOfBytes": "32"
      },
      "t_array(t_struct(Privilege)326_storage)dyn_storage": {
        "base": "t_struct(Privilege)326_storage",
        "encoding": "dynamic_array",
        "label": "struct Arpa3.Privilege[]",
        "numberOfBytes": "32"
      },
      "t_array(t_struct(Proposal)341_storage)dyn_storage": {
        "base": "t_struct(Proposal)341_storage",
        "encoding": "dynamic_array",
        "label": "struct Arpa3.Proposal[]",
        "numberOfBytes": "32"
      },
      "t_bool": {
        "encoding": "inplace",
        "label": "bool",
        "numberOfBytes": "1"
      },
      "t_enum(WorkflowStatus)294": {
        "encoding": "inplace",
        "label": "enum Arpa3.WorkflowStatus",
        "numberOfBytes": "1"
      },
      "t_mapping(t_address,t_struct(Profil)356_storage)": {
        "encoding": "mapping",
        "key": "t_address",
        "label": "mapping(address => struct Arpa3.Profil)",
        "numberOfBytes": "32",
        "value": "t_struct(Profil)356_storage"
      },
      "t_mapping(t_address,t_uint256)": {
        "encoding": "mapping",
        "key": "t_address",
        "label": "mapping(address => uint256)",
        "numberOfBytes": "32",
        "value": "t_uint256"
      },
      "t_string_storage": {
        "encoding": "bytes",
        "label": "string",
        "numberOfBytes": "32"
      },
      "t_struct(Orders)369_storage": {
        "encoding": "inplace",
        "label": "struct Arpa3.Orders",
        "members": [
          {
            "astId": 358,
            "contract": "contracts/Arpa3.sol:Arpa3",
            "label": "winnerAddress",
            "offset": 0,
            "slot": "0",
            "type": "t_address"
          },
          {
            "astId": 360,
            "contract": "contracts/Arpa3.sol:Arpa3",
            "label": "privilegeID",
            "offset": 0,
            "slot": "1",
            "type": "t_uint256"
          },
          {
            "astId": 362,
            "contract": "contracts/Arpa3.sol:Arpa3",
            "label": "descprivi",
            "offset": 0,
            "slot": "2",
            "type": "t_string_storage"
          },
          {
            "astId": 364,
            "contract": "contracts/Arpa3.sol:Arpa3",
            "label": "timestamprivi",
            "offset": 0,
            "slot": "3",
            "type": "t_uint256"
          },
          {
            "astId": 366,
            "contract": "contracts/Arpa3.sol:Arpa3",
            "label": "amountprivi",
            "offset": 0,
            "slot": "4",
            "type": "t_uint256"
          },
          {
            "astId": 368,
            "contract": "contracts/Arpa3.sol:Arpa3",
            "label": "consoprivi",
            "offset": 0,
            "slot": "5",
            "type": "t_bool"
          }
        ],
        "numberOfBytes": "192"
      },
      "t_struct(Privilege)326_storage": {
        "encoding": "inplace",
        "label": "struct Arpa3.Privilege",
        "members": [
          {
            "astId": 317,
            "contract": "contracts/Arpa3.sol:Arpa3",
            "label": "idP",
            "offset": 0,
            "slot": "0",
            "type": "t_uint256"
          },
          {
            "astId": 319,
            "contract": "contracts/Arpa3.sol:Arpa3",
            "label": "amount",
            "offset": 0,
            "slot": "1",
            "type": "t_uint256"
          },
          {
            "astId": 321,
            "contract": "contracts/Arpa3.sol:Arpa3",
            "label": "description",
            "offset": 0,
            "slot": "2",
            "type": "t_string_storage"
          },
          {
            "astId": 323,
            "contract": "contracts/Arpa3.sol:Arpa3",
            "label": "nbVote",
            "offset": 0,
            "slot": "3",
            "type": "t_uint256"
          },
          {
            "astId": 325,
            "contract": "contracts/Arpa3.sol:Arpa3",
            "label": "isActive",
            "offset": 0,
            "slot": "4",
            "type": "t_bool"
          }
        ],
        "numberOfBytes": "160"
      },
      "t_struct(Profil)356_storage": {
        "encoding": "inplace",
        "label": "struct Arpa3.Profil",
        "members": [
          {
            "astId": 347,
            "contract": "contracts/Arpa3.sol:Arpa3",
            "label": "name",
            "offset": 0,
            "slot": "0",
            "type": "t_string_storage"
          },
          {
            "astId": 349,
            "contract": "contracts/Arpa3.sol:Arpa3",
            "label": "firstname",
            "offset": 0,
            "slot": "1",
            "type": "t_string_storage"
          },
          {
            "astId": 351,
            "contract": "contracts/Arpa3.sol:Arpa3",
            "label": "nbVotePrivilege",
            "offset": 0,
            "slot": "2",
            "type": "t_uint256"
          },
          {
            "astId": 353,
            "contract": "contracts/Arpa3.sol:Arpa3",
            "label": "hasvoted",
            "offset": 0,
            "slot": "3",
            "type": "t_bool"
          },
          {
            "astId": 355,
            "contract": "contracts/Arpa3.sol:Arpa3",
            "label": "active",
            "offset": 1,
            "slot": "3",
            "type": "t_bool"
          }
        ],
        "numberOfBytes": "128"
      },
      "t_struct(Proposal)341_storage": {
        "encoding": "inplace",
        "label": "struct Arpa3.Proposal",
        "members": [
          {
            "astId": 332,
            "contract": "contracts/Arpa3.sol:Arpa3",
            "label": "addresse",
            "offset": 0,
            "slot": "0",
            "type": "t_address"
          },
          {
            "astId": 334,
            "contract": "contracts/Arpa3.sol:Arpa3",
            "label": "name",
            "offset": 0,
            "slot": "1",
            "type": "t_string_storage"
          },
          {
            "astId": 336,
            "contract": "contracts/Arpa3.sol:Arpa3",
            "label": "firstname",
            "offset": 0,
            "slot": "2",
            "type": "t_string_storage"
          },
          {
            "astId": 338,
            "contract": "contracts/Arpa3.sol:Arpa3",
            "label": "service",
            "offset": 0,
            "slot": "3",
            "type": "t_string_storage"
          },
          {
            "astId": 340,
            "contract": "contracts/Arpa3.sol:Arpa3",
            "label": "nbvote",
            "offset": 0,
            "slot": "4",
            "type": "t_uint256"
          }
        ],
        "numberOfBytes": "160"
      },
      "t_uint256": {
        "encoding": "inplace",
        "label": "uint256",
        "numberOfBytes": "32"
      }
    }
  }
}