{
  "_format": "hh-sol-artifact-1",
  "contractName": "Arpa3",
  "sourceName": "contracts/Arpa3.sol",
  "abi": [
    {
      "inputs": [
        {
          "internalType": "address",
          "name": "_rewardToken",
          "type": "address"
        }
      ],
      "stateMutability": "nonpayable",
      "type": "constructor"
    },
    {
      "anonymous": false,
      "inputs": [
        {
          "indexed": false,
          "internalType": "address",
          "name": "_address",
          "type": "address"
        },
        {
          "indexed": false,
          "internalType": "string",
          "name": "_description",
          "type": "string"
        }
      ],
      "name": "AddPrivilege",
      "type": "event"
    },
    {
      "anonymous": false,
      "inputs": [
        {
          "indexed": false,
          "internalType": "address",
          "name": "_address",
          "type": "address"
        },
        {
          "indexed": false,
          "internalType": "string",
          "name": "_name",
          "type": "string"
        },
        {
          "indexed": false,
          "internalType": "string",
          "name": "_firstname",
          "type": "string"
        }
      ],
      "name": "AddProfil",
      "type": "event"
    },
    {
      "anonymous": false,
      "inputs": [
        {
          "indexed": false,
          "internalType": "address",
          "name": "_address",
          "type": "address"
        },
        {
          "indexed": false,
          "internalType": "uint256",
          "name": "_amount",
          "type": "uint256"
        },
        {
          "indexed": false,
          "internalType": "uint256",
          "name": "_indexp",
          "type": "uint256"
        }
      ],
      "name": "BuyToken",
      "type": "event"
    },
    {
      "anonymous": false,
      "inputs": [
        {
          "indexed": false,
          "internalType": "uint256",
          "name": "_session",
          "type": "uint256"
        },
        {
          "indexed": false,
          "internalType": "address",
          "name": "_adresse",
          "type": "address"
        },
        {
          "indexed": false,
          "internalType": "uint256",
          "name": "_nbVote",
          "type": "uint256"
        }
      ],
      "name": "GetWinnerSession",
      "type": "event"
    },
    {
      "anonymous": false,
      "inputs": [
        {
          "indexed": false,
          "internalType": "address",
          "name": "_address",
          "type": "address"
        },
        {
          "indexed": false,
          "internalType": "uint256",
          "name": "_amount",
          "type": "uint256"
        }
      ],
      "name": "GetWinnerToken",
      "type": "event"
    },
    {
      "anonymous": false,
      "inputs": [
        {
          "indexed": false,
          "internalType": "uint256",
          "name": "_session",
          "type": "uint256"
        },
        {
          "indexed": false,
          "internalType": "address",
          "name": "_adresse",
          "type": "address"
        },
        {
          "indexed": false,
          "internalType": "string",
          "name": "motivation",
          "type": "string"
        }
      ],
      "name": "HistoricVote",
      "type": "event"
    },
    {
      "anonymous": false,
      "inputs": [
        {
          "indexed": true,
          "internalType": "address",
          "name": "previousOwner",
          "type": "address"
        },
        {
          "indexed": true,
          "internalType": "address",
          "name": "newOwner",
          "type": "address"
        }
      ],
      "name": "OwnershipTransferred",
      "type": "event"
    },
    {
      "stateMutability": "payable",
      "type": "fallback"
    },
    {
      "inputs": [
        {
          "internalType": "string",
          "name": "_description",
          "type": "string"
        }
      ],
      "name": "addPrivilege",
      "outputs": [],
      "stateMutability": "payable",
      "type": "function"
    },
    {
      "inputs": [
        {
          "internalType": "uint256",
          "name": "_idp",
          "type": "uint256"
        },
        {
          "internalType": "uint256",
          "name": "_amount",
          "type": "uint256"
        }
      ],
      "name": "addPrivilegePrice",
      "outputs": [],
      "stateMutability": "nonpayable",
      "type": "function"
    },
    {
      "inputs": [],
      "name": "amountpriv",
      "outputs": [
        {
          "internalType": "uint256",
          "name": "",
          "type": "uint256"
        }
      ],
      "stateMutability": "view",
      "type": "function"
    },
    {
      "inputs": [
        {
          "internalType": "uint256",
          "name": "_amount",
          "type": "uint256"
        }
      ],
      "name": "approveArpacoin",
      "outputs": [],
      "stateMutability": "nonpayable",
      "type": "function"
    },
    {
      "inputs": [],
      "name": "arpa3Token",
      "outputs": [
        {
          "internalType": "contract IERC20",
          "name": "",
          "type": "address"
        }
      ],
      "stateMutability": "view",
      "type": "function"
    },
    {
      "inputs": [
        {
          "internalType": "uint256",
          "name": "_indexp",
          "type": "uint256"
        },
        {
          "internalType": "uint256",
          "name": "_amount",
          "type": "uint256"
        }
      ],
      "name": "buyPrivilege",
      "outputs": [],
      "stateMutability": "nonpayable",
      "type": "function"
    },
    {
      "inputs": [],
      "name": "counter",
      "outputs": [
        {
          "internalType": "uint256",
          "name": "",
          "type": "uint256"
        }
      ],
      "stateMutability": "view",
      "type": "function"
    },
    {
      "inputs": [],
      "name": "getArpaTokenBalance",
      "outputs": [
        {
          "internalType": "uint256",
          "name": "",
          "type": "uint256"
        }
      ],
      "stateMutability": "view",
      "type": "function"
    },
    {
      "inputs": [],
      "name": "getBalanceSC",
      "outputs": [
        {
          "internalType": "uint256",
          "name": "",
          "type": "uint256"
        }
      ],
      "stateMutability": "view",
      "type": "function"
    },
    {
      "inputs": [],
      "name": "getMyBalanceDep",
      "outputs": [
        {
          "internalType": "uint256",
          "name": "",
          "type": "uint256"
        }
      ],
      "stateMutability": "view",
      "type": "function"
    },
    {
      "inputs": [],
      "name": "getMyEthBalance",
      "outputs": [
        {
          "internalType": "uint256",
          "name": "",
          "type": "uint256"
        }
      ],
      "stateMutability": "view",
      "type": "function"
    },
    {
      "inputs": [],
      "name": "getOrders",
      "outputs": [
        {
          "components": [
            {
              "internalType": "address",
              "name": "winnerAddress",
              "type": "address"
            },
            {
              "internalType": "uint256",
              "name": "privilegeID",
              "type": "uint256"
            },
            {
              "internalType": "string",
              "name": "descprivi",
              "type": "string"
            },
            {
              "internalType": "uint256",
              "name": "timestamprivi",
              "type": "uint256"
            },
            {
              "internalType": "uint256",
              "name": "amountprivi",
              "type": "uint256"
            },
            {
              "internalType": "bool",
              "name": "consoprivi",
              "type": "bool"
            }
          ],
          "internalType": "struct Arpa3.Orders[]",
          "name": "",
          "type": "tuple[]"
        }
      ],
      "stateMutability": "view",
      "type": "function"
    },
    {
      "inputs": [],
      "name": "getPrivilege",
      "outputs": [
        {
          "components": [
            {
              "internalType": "uint256",
              "name": "idP",
              "type": "uint256"
            },
            {
              "internalType": "uint256",
              "name": "amount",
              "type": "uint256"
            },
            {
              "internalType": "string",
              "name": "description",
              "type": "string"
            },
            {
              "internalType": "uint256",
              "name": "nbVote",
              "type": "uint256"
            },
            {
              "internalType": "bool",
              "name": "isActive",
              "type": "bool"
            }
          ],
          "internalType": "struct Arpa3.Privilege[]",
          "name": "",
          "type": "tuple[]"
        }
      ],
      "stateMutability": "view",
      "type": "function"
    },
    {
      "inputs": [],
      "name": "getProposal",
      "outputs": [
        {
          "components": [
            {
              "internalType": "address",
              "name": "addresse",
              "type": "address"
            },
            {
              "internalType": "string",
              "name": "name",
              "type": "string"
            },
            {
              "internalType": "string",
              "name": "firstname",
              "type": "string"
            },
            {
              "internalType": "string",
              "name": "service",
              "type": "string"
            },
            {
              "internalType": "uint256",
              "name": "nbvote",
              "type": "uint256"
            }
          ],
          "internalType": "struct Arpa3.Proposal[]",
          "name": "",
          "type": "tuple[]"
        }
      ],
      "stateMutability": "view",
      "type": "function"
    },
    {
      "inputs": [],
      "name": "getWinner",
      "outputs": [
        {
          "components": [
            {
              "internalType": "address",
              "name": "addresse",
              "type": "address"
            },
            {
              "internalType": "string",
              "name": "name",
              "type": "string"
            },
            {
              "internalType": "string",
              "name": "firstname",
              "type": "string"
            },
            {
              "internalType": "string",
              "name": "service",
              "type": "string"
            },
            {
              "internalType": "uint256",
              "name": "nbvote",
              "type": "uint256"
            }
          ],
          "internalType": "struct Arpa3.Proposal",
          "name": "",
          "type": "tuple"
        }
      ],
      "stateMutability": "view",
      "type": "function"
    },
    {
      "inputs": [],
      "name": "hasVoted",
      "outputs": [
        {
          "internalType": "bool",
          "name": "",
          "type": "bool"
        }
      ],
      "stateMutability": "view",
      "type": "function"
    },
    {
      "inputs": [
        {
          "internalType": "address",
          "name": "_address",
          "type": "address"
        }
      ],
      "name": "isAccountExist",
      "outputs": [
        {
          "internalType": "bool",
          "name": "",
          "type": "bool"
        }
      ],
      "stateMutability": "view",
      "type": "function"
    },
    {
      "inputs": [],
      "name": "number",
      "outputs": [
        {
          "internalType": "uint256",
          "name": "",
          "type": "uint256"
        }
      ],
      "stateMutability": "view",
      "type": "function"
    },
    {
      "inputs": [
        {
          "internalType": "uint256",
          "name": "",
          "type": "uint256"
        }
      ],
      "name": "ordersArray",
      "outputs": [
        {
          "internalType": "address",
          "name": "winnerAddress",
          "type": "address"
        },
        {
          "internalType": "uint256",
          "name": "privilegeID",
          "type": "uint256"
        },
        {
          "internalType": "string",
          "name": "descprivi",
          "type": "string"
        },
        {
          "internalType": "uint256",
          "name": "timestamprivi",
          "type": "uint256"
        },
        {
          "internalType": "uint256",
          "name": "amountprivi",
          "type": "uint256"
        },
        {
          "internalType": "bool",
          "name": "consoprivi",
          "type": "bool"
        }
      ],
      "stateMutability": "view",
      "type": "function"
    },
    {
      "inputs": [],
      "name": "owner",
      "outputs": [
        {
          "internalType": "address",
          "name": "",
          "type": "address"
        }
      ],
      "stateMutability": "view",
      "type": "function"
    },
    {
      "inputs": [
        {
          "internalType": "uint256",
          "name": "",
          "type": "uint256"
        }
      ],
      "name": "proposalArray",
      "outputs": [
        {
          "internalType": "address",
          "name": "addresse",
          "type": "address"
        },
        {
          "internalType": "string",
          "name": "name",
          "type": "string"
        },
        {
          "internalType": "string",
          "name": "firstname",
          "type": "string"
        },
        {
          "internalType": "string",
          "name": "service",
          "type": "string"
        },
        {
          "internalType": "uint256",
          "name": "nbvote",
          "type": "uint256"
        }
      ],
      "stateMutability": "view",
      "type": "function"
    },
    {
      "inputs": [],
      "name": "renounceOwnership",
      "outputs": [],
      "stateMutability": "nonpayable",
      "type": "function"
    },
    {
      "inputs": [],
      "name": "rewardAmount",
      "outputs": [
        {
          "internalType": "uint256",
          "name": "",
          "type": "uint256"
        }
      ],
      "stateMutability": "view",
      "type": "function"
    },
    {
      "inputs": [
        {
          "internalType": "string",
          "name": "_name",
          "type": "string"
        },
        {
          "internalType": "string",
          "name": "_firstname",
          "type": "string"
        },
        {
          "internalType": "string",
          "name": "_service",
          "type": "string"
        }
      ],
      "name": "setProfilAndProposal",
      "outputs": [],
      "stateMutability": "nonpayable",
      "type": "function"
    },
    {
      "inputs": [
        {
          "internalType": "uint256",
          "name": "_amount",
          "type": "uint256"
        }
      ],
      "name": "setRewardAmount",
      "outputs": [],
      "stateMutability": "nonpayable",
      "type": "function"
    },
    {
      "inputs": [
        {
          "internalType": "uint256",
          "name": "_id",
          "type": "uint256"
        },
        {
          "internalType": "string",
          "name": "_motivation",
          "type": "string"
        }
      ],
      "name": "setVote",
      "outputs": [],
      "stateMutability": "nonpayable",
      "type": "function"
    },
    {
      "inputs": [
        {
          "internalType": "enum Arpa3.WorkflowStatus",
          "name": "_step",
          "type": "uint8"
        }
      ],
      "name": "setWorkflowstatus",
      "outputs": [],
      "stateMutability": "nonpayable",
      "type": "function"
    },
    {
      "inputs": [],
      "name": "startVoteSession",
      "outputs": [],
      "stateMutability": "nonpayable",
      "type": "function"
    },
    {
      "inputs": [],
      "name": "stopVoteSession",
      "outputs": [],
      "stateMutability": "nonpayable",
      "type": "function"
    },
    {
      "inputs": [
        {
          "internalType": "address",
          "name": "newOwner",
          "type": "address"
        }
      ],
      "name": "transferOwnership",
      "outputs": [],
      "stateMutability": "nonpayable",
      "type": "function"
    },
    {
      "inputs": [
        {
          "internalType": "address",
          "name": "",
          "type": "address"
        }
      ],
      "name": "users",
      "outputs": [
        {
          "internalType": "string",
          "name": "name",
          "type": "string"
        },
        {
          "internalType": "string",
          "name": "firstname",
          "type": "string"
        },
        {
          "internalType": "uint256",
          "name": "nbVotePrivilege",
          "type": "uint256"
        },
        {
          "internalType": "bool",
          "name": "hasvoted",
          "type": "bool"
        },
        {
          "internalType": "bool",
          "name": "active",
          "type": "bool"
        }
      ],
      "stateMutability": "view",
      "type": "function"
    },
    {
      "inputs": [],
      "name": "votingSessionNumber",
      "outputs": [
        {
          "internalType": "uint256",
          "name": "",
          "type": "uint256"
        }
      ],
      "stateMutability": "view",
      "type": "function"
    },
    {
      "inputs": [],
      "name": "workflowstatus",
      "outputs": [
        {
          "internalType": "enum Arpa3.WorkflowStatus",
          "name": "",
          "type": "uint8"
        }
      ],
      "stateMutability": "view",
      "type": "function"
    },
    {
      "stateMutability": "payable",
      "type": "receive"
    }
  ],
  "bytecode": "0x60a06040526706f05b59d3b2000060055560056008553480156200002257600080fd5b5060405162004b6838038062004b688339818101604052810190620000489190620001e0565b620000686200005c620000aa60201b60201c565b620000b260201b60201c565b600180819055508073ffffffffffffffffffffffffffffffffffffffff1660808173ffffffffffffffffffffffffffffffffffffffff16815250505062000212565b600033905090565b60008060009054906101000a900473ffffffffffffffffffffffffffffffffffffffff169050816000806101000a81548173ffffffffffffffffffffffffffffffffffffffff021916908373ffffffffffffffffffffffffffffffffffffffff1602179055508173ffffffffffffffffffffffffffffffffffffffff168173ffffffffffffffffffffffffffffffffffffffff167f8be0079c531659141344cd1fd0a4f28419497f9722a3daafe3b4186f6b6457e060405160405180910390a35050565b600080fd5b600073ffffffffffffffffffffffffffffffffffffffff82169050919050565b6000620001a8826200017b565b9050919050565b620001ba816200019b565b8114620001c657600080fd5b50565b600081519050620001da81620001af565b92915050565b600060208284031215620001f957620001f862000176565b5b60006200020984828501620001c9565b91505092915050565b608051614910620002586000396000818161092601528181610fde0152818161145a0152818161186001528181611fbd015281816120ff0152612bd001526149106000f3fe6080604052600436106101f25760003560e01c80638da5cb5b1161010d578063b32c9356116100a0578063c6abda3c1161006f578063c6abda3c146106b1578063f2fde38b146106da578063f5ad317514610703578063f7b2a7be1461072c578063ffdf7cb114610757576101f9565b8063b32c93561461061b578063b47e9d4014610646578063b9e2bea01461065d578063c366c56c14610688576101f9565b8063a87430ba116100dc578063a87430ba14610558578063a8a65a7814610599578063a96c879e146105c2578063aaa9834614610604576101f9565b80638da5cb5b146104ae5780638e7ea5b2146104d95780639867a10314610504578063a730bfaf1461052f576101f9565b80633db42de71161018557806364821338116101545780636482133814610416578063715018a6146104415780637f47997e146104585780638381f58a14610483576101f9565b80633db42de71461036c57806342e3cf1e1461039557806358e7a599146103c057806361bc221a146103eb576101f9565b80632d033284116101c15780632d033284146102b95780632e2dc43e146102e45780633a19825d1461030f5780633cfdf80214610350576101f9565b80630709dec8146101fb57806314b4a4f9146102265780631dbe22be146102635780631f21580d1461028e576101f9565b366101f957005b005b34801561020757600080fd5b50610210610780565b60405161021d9190612dad565b60405180910390f35b34801561023257600080fd5b5061024d60048036038101906102489190612e30565b61079f565b60405161025a9190612e78565b60405180910390f35b34801561026f57600080fd5b506102786107f8565b6040516102859190613079565b60405180910390f35b34801561029a57600080fd5b506102a3610922565b6040516102b09190612dad565b60405180910390f35b3480156102c557600080fd5b506102ce6109c3565b6040516102db9190612dad565b60405180910390f35b3480156102f057600080fd5b506102f96109c9565b60405161030691906131f5565b60405180910390f35b34801561031b57600080fd5b5061033660048036038101906103319190613243565b610b49565b6040516103479594939291906132c9565b60405180910390f35b61036a60048036038101906103659190613396565b610d47565b005b34801561037857600080fd5b50610393600480360381019061038e9190613243565b610fdc565b005b3480156103a157600080fd5b506103aa611091565b6040516103b79190612dad565b60405180910390f35b3480156103cc57600080fd5b506103d56110d8565b6040516103e2919061345a565b60405180910390f35b3480156103f757600080fd5b506104006110eb565b60405161040d9190612dad565b60405180910390f35b34801561042257600080fd5b5061042b6110f1565b6040516104389190612e78565b60405180910390f35b34801561044d57600080fd5b50610456611148565b005b34801561046457600080fd5b5061046d61115c565b60405161047a9190612dad565b60405180910390f35b34801561048f57600080fd5b50610498611162565b6040516104a59190612dad565b60405180910390f35b3480156104ba57600080fd5b506104c3611168565b6040516104d09190613475565b60405180910390f35b3480156104e557600080fd5b506104ee611191565b6040516104fb9190613514565b60405180910390f35b34801561051057600080fd5b50610519611458565b6040516105269190613595565b60405180910390f35b34801561053b57600080fd5b50610556600480360381019061055191906135b0565b61147c565b005b34801561056457600080fd5b5061057f600480360381019061057a9190612e30565b6114b2565b6040516105909594939291906135f0565b60405180910390f35b3480156105a557600080fd5b506105c060048036038101906105bb9190613243565b611612565b005b3480156105ce57600080fd5b506105e960048036038101906105e49190613243565b611624565b6040516105fb96959493929190613651565b60405180910390f35b34801561061057600080fd5b50610619611725565b005b34801561062757600080fd5b5061063061185c565b60405161063d9190612dad565b60405180910390f35b34801561065257600080fd5b5061065b6118fd565b005b34801561066957600080fd5b50610672611982565b60405161067f91906137ff565b60405180910390f35b34801561069457600080fd5b506106af60048036038101906106aa9190613821565b611bf7565b005b3480156106bd57600080fd5b506106d860048036038101906106d391906138a6565b611ebf565b005b3480156106e657600080fd5b5061070160048036038101906106fc9190612e30565b611ef4565b005b34801561070f57600080fd5b5061072a600480360381019061072591906135b0565b611f77565b005b34801561073857600080fd5b5061074161240a565b60405161074e9190612dad565b60405180910390f35b34801561076357600080fd5b5061077e600480360381019061077991906138d3565b612410565b005b60003373ffffffffffffffffffffffffffffffffffffffff1631905090565b6000600c60008373ffffffffffffffffffffffffffffffffffffffff1673ffffffffffffffffffffffffffffffffffffffff16815260200190815260200160002060030160019054906101000a900460ff169050919050565b60606009805480602002602001604051908101604052809291908181526020016000905b8282101561091957838290600052602060002090600502016040518060a00160405290816000820154815260200160018201548152602001600282018054610863906139b6565b80601f016020809104026020016040519081016040528092919081815260200182805461088f906139b6565b80156108dc5780601f106108b1576101008083540402835291602001916108dc565b820191906000526020600020905b8154815290600101906020018083116108bf57829003601f168201915b50505050508152602001600382015481526020016004820160009054906101000a900460ff1615151515815250508152602001906001019061081c565b50505050905090565b60007f000000000000000000000000000000000000000000000000000000000000000073ffffffffffffffffffffffffffffffffffffffff166370a08231336040518263ffffffff1660e01b815260040161097d9190613475565b602060405180830381865afa15801561099a573d6000803e3d6000fd5b505050506040513d601f19601f820116820180604052508101906109be91906139fc565b905090565b60055481565b6060600b805480602002602001604051908101604052809291908181526020016000905b82821015610b4057838290600052602060002090600602016040518060c00160405290816000820160009054906101000a900473ffffffffffffffffffffffffffffffffffffffff1673ffffffffffffffffffffffffffffffffffffffff1673ffffffffffffffffffffffffffffffffffffffff16815260200160018201548152602001600282018054610a80906139b6565b80601f0160208091040260200160405190810160405280929190818152602001828054610aac906139b6565b8015610af95780601f10610ace57610100808354040283529160200191610af9565b820191906000526020600020905b815481529060010190602001808311610adc57829003601f168201915b5050505050815260200160038201548152602001600482015481526020016005820160009054906101000a900460ff161515151581525050815260200190600101906109ed565b50505050905090565b600a8181548110610b5957600080fd5b90600052602060002090600502016000915090508060000160009054906101000a900473ffffffffffffffffffffffffffffffffffffffff1690806001018054610ba2906139b6565b80601f0160208091040260200160405190810160405280929190818152602001828054610bce906139b6565b8015610c1b5780601f10610bf057610100808354040283529160200191610c1b565b820191906000526020600020905b815481529060010190602001808311610bfe57829003601f168201915b505050505090806002018054610c30906139b6565b80601f0160208091040260200160405190810160405280929190818152602001828054610c5c906139b6565b8015610ca95780601f10610c7e57610100808354040283529160200191610ca9565b820191906000526020600020905b815481529060010190602001808311610c8c57829003601f168201915b505050505090806003018054610cbe906139b6565b80601f0160208091040260200160405190810160405280929190818152602001828054610cea906139b6565b8015610d375780601f10610d0c57610100808354040283529160200191610d37565b820191906000526020600020905b815481529060010190602001808311610d1a57829003601f168201915b5050505050908060040154905085565b610d4f612908565b60011515600c60003373ffffffffffffffffffffffffffffffffffffffff1673ffffffffffffffffffffffffffffffffffffffff16815260200190815260200160002060030160019054906101000a900460ff16151514610de5576040517f08c379a0000000000000000000000000000000000000000000000000000000008152600401610ddc90613a75565b60405180910390fd5b6005543414610e29576040517f08c379a0000000000000000000000000000000000000000000000000000000008152600401610e2090613ae1565b60405180910390fd5b610e31612cd0565b600354816000018181525050600081602001818152505082828080601f016020809104026020016040519081016040528093929190818152602001838380828437600081840152601f19601f8201169050808301925050505050505081604001819052506000816080019015159081151581525050600981908060018154018082558091505060019003906000526020600020906005020160009091909190915060008201518160000155602082015181600101556040820151816002019081610efb9190613cd2565b506060820151816003015560808201518160040160006101000a81548160ff021916908315150217905550505034600d60003373ffffffffffffffffffffffffffffffffffffffff1673ffffffffffffffffffffffffffffffffffffffff1681526020019081526020016000206000828254610f779190613dd3565b92505081905550600360008154610f8d90613e07565b919050819055507f79b4967f952c2e2a563ed6ece6722a54e83844ba5ab08f9f5cdaaf27560125de338484604051610fc793929190613e8b565b60405180910390a150610fd8612957565b5050565b7f000000000000000000000000000000000000000000000000000000000000000073ffffffffffffffffffffffffffffffffffffffff1663095ea7b333670de0b6b3a76400008461102d9190613ebd565b6040518363ffffffff1660e01b815260040161104a929190613eff565b6020604051808303816000875af1158015611069573d6000803e3d6000fd5b505050506040513d601f19601f8201168201806040525081019061108d9190613f54565b5050565b6000600d60003373ffffffffffffffffffffffffffffffffffffffff1673ffffffffffffffffffffffffffffffffffffffff16815260200190815260200160002054905090565b600260009054906101000a900460ff1681565b60035481565b6000600c60003373ffffffffffffffffffffffffffffffffffffffff1673ffffffffffffffffffffffffffffffffffffffff16815260200190815260200160002060030160009054906101000a900460ff16905090565b611150612960565b61115a60006129de565b565b60065481565b60045481565b60008060009054906101000a900473ffffffffffffffffffffffffffffffffffffffff16905090565b611199612d01565b6003808111156111ac576111ab6133e3565b5b600260009054906101000a900460ff1660038111156111ce576111cd6133e3565b5b1461120e576040517f08c379a000000000000000000000000000000000000000000000000000000000815260040161120590613fcd565b60405180910390fd5b600a6007548154811061122457611223613fed565b5b90600052602060002090600502016040518060a00160405290816000820160009054906101000a900473ffffffffffffffffffffffffffffffffffffffff1673ffffffffffffffffffffffffffffffffffffffff1673ffffffffffffffffffffffffffffffffffffffff1681526020016001820180546112a3906139b6565b80601f01602080910402602001604051908101604052809291908181526020018280546112cf906139b6565b801561131c5780601f106112f15761010080835404028352916020019161131c565b820191906000526020600020905b8154815290600101906020018083116112ff57829003601f168201915b50505050508152602001600282018054611335906139b6565b80601f0160208091040260200160405190810160405280929190818152602001828054611361906139b6565b80156113ae5780601f10611383576101008083540402835291602001916113ae565b820191906000526020600020905b81548152906001019060200180831161139157829003601f168201915b505050505081526020016003820180546113c7906139b6565b80601f01602080910402602001604051908101604052809291908181526020018280546113f3906139b6565b80156114405780601f1061141557610100808354040283529160200191611440565b820191906000526020600020905b81548152906001019060200180831161142357829003601f168201915b50505050508152602001600482015481525050905090565b7f000000000000000000000000000000000000000000000000000000000000000081565b611484612960565b806009838154811061149957611498613fed565b5b9060005260206000209060050201600101819055505050565b600c6020528060005260406000206000915090508060000180546114d5906139b6565b80601f0160208091040260200160405190810160405280929190818152602001828054611501906139b6565b801561154e5780601f106115235761010080835404028352916020019161154e565b820191906000526020600020905b81548152906001019060200180831161153157829003601f168201915b505050505090806001018054611563906139b6565b80601f016020809104026020016040519081016040528092919081815260200182805461158f906139b6565b80156115dc5780601f106115b1576101008083540402835291602001916115dc565b820191906000526020600020905b8154815290600101906020018083116115bf57829003601f168201915b5050505050908060020154908060030160009054906101000a900460ff16908060030160019054906101000a900460ff16905085565b61161a612960565b8060088190555050565b600b818154811061163457600080fd5b90600052602060002090600602016000915090508060000160009054906101000a900473ffffffffffffffffffffffffffffffffffffffff1690806001015490806002018054611683906139b6565b80601f01602080910402602001604051908101604052809291908181526020018280546116af906139b6565b80156116fc5780601f106116d1576101008083540402835291602001916116fc565b820191906000526020600020905b8154815290600101906020018083116116df57829003601f168201915b5050505050908060030154908060040154908060050160009054906101000a900460ff16905086565b61172d612960565b60066000815461173c90613e07565b9190508190555060028060006101000a81548160ff02191690836003811115611768576117676133e3565b5b021790555060005b600a80549050811015611859576000600a828154811061179357611792613fed565b5b9060005260206000209060050201600401819055506000600c6000600a84815481106117c2576117c1613fed565b5b906000526020600020906005020160000160009054906101000a900473ffffffffffffffffffffffffffffffffffffffff1673ffffffffffffffffffffffffffffffffffffffff1673ffffffffffffffffffffffffffffffffffffffff16815260200190815260200160002060030160006101000a81548160ff0219169083151502179055508061185290613e07565b9050611770565b50565b60007f000000000000000000000000000000000000000000000000000000000000000073ffffffffffffffffffffffffffffffffffffffff166370a08231306040518263ffffffff1660e01b81526004016118b79190613475565b602060405180830381865afa1580156118d4573d6000803e3d6000fd5b505050506040513d601f19601f820116820180604052508101906118f891906139fc565b905090565b611905612960565b6003600260006101000a81548160ff0219169083600381111561192b5761192a6133e3565b5b0217905550611980600a6007548154811061194957611948613fed565b5b906000526020600020906005020160000160009054906101000a900473ffffffffffffffffffffffffffffffffffffffff16612aa2565b565b6060600a805480602002602001604051908101604052809291908181526020016000905b82821015611bee57838290600052602060002090600502016040518060a00160405290816000820160009054906101000a900473ffffffffffffffffffffffffffffffffffffffff1673ffffffffffffffffffffffffffffffffffffffff1673ffffffffffffffffffffffffffffffffffffffff168152602001600182018054611a2f906139b6565b80601f0160208091040260200160405190810160405280929190818152602001828054611a5b906139b6565b8015611aa85780601f10611a7d57610100808354040283529160200191611aa8565b820191906000526020600020905b815481529060010190602001808311611a8b57829003601f168201915b50505050508152602001600282018054611ac1906139b6565b80601f0160208091040260200160405190810160405280929190818152602001828054611aed906139b6565b8015611b3a5780601f10611b0f57610100808354040283529160200191611b3a565b820191906000526020600020905b815481529060010190602001808311611b1d57829003601f168201915b50505050508152602001600382018054611b53906139b6565b80601f0160208091040260200160405190810160405280929190818152602001828054611b7f906139b6565b8015611bcc5780601f10611ba157610100808354040283529160200191611bcc565b820191906000526020600020905b815481529060010190602001808311611baf57829003601f168201915b50505050508152602001600482015481525050815260200190600101906119a6565b50505050905090565b60026003811115611c0b57611c0a6133e3565b5b600260009054906101000a900460ff166003811115611c2d57611c2c6133e3565b5b14611c6d576040517f08c379a0000000000000000000000000000000000000000000000000000000008152600401611c649061408e565b60405180910390fd5b600c60003373ffffffffffffffffffffffffffffffffffffffff1673ffffffffffffffffffffffffffffffffffffffff16815260200190815260200160002060030160009054906101000a900460ff1615611cfd576040517f08c379a0000000000000000000000000000000000000000000000000000000008152600401611cf4906140fa565b60405180910390fd5b600a805490508310611d44576040517f08c379a0000000000000000000000000000000000000000000000000000000008152600401611d3b90614166565b60405180910390fd5b6001600c60003373ffffffffffffffffffffffffffffffffffffffff1673ffffffffffffffffffffffffffffffffffffffff16815260200190815260200160002060030160006101000a81548160ff021916908315150217905550600a8381548110611db357611db2613fed565b5b90600052602060002090600502016004016000815480929190611dd590613e07565b9190505550600a60075481548110611df057611def613fed565b5b906000526020600020906005020160040154600a8481548110611e1657611e15613fed565b5b9060005260206000209060050201600401541115611e3657826007819055505b7f9a4b1974a303b6b8937c2f2186a95dc8466a1b5f12f3908d04c7e4afc0079bd9600654600a8581548110611e6e57611e6d613fed565b5b906000526020600020906005020160000160009054906101000a900473ffffffffffffffffffffffffffffffffffffffff168484604051611eb29493929190614186565b60405180910390a1505050565b611ec7612960565b80600260006101000a81548160ff02191690836003811115611eec57611eeb6133e3565b5b021790555050565b611efc612960565b600073ffffffffffffffffffffffffffffffffffffffff168173ffffffffffffffffffffffffffffffffffffffff1603611f6b576040517f08c379a0000000000000000000000000000000000000000000000000000000008152600401611f6290614238565b60405180910390fd5b611f74816129de565b50565b60008111611fba576040517f08c379a0000000000000000000000000000000000000000000000000000000008152600401611fb1906142a4565b60405180910390fd5b807f000000000000000000000000000000000000000000000000000000000000000073ffffffffffffffffffffffffffffffffffffffff166370a08231336040518263ffffffff1660e01b81526004016120149190613475565b602060405180830381865afa158015612031573d6000803e3d6000fd5b505050506040513d601f19601f8201168201806040525081019061205591906139fc565b1015612096576040517f08c379a000000000000000000000000000000000000000000000000000000000815260040161208d90614336565b60405180910390fd5b80600983815481106120ab576120aa613fed565b5b906000526020600020906005020160010154146120fd576040517f08c379a00000000000000000000000000000000000000000000000000000000081526004016120f4906143a2565b60405180910390fd5b7f000000000000000000000000000000000000000000000000000000000000000073ffffffffffffffffffffffffffffffffffffffff166323b872dd3330846040518463ffffffff1660e01b815260040161215a939291906143c2565b6020604051808303816000875af1158015612179573d6000803e3d6000fd5b505050506040513d601f19601f8201168201806040525081019061219d9190613f54565b6121dc576040517f08c379a00000000000000000000000000000000000000000000000000000000081526004016121d390614445565b60405180910390fd5b6121e4612d46565b33816000019073ffffffffffffffffffffffffffffffffffffffff16908173ffffffffffffffffffffffffffffffffffffffff1681525050828160200181815250506009838154811061223a57612239613fed565b5b90600052602060002090600502016002018054612256906139b6565b80601f0160208091040260200160405190810160405280929190818152602001828054612282906139b6565b80156122cf5780601f106122a4576101008083540402835291602001916122cf565b820191906000526020600020905b8154815290600101906020018083116122b257829003601f168201915b50505050508160400181905250428160600181815250508181608001818152505060008160a0019015159081151581525050600b81908060018154018082558091505060019003906000526020600020906006020160009091909190915060008201518160000160006101000a81548173ffffffffffffffffffffffffffffffffffffffff021916908373ffffffffffffffffffffffffffffffffffffffff1602179055506020820151816001015560408201518160020190816123939190613cd2565b50606082015181600301556080820151816004015560a08201518160050160006101000a81548160ff02191690831515021790555050507ff6f342132c7de5e5a1e99c8efae544c94731f3ff093f5c3c97c6973d9415cdfb3383856040516123fd93929190614465565b60405180910390a1505050565b60085481565b600073ffffffffffffffffffffffffffffffffffffffff163373ffffffffffffffffffffffffffffffffffffffff160361247f576040517f08c379a0000000000000000000000000000000000000000000000000000000008152600401612476906144e8565b60405180910390fd5b600c60003373ffffffffffffffffffffffffffffffffffffffff1673ffffffffffffffffffffffffffffffffffffffff16815260200190815260200160002060030160019054906101000a900460ff161561250f576040517f08c379a000000000000000000000000000000000000000000000000000000000815260040161250690614554565b60405180910390fd5b6000868690501180156125255750600084849050115b80156125345750600082829050115b612573576040517f08c379a000000000000000000000000000000000000000000000000000000000815260040161256a906145c0565b60405180910390fd5b8585600c60003373ffffffffffffffffffffffffffffffffffffffff1673ffffffffffffffffffffffffffffffffffffffff16815260200190815260200160002060000191826125c49291906145eb565b508383600c60003373ffffffffffffffffffffffffffffffffffffffff1673ffffffffffffffffffffffffffffffffffffffff16815260200190815260200160002060010191826126169291906145eb565b506000600c60003373ffffffffffffffffffffffffffffffffffffffff1673ffffffffffffffffffffffffffffffffffffffff16815260200190815260200160002060030160006101000a81548160ff0219169083151502179055506001600c60003373ffffffffffffffffffffffffffffffffffffffff1673ffffffffffffffffffffffffffffffffffffffff16815260200190815260200160002060030160016101000a81548160ff0219169083151502179055506126d5612d01565b33816000019073ffffffffffffffffffffffffffffffffffffffff16908173ffffffffffffffffffffffffffffffffffffffff168152505086868080601f016020809104026020016040519081016040528093929190818152602001838380828437600081840152601f19601f82011690508083019250505050505050816020018190525084848080601f016020809104026020016040519081016040528093929190818152602001838380828437600081840152601f19601f82011690508083019250505050505050816040018190525082828080601f016020809104026020016040519081016040528093929190818152602001838380828437600081840152601f19601f8201169050808301925050505050505081606001819052506000816080018181525050600a81908060018154018082558091505060019003906000526020600020906005020160009091909190915060008201518160000160006101000a81548173ffffffffffffffffffffffffffffffffffffffff021916908373ffffffffffffffffffffffffffffffffffffffff16021790555060208201518160010190816128879190613cd2565b50604082015181600201908161289d9190613cd2565b5060608201518160030190816128b39190613cd2565b506080820151816004015550507fdb662c8b79ccb9909891c358aec9651e782d0ad9523566bd659c084b5fefcec733888888886040516128f79594939291906146bb565b60405180910390a150505050505050565b60026001540361294d576040517f08c379a000000000000000000000000000000000000000000000000000000000815260040161294490614750565b60405180910390fd5b6002600181905550565b60018081905550565b612968612cc8565b73ffffffffffffffffffffffffffffffffffffffff16612986611168565b73ffffffffffffffffffffffffffffffffffffffff16146129dc576040517f08c379a00000000000000000000000000000000000000000000000000000000081526004016129d3906147bc565b60405180910390fd5b565b60008060009054906101000a900473ffffffffffffffffffffffffffffffffffffffff169050816000806101000a81548173ffffffffffffffffffffffffffffffffffffffff021916908373ffffffffffffffffffffffffffffffffffffffff1602179055508173ffffffffffffffffffffffffffffffffffffffff168173ffffffffffffffffffffffffffffffffffffffff167f8be0079c531659141344cd1fd0a4f28419497f9722a3daafe3b4186f6b6457e060405160405180910390a35050565b612aaa612908565b600073ffffffffffffffffffffffffffffffffffffffff168173ffffffffffffffffffffffffffffffffffffffff1603612b19576040517f08c379a0000000000000000000000000000000000000000000000000000000008152600401612b1090614828565b60405180910390fd5b8073ffffffffffffffffffffffffffffffffffffffff16600a60075481548110612b4657612b45613fed565b5b906000526020600020906005020160000160009054906101000a900473ffffffffffffffffffffffffffffffffffffffff1673ffffffffffffffffffffffffffffffffffffffff1614612bce576040517f08c379a0000000000000000000000000000000000000000000000000000000008152600401612bc5906148ba565b60405180910390fd5b7f000000000000000000000000000000000000000000000000000000000000000073ffffffffffffffffffffffffffffffffffffffff1663a9059cbb82670de0b6b3a7640000600854612c219190613ebd565b6040518363ffffffff1660e01b8152600401612c3e929190613eff565b6020604051808303816000875af1158015612c5d573d6000803e3d6000fd5b505050506040513d601f19601f82011682018060405250810190612c819190613f54565b507f2e06e81581e774f145d32b1feac204fb2683499d425091cb4fcfc137726008c281600854604051612cb5929190613eff565b60405180910390a1612cc5612957565b50565b600033905090565b6040518060a00160405280600081526020016000815260200160608152602001600081526020016000151581525090565b6040518060a00160405280600073ffffffffffffffffffffffffffffffffffffffff168152602001606081526020016060815260200160608152602001600081525090565b6040518060c00160405280600073ffffffffffffffffffffffffffffffffffffffff168152602001600081526020016060815260200160008152602001600081526020016000151581525090565b6000819050919050565b612da781612d94565b82525050565b6000602082019050612dc26000830184612d9e565b92915050565b600080fd5b600080fd5b600073ffffffffffffffffffffffffffffffffffffffff82169050919050565b6000612dfd82612dd2565b9050919050565b612e0d81612df2565b8114612e1857600080fd5b50565b600081359050612e2a81612e04565b92915050565b600060208284031215612e4657612e45612dc8565b5b6000612e5484828501612e1b565b91505092915050565b60008115159050919050565b612e7281612e5d565b82525050565b6000602082019050612e8d6000830184612e69565b92915050565b600081519050919050565b600082825260208201905092915050565b6000819050602082019050919050565b612ec881612d94565b82525050565b600081519050919050565b600082825260208201905092915050565b60005b83811015612f08578082015181840152602081019050612eed565b60008484015250505050565b6000601f19601f8301169050919050565b6000612f3082612ece565b612f3a8185612ed9565b9350612f4a818560208601612eea565b612f5381612f14565b840191505092915050565b612f6781612e5d565b82525050565b600060a083016000830151612f856000860182612ebf565b506020830151612f986020860182612ebf565b5060408301518482036040860152612fb08282612f25565b9150506060830151612fc56060860182612ebf565b506080830151612fd86080860182612f5e565b508091505092915050565b6000612fef8383612f6d565b905092915050565b6000602082019050919050565b600061300f82612e93565b6130198185612e9e565b93508360208202850161302b85612eaf565b8060005b8581101561306757848403895281516130488582612fe3565b945061305383612ff7565b925060208a0199505060018101905061302f565b50829750879550505050505092915050565b600060208201905081810360008301526130938184613004565b905092915050565b600081519050919050565b600082825260208201905092915050565b6000819050602082019050919050565b6130d081612df2565b82525050565b600060c0830160008301516130ee60008601826130c7565b5060208301516131016020860182612ebf565b50604083015184820360408601526131198282612f25565b915050606083015161312e6060860182612ebf565b5060808301516131416080860182612ebf565b5060a083015161315460a0860182612f5e565b508091505092915050565b600061316b83836130d6565b905092915050565b6000602082019050919050565b600061318b8261309b565b61319581856130a6565b9350836020820285016131a7856130b7565b8060005b858110156131e357848403895281516131c4858261315f565b94506131cf83613173565b925060208a019950506001810190506131ab565b50829750879550505050505092915050565b6000602082019050818103600083015261320f8184613180565b905092915050565b61322081612d94565b811461322b57600080fd5b50565b60008135905061323d81613217565b92915050565b60006020828403121561325957613258612dc8565b5b60006132678482850161322e565b91505092915050565b61327981612df2565b82525050565b600082825260208201905092915050565b600061329b82612ece565b6132a5818561327f565b93506132b5818560208601612eea565b6132be81612f14565b840191505092915050565b600060a0820190506132de6000830188613270565b81810360208301526132f08187613290565b905081810360408301526133048186613290565b905081810360608301526133188185613290565b90506133276080830184612d9e565b9695505050505050565b600080fd5b600080fd5b600080fd5b60008083601f84011261335657613355613331565b5b8235905067ffffffffffffffff81111561337357613372613336565b5b60208301915083600182028301111561338f5761338e61333b565b5b9250929050565b600080602083850312156133ad576133ac612dc8565b5b600083013567ffffffffffffffff8111156133cb576133ca612dcd565b5b6133d785828601613340565b92509250509250929050565b7f4e487b7100000000000000000000000000000000000000000000000000000000600052602160045260246000fd5b60048110613423576134226133e3565b5b50565b600081905061343482613412565b919050565b600061344482613426565b9050919050565b61345481613439565b82525050565b600060208201905061346f600083018461344b565b92915050565b600060208201905061348a6000830184613270565b92915050565b600060a0830160008301516134a860008601826130c7565b50602083015184820360208601526134c08282612f25565b915050604083015184820360408601526134da8282612f25565b915050606083015184820360608601526134f48282612f25565b91505060808301516135096080860182612ebf565b508091505092915050565b6000602082019050818103600083015261352e8184613490565b905092915050565b6000819050919050565b600061355b61355661355184612dd2565b613536565b612dd2565b9050919050565b600061356d82613540565b9050919050565b600061357f82613562565b9050919050565b61358f81613574565b82525050565b60006020820190506135aa6000830184613586565b92915050565b600080604083850312156135c7576135c6612dc8565b5b60006135d58582860161322e565b92505060206135e68582860161322e565b9150509250929050565b600060a082019050818103600083015261360a8188613290565b9050818103602083015261361e8187613290565b905061362d6040830186612d9e565b61363a6060830185612e69565b6136476080830184612e69565b9695505050505050565b600060c0820190506136666000830189613270565b6136736020830188612d9e565b81810360408301526136858187613290565b90506136946060830186612d9e565b6136a16080830185612d9e565b6136ae60a0830184612e69565b979650505050505050565b600081519050919050565b600082825260208201905092915050565b6000819050602082019050919050565b600060a0830160008301516136fd60008601826130c7565b50602083015184820360208601526137158282612f25565b9150506040830151848203604086015261372f8282612f25565b915050606083015184820360608601526137498282612f25565b915050608083015161375e6080860182612ebf565b508091505092915050565b600061377583836136e5565b905092915050565b6000602082019050919050565b6000613795826136b9565b61379f81856136c4565b9350836020820285016137b1856136d5565b8060005b858110156137ed57848403895281516137ce8582613769565b94506137d98361377d565b925060208a019950506001810190506137b5565b50829750879550505050505092915050565b60006020820190508181036000830152613819818461378a565b905092915050565b60008060006040848603121561383a57613839612dc8565b5b60006138488682870161322e565b935050602084013567ffffffffffffffff81111561386957613868612dcd565b5b61387586828701613340565b92509250509250925092565b6004811061388e57600080fd5b50565b6000813590506138a081613881565b92915050565b6000602082840312156138bc576138bb612dc8565b5b60006138ca84828501613891565b91505092915050565b600080600080600080606087890312156138f0576138ef612dc8565b5b600087013567ffffffffffffffff81111561390e5761390d612dcd565b5b61391a89828a01613340565b9650965050602087013567ffffffffffffffff81111561393d5761393c612dcd565b5b61394989828a01613340565b9450945050604087013567ffffffffffffffff81111561396c5761396b612dcd565b5b61397889828a01613340565b92509250509295509295509295565b7f4e487b7100000000000000000000000000000000000000000000000000000000600052602260045260246000fd5b600060028204905060018216806139ce57607f821691505b6020821081036139e1576139e0613987565b5b50919050565b6000815190506139f681613217565b92915050565b600060208284031215613a1257613a11612dc8565b5b6000613a20848285016139e7565b91505092915050565b7f55736572206e6f74207265636f72646564000000000000000000000000000000600082015250565b6000613a5f60118361327f565b9150613a6a82613a29565b602082019050919050565b60006020820190508181036000830152613a8e81613a52565b9050919050565b7f496e636f727265637420616d6f756e7400000000000000000000000000000000600082015250565b6000613acb60108361327f565b9150613ad682613a95565b602082019050919050565b60006020820190508181036000830152613afa81613abe565b9050919050565b7f4e487b7100000000000000000000000000000000000000000000000000000000600052604160045260246000fd5b60008190508160005260206000209050919050565b60006020601f8301049050919050565b600082821b905092915050565b600060088302613b927fffffffffffffffffffffffffffffffffffffffffffffffffffffffffffffffff82613b55565b613b9c8683613b55565b95508019841693508086168417925050509392505050565b6000613bcf613bca613bc584612d94565b613536565b612d94565b9050919050565b6000819050919050565b613be983613bb4565b613bfd613bf582613bd6565b848454613b62565b825550505050565b600090565b613c12613c05565b613c1d818484613be0565b505050565b5b81811015613c4157613c36600082613c0a565b600181019050613c23565b5050565b601f821115613c8657613c5781613b30565b613c6084613b45565b81016020851015613c6f578190505b613c83613c7b85613b45565b830182613c22565b50505b505050565b600082821c905092915050565b6000613ca960001984600802613c8b565b1980831691505092915050565b6000613cc28383613c98565b9150826002028217905092915050565b613cdb82612ece565b67ffffffffffffffff811115613cf457613cf3613b01565b5b613cfe82546139b6565b613d09828285613c45565b600060209050601f831160018114613d3c5760008415613d2a578287015190505b613d348582613cb6565b865550613d9c565b601f198416613d4a86613b30565b60005b82811015613d7257848901518255600182019150602085019450602081019050613d4d565b86831015613d8f5784890151613d8b601f891682613c98565b8355505b6001600288020188555050505b505050505050565b7f4e487b7100000000000000000000000000000000000000000000000000000000600052601160045260246000fd5b6000613dde82612d94565b9150613de983612d94565b9250828201905080821115613e0157613e00613da4565b5b92915050565b6000613e1282612d94565b91507fffffffffffffffffffffffffffffffffffffffffffffffffffffffffffffffff8203613e4457613e43613da4565b5b600182019050919050565b82818337600083830152505050565b6000613e6a838561327f565b9350613e77838584613e4f565b613e8083612f14565b840190509392505050565b6000604082019050613ea06000830186613270565b8181036020830152613eb3818486613e5e565b9050949350505050565b6000613ec882612d94565b9150613ed383612d94565b9250828202613ee181612d94565b91508282048414831517613ef857613ef7613da4565b5b5092915050565b6000604082019050613f146000830185613270565b613f216020830184612d9e565b9392505050565b613f3181612e5d565b8114613f3c57600080fd5b50565b600081519050613f4e81613f28565b92915050565b600060208284031215613f6a57613f69612dc8565b5b6000613f7884828501613f3f565b91505092915050565b7f53657373696f6e20566f7465206e6f7420636c6f736564000000000000000000600082015250565b6000613fb760178361327f565b9150613fc282613f81565b602082019050919050565b60006020820190508181036000830152613fe681613faa565b9050919050565b7f4e487b7100000000000000000000000000000000000000000000000000000000600052603260045260246000fd5b7f566f74696e672073657373696f6e20686176656e74207374617274656420796560008201527f7400000000000000000000000000000000000000000000000000000000000000602082015250565b600061407860218361327f565b91506140838261401c565b604082019050919050565b600060208201905081810360008301526140a78161406b565b9050919050565b7f596f75206861766520616c726561647920766f74656400000000000000000000600082015250565b60006140e460168361327f565b91506140ef826140ae565b602082019050919050565b60006020820190508181036000830152614113816140d7565b9050919050565b7f50726f706f73616c206e6f7420666f756e640000000000000000000000000000600082015250565b600061415060128361327f565b915061415b8261411a565b602082019050919050565b6000602082019050818103600083015261417f81614143565b9050919050565b600060608201905061419b6000830187612d9e565b6141a86020830186613270565b81810360408301526141bb818486613e5e565b905095945050505050565b7f4f776e61626c653a206e6577206f776e657220697320746865207a65726f206160008201527f6464726573730000000000000000000000000000000000000000000000000000602082015250565b600061422260268361327f565b915061422d826141c6565b604082019050919050565b6000602082019050818103600083015261425181614215565b9050919050565b7f4e6f7420636f7272656374207072696365000000000000000000000000000000600082015250565b600061428e60118361327f565b915061429982614258565b602082019050919050565b600060208201905081810360008301526142bd81614281565b9050919050565b7f4e6f7420656e6f756768742066756e647320746f20627579207468697320707260008201527f6976696c65676500000000000000000000000000000000000000000000000000602082015250565b600061432060278361327f565b915061432b826142c4565b604082019050919050565b6000602082019050818103600083015261434f81614313565b9050919050565b7f5065746974206d616c696e207661202e2e2e0000000000000000000000000000600082015250565b600061438c60128361327f565b915061439782614356565b602082019050919050565b600060208201905081810360008301526143bb8161437f565b9050919050565b60006060820190506143d76000830186613270565b6143e46020830185613270565b6143f16040830184612d9e565b949350505050565b7f5472616e73666572206572726575720000000000000000000000000000000000600082015250565b600061442f600f8361327f565b915061443a826143f9565b602082019050919050565b6000602082019050818103600083015261445e81614422565b9050919050565b600060608201905061447a6000830186613270565b6144876020830185612d9e565b6144946040830184612d9e565b949350505050565b7f6e6f7420636f6e6e656374656400000000000000000000000000000000000000600082015250565b60006144d2600d8361327f565b91506144dd8261449c565b602082019050919050565b60006020820190508181036000830152614501816144c5565b9050919050565b7f4163636f756e7420616c72656164792045786973740000000000000000000000600082015250565b600061453e60158361327f565b915061454982614508565b602082019050919050565b6000602082019050818103600083015261456d81614531565b9050919050565b7f56616c7565206e6f7420656d7074790000000000000000000000000000000000600082015250565b60006145aa600f8361327f565b91506145b582614574565b602082019050919050565b600060208201905081810360008301526145d98161459d565b9050919050565b600082905092915050565b6145f583836145e0565b67ffffffffffffffff81111561460e5761460d613b01565b5b61461882546139b6565b614623828285613c45565b6000601f8311600181146146525760008415614640578287013590505b61464a8582613cb6565b8655506146b2565b601f19841661466086613b30565b60005b8281101561468857848901358255600182019150602085019450602081019050614663565b868310156146a557848901356146a1601f891682613c98565b8355505b6001600288020188555050505b50505050505050565b60006060820190506146d06000830188613270565b81810360208301526146e3818688613e5e565b905081810360408301526146f8818486613e5e565b90509695505050505050565b7f5265656e7472616e637947756172643a207265656e7472616e742063616c6c00600082015250565b600061473a601f8361327f565b915061474582614704565b602082019050919050565b600060208201905081810360008301526147698161472d565b9050919050565b7f4f776e61626c653a2063616c6c6572206973206e6f7420746865206f776e6572600082015250565b60006147a660208361327f565b91506147b182614770565b602082019050919050565b600060208201905081810360008301526147d581614799565b9050919050565b7f6e6f742076616c6964206163636f756e74000000000000000000000000000000600082015250565b600061481260118361327f565b915061481d826147dc565b602082019050919050565b6000602082019050818103600083015261484181614805565b9050919050565b7f596f7520617265206e6f74207468652057696e6e65722053657373696f6e207660008201527f6f74650000000000000000000000000000000000000000000000000000000000602082015250565b60006148a460238361327f565b91506148af82614848565b604082019050919050565b600060208201905081810360008301526148d381614897565b905091905056fea26469706673582212201abb433635f68c1522304970421328dbeb5a2a8c5f4d0980e83322d2b9b2233c64736f6c63430008130033",
  "linkReferences": {},
  "deployedLinkReferences": {}
}