{
  "_format": "hh-sol-artifact-1",
  "contractName": "Arpa3",
  "sourceName": "contracts/Arpa3.sol",
  "abi": [
    {
      "anonymous": false,
      "inputs": [
        {
          "indexed": true,
          "internalType": "address",
          "name": "previousOwner",
          "type": "address"
        },
        {
          "indexed": true,
          "internalType": "address",
          "name": "newOwner",
          "type": "address"
        }
      ],
      "name": "OwnershipTransferred",
      "type": "event"
    },
    {
      "inputs": [
        {
          "internalType": "string",
          "name": "_description",
          "type": "string"
        }
      ],
      "name": "addPrivilege",
      "outputs": [],
      "stateMutability": "nonpayable",
      "type": "function"
    },
    {
      "inputs": [],
      "name": "counter",
      "outputs": [
        {
          "internalType": "uint256",
          "name": "",
          "type": "uint256"
        }
      ],
      "stateMutability": "view",
      "type": "function"
    },
    {
      "inputs": [
        {
          "internalType": "address",
          "name": "_address",
          "type": "address"
        }
      ],
      "name": "isAccountExist",
      "outputs": [
        {
          "internalType": "bool",
          "name": "",
          "type": "bool"
        }
      ],
      "stateMutability": "view",
      "type": "function"
    },
    {
      "inputs": [],
      "name": "number",
      "outputs": [
        {
          "internalType": "uint256",
          "name": "",
          "type": "uint256"
        }
      ],
      "stateMutability": "view",
      "type": "function"
    },
    {
      "inputs": [],
      "name": "owner",
      "outputs": [
        {
          "internalType": "address",
          "name": "",
          "type": "address"
        }
      ],
      "stateMutability": "view",
      "type": "function"
    },
    {
      "inputs": [],
      "name": "renounceOwnership",
      "outputs": [],
      "stateMutability": "nonpayable",
      "type": "function"
    },
    {
      "inputs": [
        {
          "internalType": "uint256",
          "name": "_number",
          "type": "uint256"
        }
      ],
      "name": "setNumber",
      "outputs": [],
      "stateMutability": "nonpayable",
      "type": "function"
    },
    {
      "inputs": [
        {
          "internalType": "address",
          "name": "newOwner",
          "type": "address"
        }
      ],
      "name": "transferOwnership",
      "outputs": [],
      "stateMutability": "nonpayable",
      "type": "function"
    },
    {
      "inputs": [
        {
          "internalType": "address",
          "name": "",
          "type": "address"
        }
      ],
      "name": "users",
      "outputs": [
        {
          "internalType": "string",
          "name": "name",
          "type": "string"
        },
        {
          "internalType": "string",
          "name": "firstname",
          "type": "string"
        },
        {
          "internalType": "uint256",
          "name": "nbVotePrivilege",
          "type": "uint256"
        },
        {
          "internalType": "uint256",
          "name": "allowedVotePrivilege",
          "type": "uint256"
        },
        {
          "internalType": "bool",
          "name": "active",
          "type": "bool"
        }
      ],
      "stateMutability": "view",
      "type": "function"
    },
    {
      "inputs": [],
      "name": "workflowstatus",
      "outputs": [
        {
          "internalType": "enum Arpa3.WorkflowStatus",
          "name": "",
          "type": "uint8"
        }
      ],
      "stateMutability": "view",
      "type": "function"
    }
  ],
  "bytecode": "0x608060405234801561001057600080fd5b5061002d61002261003960201b60201c565b61004160201b60201c565b60018081905550610105565b600033905090565b60008060009054906101000a900473ffffffffffffffffffffffffffffffffffffffff169050816000806101000a81548173ffffffffffffffffffffffffffffffffffffffff021916908373ffffffffffffffffffffffffffffffffffffffff1602179055508173ffffffffffffffffffffffffffffffffffffffff168173ffffffffffffffffffffffffffffffffffffffff167f8be0079c531659141344cd1fd0a4f28419497f9722a3daafe3b4186f6b6457e060405160405180910390a35050565b6111c8806101146000396000f3fe608060405234801561001057600080fd5b506004361061009e5760003560e01c8063715018a611610066578063715018a6146101475780638381f58a146101515780638da5cb5b1461016f578063a87430ba1461018d578063f2fde38b146101c15761009e565b806314b4a4f9146100a35780633cfdf802146100d35780633fb5c1cb146100ef57806358e7a5991461010b57806361bc221a14610129575b600080fd5b6100bd60048036038101906100b891906108f4565b6101dd565b6040516100ca919061093c565b60405180910390f35b6100ed60048036038101906100e891906109bc565b610236565b005b61010960048036038101906101049190610a3f565b6104d5565b005b6101136104df565b6040516101209190610ae3565b60405180910390f35b6101316104f2565b60405161013e9190610b0d565b60405180910390f35b61014f6104f8565b005b61015961050c565b6040516101669190610b0d565b60405180910390f35b610177610512565b6040516101849190610b37565b60405180910390f35b6101a760048036038101906101a291906108f4565b61053b565b6040516101b8959493929190610be2565b60405180910390f35b6101db60048036038101906101d691906108f4565b61068e565b005b6000600760008373ffffffffffffffffffffffffffffffffffffffff1673ffffffffffffffffffffffffffffffffffffffff16815260200190815260200160002060040160009054906101000a900460ff169050919050565b600760003373ffffffffffffffffffffffffffffffffffffffff1673ffffffffffffffffffffffffffffffffffffffff16815260200190815260200160002060040160009054906101000a900460ff166102c5576040517f08c379a00000000000000000000000000000000000000000000000000000000081526004016102bc90610c8f565b60405180910390fd5b600160038111156102d9576102d8610a6c565b5b600260009054906101000a900460ff1660038111156102fb576102fa610a6c565b5b1461033b576040517f08c379a000000000000000000000000000000000000000000000000000000000815260040161033290610cfb565b60405180910390fd5b60011515600760003373ffffffffffffffffffffffffffffffffffffffff1673ffffffffffffffffffffffffffffffffffffffff16815260200190815260200160002060040160009054906101000a900460ff161515146103d1576040517f08c379a00000000000000000000000000000000000000000000000000000000081526004016103c890610d67565b60405180910390fd5b6103d961085b565b600354816000018181525050600081602001818152505082828080601f016020809104026020016040519081016040528093929190818152602001838380828437600081840152601f19601f82011690508083019250505050505050816040018190525060008160800190151590811515815250506005819080600181540180825580915050600190039060005260206000209060050201600090919091909150600082015181600001556020820151816001015560408201518160020190816104a39190610fc2565b506060820151816003015560808201518160040160006101000a81548160ff0219169083151502179055505050505050565b8060048190555050565b600260009054906101000a900460ff1681565b60035481565b610500610711565b61050a600061078f565b565b60045481565b60008060009054906101000a900473ffffffffffffffffffffffffffffffffffffffff16905090565b600760205280600052604060002060009150905080600001805461055e90610de5565b80601f016020809104026020016040519081016040528092919081815260200182805461058a90610de5565b80156105d75780601f106105ac576101008083540402835291602001916105d7565b820191906000526020600020905b8154815290600101906020018083116105ba57829003601f168201915b5050505050908060010180546105ec90610de5565b80601f016020809104026020016040519081016040528092919081815260200182805461061890610de5565b80156106655780601f1061063a57610100808354040283529160200191610665565b820191906000526020600020905b81548152906001019060200180831161064857829003601f168201915b5050505050908060020154908060030154908060040160009054906101000a900460ff16905085565b610696610711565b600073ffffffffffffffffffffffffffffffffffffffff168173ffffffffffffffffffffffffffffffffffffffff1603610705576040517f08c379a00000000000000000000000000000000000000000000000000000000081526004016106fc90611106565b60405180910390fd5b61070e8161078f565b50565b610719610853565b73ffffffffffffffffffffffffffffffffffffffff16610737610512565b73ffffffffffffffffffffffffffffffffffffffff161461078d576040517f08c379a000000000000000000000000000000000000000000000000000000000815260040161078490611172565b60405180910390fd5b565b60008060009054906101000a900473ffffffffffffffffffffffffffffffffffffffff169050816000806101000a81548173ffffffffffffffffffffffffffffffffffffffff021916908373ffffffffffffffffffffffffffffffffffffffff1602179055508173ffffffffffffffffffffffffffffffffffffffff168173ffffffffffffffffffffffffffffffffffffffff167f8be0079c531659141344cd1fd0a4f28419497f9722a3daafe3b4186f6b6457e060405160405180910390a35050565b600033905090565b6040518060a00160405280600081526020016000815260200160608152602001600081526020016000151581525090565b600080fd5b600080fd5b600073ffffffffffffffffffffffffffffffffffffffff82169050919050565b60006108c182610896565b9050919050565b6108d1816108b6565b81146108dc57600080fd5b50565b6000813590506108ee816108c8565b92915050565b60006020828403121561090a5761090961088c565b5b6000610918848285016108df565b91505092915050565b60008115159050919050565b61093681610921565b82525050565b6000602082019050610951600083018461092d565b92915050565b600080fd5b600080fd5b600080fd5b60008083601f84011261097c5761097b610957565b5b8235905067ffffffffffffffff8111156109995761099861095c565b5b6020830191508360018202830111156109b5576109b4610961565b5b9250929050565b600080602083850312156109d3576109d261088c565b5b600083013567ffffffffffffffff8111156109f1576109f0610891565b5b6109fd85828601610966565b92509250509250929050565b6000819050919050565b610a1c81610a09565b8114610a2757600080fd5b50565b600081359050610a3981610a13565b92915050565b600060208284031215610a5557610a5461088c565b5b6000610a6384828501610a2a565b91505092915050565b7f4e487b7100000000000000000000000000000000000000000000000000000000600052602160045260246000fd5b60048110610aac57610aab610a6c565b5b50565b6000819050610abd82610a9b565b919050565b6000610acd82610aaf565b9050919050565b610add81610ac2565b82525050565b6000602082019050610af86000830184610ad4565b92915050565b610b0781610a09565b82525050565b6000602082019050610b226000830184610afe565b92915050565b610b31816108b6565b82525050565b6000602082019050610b4c6000830184610b28565b92915050565b600081519050919050565b600082825260208201905092915050565b60005b83811015610b8c578082015181840152602081019050610b71565b60008484015250505050565b6000601f19601f8301169050919050565b6000610bb482610b52565b610bbe8185610b5d565b9350610bce818560208601610b6e565b610bd781610b98565b840191505092915050565b600060a0820190508181036000830152610bfc8188610ba9565b90508181036020830152610c108187610ba9565b9050610c1f6040830186610afe565b610c2c6060830185610afe565b610c39608083018461092d565b9695505050505050565b7f4163636f756e74206e6f74207265636f72646564000000000000000000000000600082015250565b6000610c79601483610b5d565b9150610c8482610c43565b602082019050919050565b60006020820190508181036000830152610ca881610c6c565b9050919050565b7f4e6f7420616c6c6f77656420746f207265636f72640000000000000000000000600082015250565b6000610ce5601583610b5d565b9150610cf082610caf565b602082019050919050565b60006020820190508181036000830152610d1481610cd8565b9050919050565b7f55736572206e6f74207265636f72646564000000000000000000000000000000600082015250565b6000610d51601183610b5d565b9150610d5c82610d1b565b602082019050919050565b60006020820190508181036000830152610d8081610d44565b9050919050565b7f4e487b7100000000000000000000000000000000000000000000000000000000600052604160045260246000fd5b7f4e487b7100000000000000000000000000000000000000000000000000000000600052602260045260246000fd5b60006002820490506001821680610dfd57607f821691505b602082108103610e1057610e0f610db6565b5b50919050565b60008190508160005260206000209050919050565b60006020601f8301049050919050565b600082821b905092915050565b600060088302610e787fffffffffffffffffffffffffffffffffffffffffffffffffffffffffffffffff82610e3b565b610e828683610e3b565b95508019841693508086168417925050509392505050565b6000819050919050565b6000610ebf610eba610eb584610a09565b610e9a565b610a09565b9050919050565b6000819050919050565b610ed983610ea4565b610eed610ee582610ec6565b848454610e48565b825550505050565b600090565b610f02610ef5565b610f0d818484610ed0565b505050565b5b81811015610f3157610f26600082610efa565b600181019050610f13565b5050565b601f821115610f7657610f4781610e16565b610f5084610e2b565b81016020851015610f5f578190505b610f73610f6b85610e2b565b830182610f12565b50505b505050565b600082821c905092915050565b6000610f9960001984600802610f7b565b1980831691505092915050565b6000610fb28383610f88565b9150826002028217905092915050565b610fcb82610b52565b67ffffffffffffffff811115610fe457610fe3610d87565b5b610fee8254610de5565b610ff9828285610f35565b600060209050601f83116001811461102c576000841561101a578287015190505b6110248582610fa6565b86555061108c565b601f19841661103a86610e16565b60005b828110156110625784890151825560018201915060208501945060208101905061103d565b8683101561107f578489015161107b601f891682610f88565b8355505b6001600288020188555050505b505050505050565b7f4f776e61626c653a206e6577206f776e657220697320746865207a65726f206160008201527f6464726573730000000000000000000000000000000000000000000000000000602082015250565b60006110f0602683610b5d565b91506110fb82611094565b604082019050919050565b6000602082019050818103600083015261111f816110e3565b9050919050565b7f4f776e61626c653a2063616c6c6572206973206e6f7420746865206f776e6572600082015250565b600061115c602083610b5d565b915061116782611126565b602082019050919050565b6000602082019050818103600083015261118b8161114f565b905091905056fea2646970667358221220cbe19d78b557a3c46fdc035b012036f51e9761b8ab21f75ccbdd87504377dd5f64736f6c63430008130033",
  "linkReferences": {},
  "deployedLinkReferences": {}
}