{
  "_format": "hh-sol-artifact-1",
  "contractName": "Arpa3",
  "sourceName": "contracts/Arpa3.sol",
  "abi": [
    {
      "anonymous": false,
      "inputs": [
        {
          "indexed": false,
          "internalType": "address",
          "name": "_address",
          "type": "address"
        },
        {
          "indexed": false,
          "internalType": "string",
          "name": "_description",
          "type": "string"
        }
      ],
      "name": "AddPrivilege",
      "type": "event"
    },
    {
      "anonymous": false,
      "inputs": [
        {
          "indexed": false,
          "internalType": "address",
          "name": "_address",
          "type": "address"
        },
        {
          "indexed": false,
          "internalType": "string",
          "name": "_name",
          "type": "string"
        },
        {
          "indexed": false,
          "internalType": "string",
          "name": "_firstname",
          "type": "string"
        }
      ],
      "name": "AddProfil",
      "type": "event"
    },
    {
      "anonymous": false,
      "inputs": [
        {
          "indexed": false,
          "internalType": "uint256",
          "name": "_session",
          "type": "uint256"
        },
        {
          "indexed": false,
          "internalType": "address",
          "name": "_adresse",
          "type": "address"
        },
        {
          "indexed": false,
          "internalType": "uint256",
          "name": "_nbVote",
          "type": "uint256"
        }
      ],
      "name": "GetWinnerSession",
      "type": "event"
    },
    {
      "anonymous": false,
      "inputs": [
        {
          "indexed": false,
          "internalType": "uint256",
          "name": "_session",
          "type": "uint256"
        },
        {
          "indexed": false,
          "internalType": "address",
          "name": "_adresse",
          "type": "address"
        },
        {
          "indexed": false,
          "internalType": "string",
          "name": "motivation",
          "type": "string"
        }
      ],
      "name": "HistoricVote",
      "type": "event"
    },
    {
      "anonymous": false,
      "inputs": [
        {
          "indexed": true,
          "internalType": "address",
          "name": "previousOwner",
          "type": "address"
        },
        {
          "indexed": true,
          "internalType": "address",
          "name": "newOwner",
          "type": "address"
        }
      ],
      "name": "OwnershipTransferred",
      "type": "event"
    },
    {
      "stateMutability": "payable",
      "type": "fallback"
    },
    {
      "inputs": [
        {
          "internalType": "string",
          "name": "_description",
          "type": "string"
        }
      ],
      "name": "addPrivilege",
      "outputs": [],
      "stateMutability": "payable",
      "type": "function"
    },
    {
      "inputs": [],
      "name": "amountpriv",
      "outputs": [
        {
          "internalType": "uint256",
          "name": "",
          "type": "uint256"
        }
      ],
      "stateMutability": "view",
      "type": "function"
    },
    {
      "inputs": [],
      "name": "counter",
      "outputs": [
        {
          "internalType": "uint256",
          "name": "",
          "type": "uint256"
        }
      ],
      "stateMutability": "view",
      "type": "function"
    },
    {
      "inputs": [],
      "name": "getMyBalanceDep",
      "outputs": [
        {
          "internalType": "uint256",
          "name": "",
          "type": "uint256"
        }
      ],
      "stateMutability": "view",
      "type": "function"
    },
    {
      "inputs": [],
      "name": "getMyEthBalance",
      "outputs": [
        {
          "internalType": "uint256",
          "name": "",
          "type": "uint256"
        }
      ],
      "stateMutability": "view",
      "type": "function"
    },
    {
      "inputs": [],
      "name": "getPrivilege",
      "outputs": [
        {
          "components": [
            {
              "internalType": "uint256",
              "name": "idP",
              "type": "uint256"
            },
            {
              "internalType": "uint256",
              "name": "amount",
              "type": "uint256"
            },
            {
              "internalType": "string",
              "name": "description",
              "type": "string"
            },
            {
              "internalType": "uint256",
              "name": "nbVote",
              "type": "uint256"
            },
            {
              "internalType": "bool",
              "name": "isActive",
              "type": "bool"
            }
          ],
          "internalType": "struct Arpa3.Privilege[]",
          "name": "",
          "type": "tuple[]"
        }
      ],
      "stateMutability": "view",
      "type": "function"
    },
    {
      "inputs": [],
      "name": "getProposal",
      "outputs": [
        {
          "components": [
            {
              "internalType": "address",
              "name": "addresse",
              "type": "address"
            },
            {
              "internalType": "string",
              "name": "name",
              "type": "string"
            },
            {
              "internalType": "string",
              "name": "firstname",
              "type": "string"
            },
            {
              "internalType": "string",
              "name": "service",
              "type": "string"
            },
            {
              "internalType": "uint256",
              "name": "nbvote",
              "type": "uint256"
            }
          ],
          "internalType": "struct Arpa3.Proposal[]",
          "name": "",
          "type": "tuple[]"
        }
      ],
      "stateMutability": "view",
      "type": "function"
    },
    {
      "inputs": [],
      "name": "getWinner",
      "outputs": [
        {
          "components": [
            {
              "internalType": "address",
              "name": "addresse",
              "type": "address"
            },
            {
              "internalType": "string",
              "name": "name",
              "type": "string"
            },
            {
              "internalType": "string",
              "name": "firstname",
              "type": "string"
            },
            {
              "internalType": "string",
              "name": "service",
              "type": "string"
            },
            {
              "internalType": "uint256",
              "name": "nbvote",
              "type": "uint256"
            }
          ],
          "internalType": "struct Arpa3.Proposal",
          "name": "",
          "type": "tuple"
        }
      ],
      "stateMutability": "view",
      "type": "function"
    },
    {
      "inputs": [],
      "name": "hasVoted",
      "outputs": [
        {
          "internalType": "bool",
          "name": "",
          "type": "bool"
        }
      ],
      "stateMutability": "view",
      "type": "function"
    },
    {
      "inputs": [
        {
          "internalType": "uint256",
          "name": "",
          "type": "uint256"
        }
      ],
      "name": "historicArray",
      "outputs": [
        {
          "internalType": "uint256",
          "name": "sessionNumber",
          "type": "uint256"
        },
        {
          "internalType": "address",
          "name": "proposalAddress",
          "type": "address"
        },
        {
          "internalType": "string",
          "name": "motivation",
          "type": "string"
        }
      ],
      "stateMutability": "view",
      "type": "function"
    },
    {
      "inputs": [
        {
          "internalType": "address",
          "name": "_address",
          "type": "address"
        }
      ],
      "name": "isAccountExist",
      "outputs": [
        {
          "internalType": "bool",
          "name": "",
          "type": "bool"
        }
      ],
      "stateMutability": "view",
      "type": "function"
    },
    {
      "inputs": [],
      "name": "number",
      "outputs": [
        {
          "internalType": "uint256",
          "name": "",
          "type": "uint256"
        }
      ],
      "stateMutability": "view",
      "type": "function"
    },
    {
      "inputs": [],
      "name": "owner",
      "outputs": [
        {
          "internalType": "address",
          "name": "",
          "type": "address"
        }
      ],
      "stateMutability": "view",
      "type": "function"
    },
    {
      "inputs": [
        {
          "internalType": "uint256",
          "name": "",
          "type": "uint256"
        }
      ],
      "name": "proposalArray",
      "outputs": [
        {
          "internalType": "address",
          "name": "addresse",
          "type": "address"
        },
        {
          "internalType": "string",
          "name": "name",
          "type": "string"
        },
        {
          "internalType": "string",
          "name": "firstname",
          "type": "string"
        },
        {
          "internalType": "string",
          "name": "service",
          "type": "string"
        },
        {
          "internalType": "uint256",
          "name": "nbvote",
          "type": "uint256"
        }
      ],
      "stateMutability": "view",
      "type": "function"
    },
    {
      "inputs": [],
      "name": "renounceOwnership",
      "outputs": [],
      "stateMutability": "nonpayable",
      "type": "function"
    },
    {
      "inputs": [
        {
          "internalType": "uint256",
          "name": "_number",
          "type": "uint256"
        }
      ],
      "name": "setNumber",
      "outputs": [],
      "stateMutability": "nonpayable",
      "type": "function"
    },
    {
      "inputs": [
        {
          "internalType": "string",
          "name": "_name",
          "type": "string"
        },
        {
          "internalType": "string",
          "name": "_firstname",
          "type": "string"
        },
        {
          "internalType": "string",
          "name": "_service",
          "type": "string"
        }
      ],
      "name": "setProfilAndProposal",
      "outputs": [],
      "stateMutability": "nonpayable",
      "type": "function"
    },
    {
      "inputs": [
        {
          "internalType": "uint256",
          "name": "_id",
          "type": "uint256"
        },
        {
          "internalType": "string",
          "name": "_motivation",
          "type": "string"
        }
      ],
      "name": "setVote",
      "outputs": [],
      "stateMutability": "nonpayable",
      "type": "function"
    },
    {
      "inputs": [
        {
          "internalType": "enum Arpa3.WorkflowStatus",
          "name": "_step",
          "type": "uint8"
        }
      ],
      "name": "setWorkflowstatus",
      "outputs": [],
      "stateMutability": "nonpayable",
      "type": "function"
    },
    {
      "inputs": [],
      "name": "startVoteSession",
      "outputs": [],
      "stateMutability": "nonpayable",
      "type": "function"
    },
    {
      "inputs": [],
      "name": "stopVoteSession",
      "outputs": [],
      "stateMutability": "nonpayable",
      "type": "function"
    },
    {
      "inputs": [
        {
          "internalType": "address",
          "name": "newOwner",
          "type": "address"
        }
      ],
      "name": "transferOwnership",
      "outputs": [],
      "stateMutability": "nonpayable",
      "type": "function"
    },
    {
      "inputs": [
        {
          "internalType": "address",
          "name": "",
          "type": "address"
        }
      ],
      "name": "users",
      "outputs": [
        {
          "internalType": "string",
          "name": "name",
          "type": "string"
        },
        {
          "internalType": "string",
          "name": "firstname",
          "type": "string"
        },
        {
          "internalType": "uint256",
          "name": "nbVotePrivilege",
          "type": "uint256"
        },
        {
          "internalType": "bool",
          "name": "hasvoted",
          "type": "bool"
        },
        {
          "internalType": "bool",
          "name": "active",
          "type": "bool"
        }
      ],
      "stateMutability": "view",
      "type": "function"
    },
    {
      "inputs": [],
      "name": "votingSessionNumber",
      "outputs": [
        {
          "internalType": "uint256",
          "name": "",
          "type": "uint256"
        }
      ],
      "stateMutability": "view",
      "type": "function"
    },
    {
      "inputs": [],
      "name": "workflowstatus",
      "outputs": [
        {
          "internalType": "enum Arpa3.WorkflowStatus",
          "name": "",
          "type": "uint8"
        }
      ],
      "stateMutability": "view",
      "type": "function"
    },
    {
      "stateMutability": "payable",
      "type": "receive"
    }
  ],
  "bytecode": "0x60806040526706f05b59d3b200006005553480156200001d57600080fd5b506200003e620000326200004b60201b60201c565b6200005360201b60201c565b6001808190555062000117565b600033905090565b60008060009054906101000a900473ffffffffffffffffffffffffffffffffffffffff169050816000806101000a81548173ffffffffffffffffffffffffffffffffffffffff021916908373ffffffffffffffffffffffffffffffffffffffff1602179055508173ffffffffffffffffffffffffffffffffffffffff168173ffffffffffffffffffffffffffffffffffffffff167f8be0079c531659141344cd1fd0a4f28419497f9722a3daafe3b4186f6b6457e060405160405180910390a35050565b61363180620001276000396000f3fe60806040526004361061016a5760003560e01c80637e2de1c0116100d1578063aaa983461161008a578063c366c56c11610064578063c366c56c146104ff578063c6abda3c14610528578063f2fde38b14610551578063ffdf7cb11461057a57610171565b8063aaa98346146104a6578063b47e9d40146104bd578063b9e2bea0146104d457610171565b80637e2de1c01461037a5780637f47997e146103b95780638381f58a146103e45780638da5cb5b1461040f5780638e7ea5b21461043a578063a87430ba1461046557610171565b80633fb5c1cb116101235780633fb5c1cb1461028e57806342e3cf1e146102b757806358e7a599146102e257806361bc221a1461030d5780636482133814610338578063715018a61461036357610171565b80630709dec81461017357806314b4a4f91461019e5780631dbe22be146101db5780632d033284146102065780633a19825d146102315780633cfdf8021461027257610171565b3661017157005b005b34801561017f57600080fd5b506101886105a3565b60405161019591906120f1565b60405180910390f35b3480156101aa57600080fd5b506101c560048036038101906101c09190612174565b6105c2565b6040516101d291906121bc565b60405180910390f35b3480156101e757600080fd5b506101f061061b565b6040516101fd91906123bd565b60405180910390f35b34801561021257600080fd5b5061021b610745565b60405161022891906120f1565b60405180910390f35b34801561023d57600080fd5b506102586004803603810190610253919061240b565b61074b565b604051610269959493929190612491565b60405180910390f35b61028c6004803603810190610287919061255e565b610949565b005b34801561029a57600080fd5b506102b560048036038101906102b0919061240b565b610c54565b005b3480156102c357600080fd5b506102cc610c5e565b6040516102d991906120f1565b60405180910390f35b3480156102ee57600080fd5b506102f7610ca5565b6040516103049190612622565b60405180910390f35b34801561031957600080fd5b50610322610cb8565b60405161032f91906120f1565b60405180910390f35b34801561034457600080fd5b5061034d610cbe565b60405161035a91906121bc565b60405180910390f35b34801561036f57600080fd5b50610378610d15565b005b34801561038657600080fd5b506103a1600480360381019061039c919061240b565b610d29565b6040516103b09392919061263d565b60405180910390f35b3480156103c557600080fd5b506103ce610e0b565b6040516103db91906120f1565b60405180910390f35b3480156103f057600080fd5b506103f9610e11565b60405161040691906120f1565b60405180910390f35b34801561041b57600080fd5b50610424610e17565b604051610431919061267b565b60405180910390f35b34801561044657600080fd5b5061044f610e40565b60405161045c9190612729565b60405180910390f35b34801561047157600080fd5b5061048c60048036038101906104879190612174565b611107565b60405161049d95949392919061274b565b60405180910390f35b3480156104b257600080fd5b506104bb611267565b005b3480156104c957600080fd5b506104d261139e565b005b3480156104e057600080fd5b506104e96113d3565b6040516104f691906128f2565b60405180910390f35b34801561050b57600080fd5b5061052660048036038101906105219190612914565b611648565b005b34801561053457600080fd5b5061054f600480360381019061054a9190612999565b611910565b005b34801561055d57600080fd5b5061057860048036038101906105739190612174565b611945565b005b34801561058657600080fd5b506105a1600480360381019061059c91906129c6565b6119c8565b005b60003373ffffffffffffffffffffffffffffffffffffffff1631905090565b6000600b60008373ffffffffffffffffffffffffffffffffffffffff1673ffffffffffffffffffffffffffffffffffffffff16815260200190815260200160002060030160019054906101000a900460ff169050919050565b60606008805480602002602001604051908101604052809291908181526020016000905b8282101561073c57838290600052602060002090600502016040518060a0016040529081600082015481526020016001820154815260200160028201805461068690612aa9565b80601f01602080910402602001604051908101604052809291908181526020018280546106b290612aa9565b80156106ff5780601f106106d4576101008083540402835291602001916106ff565b820191906000526020600020905b8154815290600101906020018083116106e257829003601f168201915b50505050508152602001600382015481526020016004820160009054906101000a900460ff1615151515815250508152602001906001019061063f565b50505050905090565b60055481565b6009818154811061075b57600080fd5b90600052602060002090600502016000915090508060000160009054906101000a900473ffffffffffffffffffffffffffffffffffffffff16908060010180546107a490612aa9565b80601f01602080910402602001604051908101604052809291908181526020018280546107d090612aa9565b801561081d5780601f106107f25761010080835404028352916020019161081d565b820191906000526020600020905b81548152906001019060200180831161080057829003601f168201915b50505050509080600201805461083290612aa9565b80601f016020809104026020016040519081016040528092919081815260200182805461085e90612aa9565b80156108ab5780601f10610880576101008083540402835291602001916108ab565b820191906000526020600020905b81548152906001019060200180831161088e57829003601f168201915b5050505050908060030180546108c090612aa9565b80601f01602080910402602001604051908101604052809291908181526020018280546108ec90612aa9565b80156109395780601f1061090e57610100808354040283529160200191610939565b820191906000526020600020905b81548152906001019060200180831161091c57829003601f168201915b5050505050908060040154905085565b610951611ec0565b60016003811115610965576109646125ab565b5b600260009054906101000a900460ff166003811115610987576109866125ab565b5b146109c7576040517f08c379a00000000000000000000000000000000000000000000000000000000081526004016109be90612b26565b60405180910390fd5b60011515600b60003373ffffffffffffffffffffffffffffffffffffffff1673ffffffffffffffffffffffffffffffffffffffff16815260200190815260200160002060030160019054906101000a900460ff16151514610a5d576040517f08c379a0000000000000000000000000000000000000000000000000000000008152600401610a5490612b92565b60405180910390fd5b6005543414610aa1576040517f08c379a0000000000000000000000000000000000000000000000000000000008152600401610a9890612bfe565b60405180910390fd5b610aa9612062565b600354816000018181525050600081602001818152505082828080601f016020809104026020016040519081016040528093929190818152602001838380828437600081840152601f19601f8201169050808301925050505050505081604001819052506000816080019015159081151581525050600881908060018154018082558091505060019003906000526020600020906005020160009091909190915060008201518160000155602082015181600101556040820151816002019081610b739190612df9565b506060820151816003015560808201518160040160006101000a81548160ff021916908315150217905550505034600c60003373ffffffffffffffffffffffffffffffffffffffff1673ffffffffffffffffffffffffffffffffffffffff1681526020019081526020016000206000828254610bef9190612efa565b92505081905550600360008154610c0590612f2e565b919050819055507f79b4967f952c2e2a563ed6ece6722a54e83844ba5ab08f9f5cdaaf27560125de338484604051610c3f93929190612fb2565b60405180910390a150610c50611f0f565b5050565b8060048190555050565b6000600c60003373ffffffffffffffffffffffffffffffffffffffff1673ffffffffffffffffffffffffffffffffffffffff16815260200190815260200160002054905090565b600260009054906101000a900460ff1681565b60035481565b6000600b60003373ffffffffffffffffffffffffffffffffffffffff1673ffffffffffffffffffffffffffffffffffffffff16815260200190815260200160002060030160009054906101000a900460ff16905090565b610d1d611f18565b610d276000611f96565b565b600a8181548110610d3957600080fd5b90600052602060002090600302016000915090508060000154908060010160009054906101000a900473ffffffffffffffffffffffffffffffffffffffff1690806002018054610d8890612aa9565b80601f0160208091040260200160405190810160405280929190818152602001828054610db490612aa9565b8015610e015780601f10610dd657610100808354040283529160200191610e01565b820191906000526020600020905b815481529060010190602001808311610de457829003601f168201915b5050505050905083565b60065481565b60045481565b60008060009054906101000a900473ffffffffffffffffffffffffffffffffffffffff16905090565b610e48612093565b600380811115610e5b57610e5a6125ab565b5b600260009054906101000a900460ff166003811115610e7d57610e7c6125ab565b5b14610ebd576040517f08c379a0000000000000000000000000000000000000000000000000000000008152600401610eb490613030565b60405180910390fd5b600960075481548110610ed357610ed2613050565b5b90600052602060002090600502016040518060a00160405290816000820160009054906101000a900473ffffffffffffffffffffffffffffffffffffffff1673ffffffffffffffffffffffffffffffffffffffff1673ffffffffffffffffffffffffffffffffffffffff168152602001600182018054610f5290612aa9565b80601f0160208091040260200160405190810160405280929190818152602001828054610f7e90612aa9565b8015610fcb5780601f10610fa057610100808354040283529160200191610fcb565b820191906000526020600020905b815481529060010190602001808311610fae57829003601f168201915b50505050508152602001600282018054610fe490612aa9565b80601f016020809104026020016040519081016040528092919081815260200182805461101090612aa9565b801561105d5780601f106110325761010080835404028352916020019161105d565b820191906000526020600020905b81548152906001019060200180831161104057829003601f168201915b5050505050815260200160038201805461107690612aa9565b80601f01602080910402602001604051908101604052809291908181526020018280546110a290612aa9565b80156110ef5780601f106110c4576101008083540402835291602001916110ef565b820191906000526020600020905b8154815290600101906020018083116110d257829003601f168201915b50505050508152602001600482015481525050905090565b600b60205280600052604060002060009150905080600001805461112a90612aa9565b80601f016020809104026020016040519081016040528092919081815260200182805461115690612aa9565b80156111a35780601f10611178576101008083540402835291602001916111a3565b820191906000526020600020905b81548152906001019060200180831161118657829003601f168201915b5050505050908060010180546111b890612aa9565b80601f01602080910402602001604051908101604052809291908181526020018280546111e490612aa9565b80156112315780601f1061120657610100808354040283529160200191611231565b820191906000526020600020905b81548152906001019060200180831161121457829003601f168201915b5050505050908060020154908060030160009054906101000a900460ff16908060030160019054906101000a900460ff16905085565b61126f611f18565b60066000815461127e90612f2e565b9190508190555060028060006101000a81548160ff021916908360038111156112aa576112a96125ab565b5b021790555060005b60098054905081101561139b576000600982815481106112d5576112d4613050565b5b9060005260206000209060050201600401819055506000600b60006009848154811061130457611303613050565b5b906000526020600020906005020160000160009054906101000a900473ffffffffffffffffffffffffffffffffffffffff1673ffffffffffffffffffffffffffffffffffffffff1673ffffffffffffffffffffffffffffffffffffffff16815260200190815260200160002060030160006101000a81548160ff0219169083151502179055508061139490612f2e565b90506112b2565b50565b6113a6611f18565b6003600260006101000a81548160ff021916908360038111156113cc576113cb6125ab565b5b0217905550565b60606009805480602002602001604051908101604052809291908181526020016000905b8282101561163f57838290600052602060002090600502016040518060a00160405290816000820160009054906101000a900473ffffffffffffffffffffffffffffffffffffffff1673ffffffffffffffffffffffffffffffffffffffff1673ffffffffffffffffffffffffffffffffffffffff16815260200160018201805461148090612aa9565b80601f01602080910402602001604051908101604052809291908181526020018280546114ac90612aa9565b80156114f95780601f106114ce576101008083540402835291602001916114f9565b820191906000526020600020905b8154815290600101906020018083116114dc57829003601f168201915b5050505050815260200160028201805461151290612aa9565b80601f016020809104026020016040519081016040528092919081815260200182805461153e90612aa9565b801561158b5780601f106115605761010080835404028352916020019161158b565b820191906000526020600020905b81548152906001019060200180831161156e57829003601f168201915b505050505081526020016003820180546115a490612aa9565b80601f01602080910402602001604051908101604052809291908181526020018280546115d090612aa9565b801561161d5780601f106115f25761010080835404028352916020019161161d565b820191906000526020600020905b81548152906001019060200180831161160057829003601f168201915b50505050508152602001600482015481525050815260200190600101906113f7565b50505050905090565b6002600381111561165c5761165b6125ab565b5b600260009054906101000a900460ff16600381111561167e5761167d6125ab565b5b146116be576040517f08c379a00000000000000000000000000000000000000000000000000000000081526004016116b5906130f1565b60405180910390fd5b600b60003373ffffffffffffffffffffffffffffffffffffffff1673ffffffffffffffffffffffffffffffffffffffff16815260200190815260200160002060030160009054906101000a900460ff161561174e576040517f08c379a00000000000000000000000000000000000000000000000000000000081526004016117459061315d565b60405180910390fd5b6009805490508310611795576040517f08c379a000000000000000000000000000000000000000000000000000000000815260040161178c906131c9565b60405180910390fd5b6001600b60003373ffffffffffffffffffffffffffffffffffffffff1673ffffffffffffffffffffffffffffffffffffffff16815260200190815260200160002060030160006101000a81548160ff0219169083151502179055506009838154811061180457611803613050565b5b9060005260206000209060050201600401600081548092919061182690612f2e565b919050555060096007548154811061184157611840613050565b5b9060005260206000209060050201600401546009848154811061186757611866613050565b5b906000526020600020906005020160040154111561188757826007819055505b7f9a4b1974a303b6b8937c2f2186a95dc8466a1b5f12f3908d04c7e4afc0079bd9600654600985815481106118bf576118be613050565b5b906000526020600020906005020160000160009054906101000a900473ffffffffffffffffffffffffffffffffffffffff16848460405161190394939291906131e9565b60405180910390a1505050565b611918611f18565b80600260006101000a81548160ff0219169083600381111561193d5761193c6125ab565b5b021790555050565b61194d611f18565b600073ffffffffffffffffffffffffffffffffffffffff168173ffffffffffffffffffffffffffffffffffffffff16036119bc576040517f08c379a00000000000000000000000000000000000000000000000000000000081526004016119b39061329b565b60405180910390fd5b6119c581611f96565b50565b600073ffffffffffffffffffffffffffffffffffffffff163373ffffffffffffffffffffffffffffffffffffffff1603611a37576040517f08c379a0000000000000000000000000000000000000000000000000000000008152600401611a2e90613307565b60405180910390fd5b600b60003373ffffffffffffffffffffffffffffffffffffffff1673ffffffffffffffffffffffffffffffffffffffff16815260200190815260200160002060030160019054906101000a900460ff1615611ac7576040517f08c379a0000000000000000000000000000000000000000000000000000000008152600401611abe90613373565b60405180910390fd5b600086869050118015611add5750600084849050115b8015611aec5750600082829050115b611b2b576040517f08c379a0000000000000000000000000000000000000000000000000000000008152600401611b22906133df565b60405180910390fd5b8585600b60003373ffffffffffffffffffffffffffffffffffffffff1673ffffffffffffffffffffffffffffffffffffffff1681526020019081526020016000206000019182611b7c92919061340a565b508383600b60003373ffffffffffffffffffffffffffffffffffffffff1673ffffffffffffffffffffffffffffffffffffffff1681526020019081526020016000206001019182611bce92919061340a565b506000600b60003373ffffffffffffffffffffffffffffffffffffffff1673ffffffffffffffffffffffffffffffffffffffff16815260200190815260200160002060030160006101000a81548160ff0219169083151502179055506001600b60003373ffffffffffffffffffffffffffffffffffffffff1673ffffffffffffffffffffffffffffffffffffffff16815260200190815260200160002060030160016101000a81548160ff021916908315150217905550611c8d612093565b33816000019073ffffffffffffffffffffffffffffffffffffffff16908173ffffffffffffffffffffffffffffffffffffffff168152505086868080601f016020809104026020016040519081016040528093929190818152602001838380828437600081840152601f19601f82011690508083019250505050505050816020018190525084848080601f016020809104026020016040519081016040528093929190818152602001838380828437600081840152601f19601f82011690508083019250505050505050816040018190525082828080601f016020809104026020016040519081016040528093929190818152602001838380828437600081840152601f19601f8201169050808301925050505050505081606001819052506000816080018181525050600981908060018154018082558091505060019003906000526020600020906005020160009091909190915060008201518160000160006101000a81548173ffffffffffffffffffffffffffffffffffffffff021916908373ffffffffffffffffffffffffffffffffffffffff1602179055506020820151816001019081611e3f9190612df9565b506040820151816002019081611e559190612df9565b506060820151816003019081611e6b9190612df9565b506080820151816004015550507fdb662c8b79ccb9909891c358aec9651e782d0ad9523566bd659c084b5fefcec73388888888604051611eaf9594939291906134da565b60405180910390a150505050505050565b600260015403611f05576040517f08c379a0000000000000000000000000000000000000000000000000000000008152600401611efc9061356f565b60405180910390fd5b6002600181905550565b60018081905550565b611f2061205a565b73ffffffffffffffffffffffffffffffffffffffff16611f3e610e17565b73ffffffffffffffffffffffffffffffffffffffff1614611f94576040517f08c379a0000000000000000000000000000000000000000000000000000000008152600401611f8b906135db565b60405180910390fd5b565b60008060009054906101000a900473ffffffffffffffffffffffffffffffffffffffff169050816000806101000a81548173ffffffffffffffffffffffffffffffffffffffff021916908373ffffffffffffffffffffffffffffffffffffffff1602179055508173ffffffffffffffffffffffffffffffffffffffff168173ffffffffffffffffffffffffffffffffffffffff167f8be0079c531659141344cd1fd0a4f28419497f9722a3daafe3b4186f6b6457e060405160405180910390a35050565b600033905090565b6040518060a00160405280600081526020016000815260200160608152602001600081526020016000151581525090565b6040518060a00160405280600073ffffffffffffffffffffffffffffffffffffffff168152602001606081526020016060815260200160608152602001600081525090565b6000819050919050565b6120eb816120d8565b82525050565b600060208201905061210660008301846120e2565b92915050565b600080fd5b600080fd5b600073ffffffffffffffffffffffffffffffffffffffff82169050919050565b600061214182612116565b9050919050565b61215181612136565b811461215c57600080fd5b50565b60008135905061216e81612148565b92915050565b60006020828403121561218a5761218961210c565b5b60006121988482850161215f565b91505092915050565b60008115159050919050565b6121b6816121a1565b82525050565b60006020820190506121d160008301846121ad565b92915050565b600081519050919050565b600082825260208201905092915050565b6000819050602082019050919050565b61220c816120d8565b82525050565b600081519050919050565b600082825260208201905092915050565b60005b8381101561224c578082015181840152602081019050612231565b60008484015250505050565b6000601f19601f8301169050919050565b600061227482612212565b61227e818561221d565b935061228e81856020860161222e565b61229781612258565b840191505092915050565b6122ab816121a1565b82525050565b600060a0830160008301516122c96000860182612203565b5060208301516122dc6020860182612203565b50604083015184820360408601526122f48282612269565b91505060608301516123096060860182612203565b50608083015161231c60808601826122a2565b508091505092915050565b600061233383836122b1565b905092915050565b6000602082019050919050565b6000612353826121d7565b61235d81856121e2565b93508360208202850161236f856121f3565b8060005b858110156123ab578484038952815161238c8582612327565b94506123978361233b565b925060208a01995050600181019050612373565b50829750879550505050505092915050565b600060208201905081810360008301526123d78184612348565b905092915050565b6123e8816120d8565b81146123f357600080fd5b50565b600081359050612405816123df565b92915050565b6000602082840312156124215761242061210c565b5b600061242f848285016123f6565b91505092915050565b61244181612136565b82525050565b600082825260208201905092915050565b600061246382612212565b61246d8185612447565b935061247d81856020860161222e565b61248681612258565b840191505092915050565b600060a0820190506124a66000830188612438565b81810360208301526124b88187612458565b905081810360408301526124cc8186612458565b905081810360608301526124e08185612458565b90506124ef60808301846120e2565b9695505050505050565b600080fd5b600080fd5b600080fd5b60008083601f84011261251e5761251d6124f9565b5b8235905067ffffffffffffffff81111561253b5761253a6124fe565b5b60208301915083600182028301111561255757612556612503565b5b9250929050565b600080602083850312156125755761257461210c565b5b600083013567ffffffffffffffff81111561259357612592612111565b5b61259f85828601612508565b92509250509250929050565b7f4e487b7100000000000000000000000000000000000000000000000000000000600052602160045260246000fd5b600481106125eb576125ea6125ab565b5b50565b60008190506125fc826125da565b919050565b600061260c826125ee565b9050919050565b61261c81612601565b82525050565b60006020820190506126376000830184612613565b92915050565b600060608201905061265260008301866120e2565b61265f6020830185612438565b81810360408301526126718184612458565b9050949350505050565b60006020820190506126906000830184612438565b92915050565b61269f81612136565b82525050565b600060a0830160008301516126bd6000860182612696565b50602083015184820360208601526126d58282612269565b915050604083015184820360408601526126ef8282612269565b915050606083015184820360608601526127098282612269565b915050608083015161271e6080860182612203565b508091505092915050565b6000602082019050818103600083015261274381846126a5565b905092915050565b600060a08201905081810360008301526127658188612458565b905081810360208301526127798187612458565b905061278860408301866120e2565b61279560608301856121ad565b6127a260808301846121ad565b9695505050505050565b600081519050919050565b600082825260208201905092915050565b6000819050602082019050919050565b600060a0830160008301516127f06000860182612696565b50602083015184820360208601526128088282612269565b915050604083015184820360408601526128228282612269565b9150506060830151848203606086015261283c8282612269565b91505060808301516128516080860182612203565b508091505092915050565b600061286883836127d8565b905092915050565b6000602082019050919050565b6000612888826127ac565b61289281856127b7565b9350836020820285016128a4856127c8565b8060005b858110156128e057848403895281516128c1858261285c565b94506128cc83612870565b925060208a019950506001810190506128a8565b50829750879550505050505092915050565b6000602082019050818103600083015261290c818461287d565b905092915050565b60008060006040848603121561292d5761292c61210c565b5b600061293b868287016123f6565b935050602084013567ffffffffffffffff81111561295c5761295b612111565b5b61296886828701612508565b92509250509250925092565b6004811061298157600080fd5b50565b60008135905061299381612974565b92915050565b6000602082840312156129af576129ae61210c565b5b60006129bd84828501612984565b91505092915050565b600080600080600080606087890312156129e3576129e261210c565b5b600087013567ffffffffffffffff811115612a0157612a00612111565b5b612a0d89828a01612508565b9650965050602087013567ffffffffffffffff811115612a3057612a2f612111565b5b612a3c89828a01612508565b9450945050604087013567ffffffffffffffff811115612a5f57612a5e612111565b5b612a6b89828a01612508565b92509250509295509295509295565b7f4e487b7100000000000000000000000000000000000000000000000000000000600052602260045260246000fd5b60006002820490506001821680612ac157607f821691505b602082108103612ad457612ad3612a7a565b5b50919050565b7f4e6f7420616c6c6f77656420746f207265636f72640000000000000000000000600082015250565b6000612b10601583612447565b9150612b1b82612ada565b602082019050919050565b60006020820190508181036000830152612b3f81612b03565b9050919050565b7f55736572206e6f74207265636f72646564000000000000000000000000000000600082015250565b6000612b7c601183612447565b9150612b8782612b46565b602082019050919050565b60006020820190508181036000830152612bab81612b6f565b9050919050565b7f496e636f727265637420616d6f756e7400000000000000000000000000000000600082015250565b6000612be8601083612447565b9150612bf382612bb2565b602082019050919050565b60006020820190508181036000830152612c1781612bdb565b9050919050565b7f4e487b7100000000000000000000000000000000000000000000000000000000600052604160045260246000fd5b60008190508160005260206000209050919050565b60006020601f8301049050919050565b600082821b905092915050565b600060088302612caf7fffffffffffffffffffffffffffffffffffffffffffffffffffffffffffffffff82612c72565b612cb98683612c72565b95508019841693508086168417925050509392505050565b6000819050919050565b6000612cf6612cf1612cec846120d8565b612cd1565b6120d8565b9050919050565b6000819050919050565b612d1083612cdb565b612d24612d1c82612cfd565b848454612c7f565b825550505050565b600090565b612d39612d2c565b612d44818484612d07565b505050565b5b81811015612d6857612d5d600082612d31565b600181019050612d4a565b5050565b601f821115612dad57612d7e81612c4d565b612d8784612c62565b81016020851015612d96578190505b612daa612da285612c62565b830182612d49565b50505b505050565b600082821c905092915050565b6000612dd060001984600802612db2565b1980831691505092915050565b6000612de98383612dbf565b9150826002028217905092915050565b612e0282612212565b67ffffffffffffffff811115612e1b57612e1a612c1e565b5b612e258254612aa9565b612e30828285612d6c565b600060209050601f831160018114612e635760008415612e51578287015190505b612e5b8582612ddd565b865550612ec3565b601f198416612e7186612c4d565b60005b82811015612e9957848901518255600182019150602085019450602081019050612e74565b86831015612eb65784890151612eb2601f891682612dbf565b8355505b6001600288020188555050505b505050505050565b7f4e487b7100000000000000000000000000000000000000000000000000000000600052601160045260246000fd5b6000612f05826120d8565b9150612f10836120d8565b9250828201905080821115612f2857612f27612ecb565b5b92915050565b6000612f39826120d8565b91507fffffffffffffffffffffffffffffffffffffffffffffffffffffffffffffffff8203612f6b57612f6a612ecb565b5b600182019050919050565b82818337600083830152505050565b6000612f918385612447565b9350612f9e838584612f76565b612fa783612258565b840190509392505050565b6000604082019050612fc76000830186612438565b8181036020830152612fda818486612f85565b9050949350505050565b7f53657373696f6e20566f7465206e6f7420636c6f736564000000000000000000600082015250565b600061301a601783612447565b915061302582612fe4565b602082019050919050565b600060208201905081810360008301526130498161300d565b9050919050565b7f4e487b7100000000000000000000000000000000000000000000000000000000600052603260045260246000fd5b7f566f74696e672073657373696f6e20686176656e74207374617274656420796560008201527f7400000000000000000000000000000000000000000000000000000000000000602082015250565b60006130db602183612447565b91506130e68261307f565b604082019050919050565b6000602082019050818103600083015261310a816130ce565b9050919050565b7f596f75206861766520616c726561647920766f74656400000000000000000000600082015250565b6000613147601683612447565b915061315282613111565b602082019050919050565b600060208201905081810360008301526131768161313a565b9050919050565b7f50726f706f73616c206e6f7420666f756e640000000000000000000000000000600082015250565b60006131b3601283612447565b91506131be8261317d565b602082019050919050565b600060208201905081810360008301526131e2816131a6565b9050919050565b60006060820190506131fe60008301876120e2565b61320b6020830186612438565b818103604083015261321e818486612f85565b905095945050505050565b7f4f776e61626c653a206e6577206f776e657220697320746865207a65726f206160008201527f6464726573730000000000000000000000000000000000000000000000000000602082015250565b6000613285602683612447565b915061329082613229565b604082019050919050565b600060208201905081810360008301526132b481613278565b9050919050565b7f6e6f7420636f6e6e656374656400000000000000000000000000000000000000600082015250565b60006132f1600d83612447565b91506132fc826132bb565b602082019050919050565b60006020820190508181036000830152613320816132e4565b9050919050565b7f4163636f756e7420616c72656164792045786973740000000000000000000000600082015250565b600061335d601583612447565b915061336882613327565b602082019050919050565b6000602082019050818103600083015261338c81613350565b9050919050565b7f56616c7565206e6f7420656d7074790000000000000000000000000000000000600082015250565b60006133c9600f83612447565b91506133d482613393565b602082019050919050565b600060208201905081810360008301526133f8816133bc565b9050919050565b600082905092915050565b61341483836133ff565b67ffffffffffffffff81111561342d5761342c612c1e565b5b6134378254612aa9565b613442828285612d6c565b6000601f831160018114613471576000841561345f578287013590505b6134698582612ddd565b8655506134d1565b601f19841661347f86612c4d565b60005b828110156134a757848901358255600182019150602085019450602081019050613482565b868310156134c457848901356134c0601f891682612dbf565b8355505b6001600288020188555050505b50505050505050565b60006060820190506134ef6000830188612438565b8181036020830152613502818688612f85565b90508181036040830152613517818486612f85565b90509695505050505050565b7f5265656e7472616e637947756172643a207265656e7472616e742063616c6c00600082015250565b6000613559601f83612447565b915061356482613523565b602082019050919050565b600060208201905081810360008301526135888161354c565b9050919050565b7f4f776e61626c653a2063616c6c6572206973206e6f7420746865206f776e6572600082015250565b60006135c5602083612447565b91506135d08261358f565b602082019050919050565b600060208201905081810360008301526135f4816135b8565b905091905056fea2646970667358221220d2b4648a14acffc39766ecb86aa5cdd27c1e502ac0cf5b5ea0c6381eb1c846a464736f6c63430008130033",
  "linkReferences": {},
  "deployedLinkReferences": {}
}