{
  "_format": "hh-sol-artifact-1",
  "contractName": "Arpa3",
  "sourceName": "contracts/Arpa3.sol",
  "abi": [
    {
      "inputs": [
        {
          "internalType": "address",
          "name": "_rewardToken",
          "type": "address"
        }
      ],
      "stateMutability": "nonpayable",
      "type": "constructor"
    },
    {
      "anonymous": false,
      "inputs": [
        {
          "indexed": false,
          "internalType": "address",
          "name": "_address",
          "type": "address"
        },
        {
          "indexed": false,
          "internalType": "string",
          "name": "_description",
          "type": "string"
        }
      ],
      "name": "AddPrivilege",
      "type": "event"
    },
    {
      "anonymous": false,
      "inputs": [
        {
          "indexed": false,
          "internalType": "address",
          "name": "_address",
          "type": "address"
        },
        {
          "indexed": false,
          "internalType": "string",
          "name": "_name",
          "type": "string"
        },
        {
          "indexed": false,
          "internalType": "string",
          "name": "_firstname",
          "type": "string"
        }
      ],
      "name": "AddProfil",
      "type": "event"
    },
    {
      "anonymous": false,
      "inputs": [
        {
          "indexed": false,
          "internalType": "address",
          "name": "_address",
          "type": "address"
        },
        {
          "indexed": false,
          "internalType": "uint256",
          "name": "_amount",
          "type": "uint256"
        },
        {
          "indexed": false,
          "internalType": "uint256",
          "name": "_indexp",
          "type": "uint256"
        }
      ],
      "name": "BuyToken",
      "type": "event"
    },
    {
      "anonymous": false,
      "inputs": [
        {
          "indexed": false,
          "internalType": "uint256",
          "name": "_session",
          "type": "uint256"
        },
        {
          "indexed": false,
          "internalType": "address",
          "name": "_adresse",
          "type": "address"
        },
        {
          "indexed": false,
          "internalType": "uint256",
          "name": "_nbVote",
          "type": "uint256"
        }
      ],
      "name": "GetWinnerSession",
      "type": "event"
    },
    {
      "anonymous": false,
      "inputs": [
        {
          "indexed": false,
          "internalType": "address",
          "name": "_address",
          "type": "address"
        },
        {
          "indexed": false,
          "internalType": "uint256",
          "name": "_amount",
          "type": "uint256"
        }
      ],
      "name": "GetWinnerToken",
      "type": "event"
    },
    {
      "anonymous": false,
      "inputs": [
        {
          "indexed": false,
          "internalType": "uint256",
          "name": "_session",
          "type": "uint256"
        },
        {
          "indexed": false,
          "internalType": "address",
          "name": "_adresse",
          "type": "address"
        },
        {
          "indexed": false,
          "internalType": "string",
          "name": "motivation",
          "type": "string"
        }
      ],
      "name": "HistoricVote",
      "type": "event"
    },
    {
      "anonymous": false,
      "inputs": [
        {
          "indexed": true,
          "internalType": "address",
          "name": "previousOwner",
          "type": "address"
        },
        {
          "indexed": true,
          "internalType": "address",
          "name": "newOwner",
          "type": "address"
        }
      ],
      "name": "OwnershipTransferred",
      "type": "event"
    },
    {
      "stateMutability": "payable",
      "type": "fallback"
    },
    {
      "inputs": [
        {
          "internalType": "string",
          "name": "_description",
          "type": "string"
        }
      ],
      "name": "addPrivilege",
      "outputs": [],
      "stateMutability": "payable",
      "type": "function"
    },
    {
      "inputs": [
        {
          "internalType": "uint256",
          "name": "_idp",
          "type": "uint256"
        },
        {
          "internalType": "uint256",
          "name": "_amount",
          "type": "uint256"
        }
      ],
      "name": "addPrivilegePrice",
      "outputs": [],
      "stateMutability": "nonpayable",
      "type": "function"
    },
    {
      "inputs": [],
      "name": "amountpriv",
      "outputs": [
        {
          "internalType": "uint256",
          "name": "",
          "type": "uint256"
        }
      ],
      "stateMutability": "view",
      "type": "function"
    },
    {
      "inputs": [
        {
          "internalType": "uint256",
          "name": "_amount",
          "type": "uint256"
        }
      ],
      "name": "approveArpacoin",
      "outputs": [],
      "stateMutability": "nonpayable",
      "type": "function"
    },
    {
      "inputs": [],
      "name": "arpa3Token",
      "outputs": [
        {
          "internalType": "contract IERC20",
          "name": "",
          "type": "address"
        }
      ],
      "stateMutability": "view",
      "type": "function"
    },
    {
      "inputs": [
        {
          "internalType": "uint256",
          "name": "_indexp",
          "type": "uint256"
        },
        {
          "internalType": "uint256",
          "name": "_amount",
          "type": "uint256"
        }
      ],
      "name": "buyPrivilege",
      "outputs": [],
      "stateMutability": "nonpayable",
      "type": "function"
    },
    {
      "inputs": [],
      "name": "counter",
      "outputs": [
        {
          "internalType": "uint256",
          "name": "",
          "type": "uint256"
        }
      ],
      "stateMutability": "view",
      "type": "function"
    },
    {
      "inputs": [],
      "name": "getArpaTokenBalance",
      "outputs": [
        {
          "internalType": "uint256",
          "name": "",
          "type": "uint256"
        }
      ],
      "stateMutability": "view",
      "type": "function"
    },
    {
      "inputs": [],
      "name": "getBalanceSC",
      "outputs": [
        {
          "internalType": "uint256",
          "name": "",
          "type": "uint256"
        }
      ],
      "stateMutability": "view",
      "type": "function"
    },
    {
      "inputs": [],
      "name": "getMyBalanceDep",
      "outputs": [
        {
          "internalType": "uint256",
          "name": "",
          "type": "uint256"
        }
      ],
      "stateMutability": "view",
      "type": "function"
    },
    {
      "inputs": [],
      "name": "getMyEthBalance",
      "outputs": [
        {
          "internalType": "uint256",
          "name": "",
          "type": "uint256"
        }
      ],
      "stateMutability": "view",
      "type": "function"
    },
    {
      "inputs": [],
      "name": "getPrivilege",
      "outputs": [
        {
          "components": [
            {
              "internalType": "uint256",
              "name": "idP",
              "type": "uint256"
            },
            {
              "internalType": "uint256",
              "name": "amount",
              "type": "uint256"
            },
            {
              "internalType": "string",
              "name": "description",
              "type": "string"
            },
            {
              "internalType": "uint256",
              "name": "nbVote",
              "type": "uint256"
            },
            {
              "internalType": "bool",
              "name": "isActive",
              "type": "bool"
            }
          ],
          "internalType": "struct Arpa3.Privilege[]",
          "name": "",
          "type": "tuple[]"
        }
      ],
      "stateMutability": "view",
      "type": "function"
    },
    {
      "inputs": [],
      "name": "getProposal",
      "outputs": [
        {
          "components": [
            {
              "internalType": "address",
              "name": "addresse",
              "type": "address"
            },
            {
              "internalType": "string",
              "name": "name",
              "type": "string"
            },
            {
              "internalType": "string",
              "name": "firstname",
              "type": "string"
            },
            {
              "internalType": "string",
              "name": "service",
              "type": "string"
            },
            {
              "internalType": "uint256",
              "name": "nbvote",
              "type": "uint256"
            }
          ],
          "internalType": "struct Arpa3.Proposal[]",
          "name": "",
          "type": "tuple[]"
        }
      ],
      "stateMutability": "view",
      "type": "function"
    },
    {
      "inputs": [],
      "name": "getWinner",
      "outputs": [
        {
          "components": [
            {
              "internalType": "address",
              "name": "addresse",
              "type": "address"
            },
            {
              "internalType": "string",
              "name": "name",
              "type": "string"
            },
            {
              "internalType": "string",
              "name": "firstname",
              "type": "string"
            },
            {
              "internalType": "string",
              "name": "service",
              "type": "string"
            },
            {
              "internalType": "uint256",
              "name": "nbvote",
              "type": "uint256"
            }
          ],
          "internalType": "struct Arpa3.Proposal",
          "name": "",
          "type": "tuple"
        }
      ],
      "stateMutability": "view",
      "type": "function"
    },
    {
      "inputs": [],
      "name": "hasVoted",
      "outputs": [
        {
          "internalType": "bool",
          "name": "",
          "type": "bool"
        }
      ],
      "stateMutability": "view",
      "type": "function"
    },
    {
      "inputs": [
        {
          "internalType": "address",
          "name": "_address",
          "type": "address"
        }
      ],
      "name": "isAccountExist",
      "outputs": [
        {
          "internalType": "bool",
          "name": "",
          "type": "bool"
        }
      ],
      "stateMutability": "view",
      "type": "function"
    },
    {
      "inputs": [],
      "name": "number",
      "outputs": [
        {
          "internalType": "uint256",
          "name": "",
          "type": "uint256"
        }
      ],
      "stateMutability": "view",
      "type": "function"
    },
    {
      "inputs": [
        {
          "internalType": "uint256",
          "name": "",
          "type": "uint256"
        }
      ],
      "name": "ordersArray",
      "outputs": [
        {
          "internalType": "address",
          "name": "winnerAddress",
          "type": "address"
        },
        {
          "internalType": "uint256",
          "name": "privilegeID",
          "type": "uint256"
        },
        {
          "internalType": "string",
          "name": "descprivi",
          "type": "string"
        },
        {
          "internalType": "uint256",
          "name": "timestamprivi",
          "type": "uint256"
        },
        {
          "internalType": "uint256",
          "name": "amountprivi",
          "type": "uint256"
        },
        {
          "internalType": "bool",
          "name": "consoprivi",
          "type": "bool"
        }
      ],
      "stateMutability": "view",
      "type": "function"
    },
    {
      "inputs": [],
      "name": "owner",
      "outputs": [
        {
          "internalType": "address",
          "name": "",
          "type": "address"
        }
      ],
      "stateMutability": "view",
      "type": "function"
    },
    {
      "inputs": [
        {
          "internalType": "uint256",
          "name": "",
          "type": "uint256"
        }
      ],
      "name": "proposalArray",
      "outputs": [
        {
          "internalType": "address",
          "name": "addresse",
          "type": "address"
        },
        {
          "internalType": "string",
          "name": "name",
          "type": "string"
        },
        {
          "internalType": "string",
          "name": "firstname",
          "type": "string"
        },
        {
          "internalType": "string",
          "name": "service",
          "type": "string"
        },
        {
          "internalType": "uint256",
          "name": "nbvote",
          "type": "uint256"
        }
      ],
      "stateMutability": "view",
      "type": "function"
    },
    {
      "inputs": [],
      "name": "renounceOwnership",
      "outputs": [],
      "stateMutability": "nonpayable",
      "type": "function"
    },
    {
      "inputs": [],
      "name": "rewardAmount",
      "outputs": [
        {
          "internalType": "uint256",
          "name": "",
          "type": "uint256"
        }
      ],
      "stateMutability": "view",
      "type": "function"
    },
    {
      "inputs": [
        {
          "internalType": "string",
          "name": "_name",
          "type": "string"
        },
        {
          "internalType": "string",
          "name": "_firstname",
          "type": "string"
        },
        {
          "internalType": "string",
          "name": "_service",
          "type": "string"
        }
      ],
      "name": "setProfilAndProposal",
      "outputs": [],
      "stateMutability": "nonpayable",
      "type": "function"
    },
    {
      "inputs": [
        {
          "internalType": "uint256",
          "name": "_amount",
          "type": "uint256"
        }
      ],
      "name": "setRewardAmount",
      "outputs": [],
      "stateMutability": "nonpayable",
      "type": "function"
    },
    {
      "inputs": [
        {
          "internalType": "uint256",
          "name": "_id",
          "type": "uint256"
        },
        {
          "internalType": "string",
          "name": "_motivation",
          "type": "string"
        }
      ],
      "name": "setVote",
      "outputs": [],
      "stateMutability": "nonpayable",
      "type": "function"
    },
    {
      "inputs": [
        {
          "internalType": "enum Arpa3.WorkflowStatus",
          "name": "_step",
          "type": "uint8"
        }
      ],
      "name": "setWorkflowstatus",
      "outputs": [],
      "stateMutability": "nonpayable",
      "type": "function"
    },
    {
      "inputs": [],
      "name": "startVoteSession",
      "outputs": [],
      "stateMutability": "nonpayable",
      "type": "function"
    },
    {
      "inputs": [],
      "name": "stopVoteSession",
      "outputs": [],
      "stateMutability": "nonpayable",
      "type": "function"
    },
    {
      "inputs": [
        {
          "internalType": "address",
          "name": "newOwner",
          "type": "address"
        }
      ],
      "name": "transferOwnership",
      "outputs": [],
      "stateMutability": "nonpayable",
      "type": "function"
    },
    {
      "inputs": [
        {
          "internalType": "address",
          "name": "",
          "type": "address"
        }
      ],
      "name": "users",
      "outputs": [
        {
          "internalType": "string",
          "name": "name",
          "type": "string"
        },
        {
          "internalType": "string",
          "name": "firstname",
          "type": "string"
        },
        {
          "internalType": "uint256",
          "name": "nbVotePrivilege",
          "type": "uint256"
        },
        {
          "internalType": "bool",
          "name": "hasvoted",
          "type": "bool"
        },
        {
          "internalType": "bool",
          "name": "active",
          "type": "bool"
        }
      ],
      "stateMutability": "view",
      "type": "function"
    },
    {
      "inputs": [],
      "name": "votingSessionNumber",
      "outputs": [
        {
          "internalType": "uint256",
          "name": "",
          "type": "uint256"
        }
      ],
      "stateMutability": "view",
      "type": "function"
    },
    {
      "inputs": [],
      "name": "workflowstatus",
      "outputs": [
        {
          "internalType": "enum Arpa3.WorkflowStatus",
          "name": "",
          "type": "uint8"
        }
      ],
      "stateMutability": "view",
      "type": "function"
    },
    {
      "stateMutability": "payable",
      "type": "receive"
    }
  ],
  "bytecode": "0x60a06040526706f05b59d3b2000060055560056008553480156200002257600080fd5b50604051620047a2380380620047a28339818101604052810190620000489190620001e0565b620000686200005c620000aa60201b60201c565b620000b260201b60201c565b600180819055508073ffffffffffffffffffffffffffffffffffffffff1660808173ffffffffffffffffffffffffffffffffffffffff16815250505062000212565b600033905090565b60008060009054906101000a900473ffffffffffffffffffffffffffffffffffffffff169050816000806101000a81548173ffffffffffffffffffffffffffffffffffffffff021916908373ffffffffffffffffffffffffffffffffffffffff1602179055508173ffffffffffffffffffffffffffffffffffffffff168173ffffffffffffffffffffffffffffffffffffffff167f8be0079c531659141344cd1fd0a4f28419497f9722a3daafe3b4186f6b6457e060405160405180910390a35050565b600080fd5b600073ffffffffffffffffffffffffffffffffffffffff82169050919050565b6000620001a8826200017b565b9050919050565b620001ba816200019b565b8114620001c657600080fd5b50565b600081519050620001da81620001af565b92915050565b600060208284031215620001f957620001f862000176565b5b60006200020984828501620001c9565b91505092915050565b60805161454a62000258600039600081816108f001528181610e28015281816112a4015281816116aa01528181611e0701528181611f490152612977015261454a6000f3fe6080604052600436106101e75760003560e01c80638e7ea5b211610102578063b47e9d4011610095578063f2fde38b11610064578063f2fde38b146106a4578063f5ad3175146106cd578063f7b2a7be146106f6578063ffdf7cb114610721576101ee565b8063b47e9d4014610610578063b9e2bea014610627578063c366c56c14610652578063c6abda3c1461067b576101ee565b8063a8a65a78116100d1578063a8a65a7814610563578063a96c879e1461058c578063aaa98346146105ce578063b32c9356146105e5576101ee565b80638e7ea5b2146104a35780639867a103146104ce578063a730bfaf146104f9578063a87430ba14610522576101ee565b806342e3cf1e1161017a578063715018a611610149578063715018a61461040b5780637f47997e146104225780638381f58a1461044d5780638da5cb5b14610478576101ee565b806342e3cf1e1461035f57806358e7a5991461038a57806361bc221a146103b557806364821338146103e0576101ee565b80632d033284116101b65780632d033284146102ae5780633a19825d146102d95780633cfdf8021461031a5780633db42de714610336576101ee565b80630709dec8146101f057806314b4a4f91461021b5780631dbe22be146102585780631f21580d14610283576101ee565b366101ee57005b005b3480156101fc57600080fd5b5061020561074a565b6040516102129190612b54565b60405180910390f35b34801561022757600080fd5b50610242600480360381019061023d9190612bd7565b610769565b60405161024f9190612c1f565b60405180910390f35b34801561026457600080fd5b5061026d6107c2565b60405161027a9190612e20565b60405180910390f35b34801561028f57600080fd5b506102986108ec565b6040516102a59190612b54565b60405180910390f35b3480156102ba57600080fd5b506102c361098d565b6040516102d09190612b54565b60405180910390f35b3480156102e557600080fd5b5061030060048036038101906102fb9190612e6e565b610993565b604051610311959493929190612ef4565b60405180910390f35b610334600480360381019061032f9190612fc1565b610b91565b005b34801561034257600080fd5b5061035d60048036038101906103589190612e6e565b610e26565b005b34801561036b57600080fd5b50610374610edb565b6040516103819190612b54565b60405180910390f35b34801561039657600080fd5b5061039f610f22565b6040516103ac9190613085565b60405180910390f35b3480156103c157600080fd5b506103ca610f35565b6040516103d79190612b54565b60405180910390f35b3480156103ec57600080fd5b506103f5610f3b565b6040516104029190612c1f565b60405180910390f35b34801561041757600080fd5b50610420610f92565b005b34801561042e57600080fd5b50610437610fa6565b6040516104449190612b54565b60405180910390f35b34801561045957600080fd5b50610462610fac565b60405161046f9190612b54565b60405180910390f35b34801561048457600080fd5b5061048d610fb2565b60405161049a91906130a0565b60405180910390f35b3480156104af57600080fd5b506104b8610fdb565b6040516104c5919061314e565b60405180910390f35b3480156104da57600080fd5b506104e36112a2565b6040516104f091906131cf565b60405180910390f35b34801561050557600080fd5b50610520600480360381019061051b91906131ea565b6112c6565b005b34801561052e57600080fd5b5061054960048036038101906105449190612bd7565b6112fc565b60405161055a95949392919061322a565b60405180910390f35b34801561056f57600080fd5b5061058a60048036038101906105859190612e6e565b61145c565b005b34801561059857600080fd5b506105b360048036038101906105ae9190612e6e565b61146e565b6040516105c59695949392919061328b565b60405180910390f35b3480156105da57600080fd5b506105e361156f565b005b3480156105f157600080fd5b506105fa6116a6565b6040516106079190612b54565b60405180910390f35b34801561061c57600080fd5b50610625611747565b005b34801561063357600080fd5b5061063c6117cc565b6040516106499190613439565b60405180910390f35b34801561065e57600080fd5b506106796004803603810190610674919061345b565b611a41565b005b34801561068757600080fd5b506106a2600480360381019061069d91906134e0565b611d09565b005b3480156106b057600080fd5b506106cb60048036038101906106c69190612bd7565b611d3e565b005b3480156106d957600080fd5b506106f460048036038101906106ef91906131ea565b611dc1565b005b34801561070257600080fd5b5061070b6121b1565b6040516107189190612b54565b60405180910390f35b34801561072d57600080fd5b506107486004803603810190610743919061350d565b6121b7565b005b60003373ffffffffffffffffffffffffffffffffffffffff1631905090565b6000600c60008373ffffffffffffffffffffffffffffffffffffffff1673ffffffffffffffffffffffffffffffffffffffff16815260200190815260200160002060030160019054906101000a900460ff169050919050565b60606009805480602002602001604051908101604052809291908181526020016000905b828210156108e357838290600052602060002090600502016040518060a0016040529081600082015481526020016001820154815260200160028201805461082d906135f0565b80601f0160208091040260200160405190810160405280929190818152602001828054610859906135f0565b80156108a65780601f1061087b576101008083540402835291602001916108a6565b820191906000526020600020905b81548152906001019060200180831161088957829003601f168201915b50505050508152602001600382015481526020016004820160009054906101000a900460ff161515151581525050815260200190600101906107e6565b50505050905090565b60007f000000000000000000000000000000000000000000000000000000000000000073ffffffffffffffffffffffffffffffffffffffff166370a08231336040518263ffffffff1660e01b815260040161094791906130a0565b602060405180830381865afa158015610964573d6000803e3d6000fd5b505050506040513d601f19601f820116820180604052508101906109889190613636565b905090565b60055481565b600a81815481106109a357600080fd5b90600052602060002090600502016000915090508060000160009054906101000a900473ffffffffffffffffffffffffffffffffffffffff16908060010180546109ec906135f0565b80601f0160208091040260200160405190810160405280929190818152602001828054610a18906135f0565b8015610a655780601f10610a3a57610100808354040283529160200191610a65565b820191906000526020600020905b815481529060010190602001808311610a4857829003601f168201915b505050505090806002018054610a7a906135f0565b80601f0160208091040260200160405190810160405280929190818152602001828054610aa6906135f0565b8015610af35780601f10610ac857610100808354040283529160200191610af3565b820191906000526020600020905b815481529060010190602001808311610ad657829003601f168201915b505050505090806003018054610b08906135f0565b80601f0160208091040260200160405190810160405280929190818152602001828054610b34906135f0565b8015610b815780601f10610b5657610100808354040283529160200191610b81565b820191906000526020600020905b815481529060010190602001808311610b6457829003601f168201915b5050505050908060040154905085565b610b996126af565b60011515600c60003373ffffffffffffffffffffffffffffffffffffffff1673ffffffffffffffffffffffffffffffffffffffff16815260200190815260200160002060030160019054906101000a900460ff16151514610c2f576040517f08c379a0000000000000000000000000000000000000000000000000000000008152600401610c26906136af565b60405180910390fd5b6005543414610c73576040517f08c379a0000000000000000000000000000000000000000000000000000000008152600401610c6a9061371b565b60405180910390fd5b610c7b612a77565b600354816000018181525050600081602001818152505082828080601f016020809104026020016040519081016040528093929190818152602001838380828437600081840152601f19601f8201169050808301925050505050505081604001819052506000816080019015159081151581525050600981908060018154018082558091505060019003906000526020600020906005020160009091909190915060008201518160000155602082015181600101556040820151816002019081610d45919061390c565b506060820151816003015560808201518160040160006101000a81548160ff021916908315150217905550505034600d60003373ffffffffffffffffffffffffffffffffffffffff1673ffffffffffffffffffffffffffffffffffffffff1681526020019081526020016000206000828254610dc19190613a0d565b92505081905550600360008154610dd790613a41565b919050819055507f79b4967f952c2e2a563ed6ece6722a54e83844ba5ab08f9f5cdaaf27560125de338484604051610e1193929190613ac5565b60405180910390a150610e226126fe565b5050565b7f000000000000000000000000000000000000000000000000000000000000000073ffffffffffffffffffffffffffffffffffffffff1663095ea7b333670de0b6b3a764000084610e779190613af7565b6040518363ffffffff1660e01b8152600401610e94929190613b39565b6020604051808303816000875af1158015610eb3573d6000803e3d6000fd5b505050506040513d601f19601f82011682018060405250810190610ed79190613b8e565b5050565b6000600d60003373ffffffffffffffffffffffffffffffffffffffff1673ffffffffffffffffffffffffffffffffffffffff16815260200190815260200160002054905090565b600260009054906101000a900460ff1681565b60035481565b6000600c60003373ffffffffffffffffffffffffffffffffffffffff1673ffffffffffffffffffffffffffffffffffffffff16815260200190815260200160002060030160009054906101000a900460ff16905090565b610f9a612707565b610fa46000612785565b565b60065481565b60045481565b60008060009054906101000a900473ffffffffffffffffffffffffffffffffffffffff16905090565b610fe3612aa8565b600380811115610ff657610ff561300e565b5b600260009054906101000a900460ff1660038111156110185761101761300e565b5b14611058576040517f08c379a000000000000000000000000000000000000000000000000000000000815260040161104f90613c07565b60405180910390fd5b600a6007548154811061106e5761106d613c27565b5b90600052602060002090600502016040518060a00160405290816000820160009054906101000a900473ffffffffffffffffffffffffffffffffffffffff1673ffffffffffffffffffffffffffffffffffffffff1673ffffffffffffffffffffffffffffffffffffffff1681526020016001820180546110ed906135f0565b80601f0160208091040260200160405190810160405280929190818152602001828054611119906135f0565b80156111665780601f1061113b57610100808354040283529160200191611166565b820191906000526020600020905b81548152906001019060200180831161114957829003601f168201915b5050505050815260200160028201805461117f906135f0565b80601f01602080910402602001604051908101604052809291908181526020018280546111ab906135f0565b80156111f85780601f106111cd576101008083540402835291602001916111f8565b820191906000526020600020905b8154815290600101906020018083116111db57829003601f168201915b50505050508152602001600382018054611211906135f0565b80601f016020809104026020016040519081016040528092919081815260200182805461123d906135f0565b801561128a5780601f1061125f5761010080835404028352916020019161128a565b820191906000526020600020905b81548152906001019060200180831161126d57829003601f168201915b50505050508152602001600482015481525050905090565b7f000000000000000000000000000000000000000000000000000000000000000081565b6112ce612707565b80600983815481106112e3576112e2613c27565b5b9060005260206000209060050201600101819055505050565b600c60205280600052604060002060009150905080600001805461131f906135f0565b80601f016020809104026020016040519081016040528092919081815260200182805461134b906135f0565b80156113985780601f1061136d57610100808354040283529160200191611398565b820191906000526020600020905b81548152906001019060200180831161137b57829003601f168201915b5050505050908060010180546113ad906135f0565b80601f01602080910402602001604051908101604052809291908181526020018280546113d9906135f0565b80156114265780601f106113fb57610100808354040283529160200191611426565b820191906000526020600020905b81548152906001019060200180831161140957829003601f168201915b5050505050908060020154908060030160009054906101000a900460ff16908060030160019054906101000a900460ff16905085565b611464612707565b8060088190555050565b600b818154811061147e57600080fd5b90600052602060002090600602016000915090508060000160009054906101000a900473ffffffffffffffffffffffffffffffffffffffff16908060010154908060020180546114cd906135f0565b80601f01602080910402602001604051908101604052809291908181526020018280546114f9906135f0565b80156115465780601f1061151b57610100808354040283529160200191611546565b820191906000526020600020905b81548152906001019060200180831161152957829003601f168201915b5050505050908060030154908060040154908060050160009054906101000a900460ff16905086565b611577612707565b60066000815461158690613a41565b9190508190555060028060006101000a81548160ff021916908360038111156115b2576115b161300e565b5b021790555060005b600a805490508110156116a3576000600a82815481106115dd576115dc613c27565b5b9060005260206000209060050201600401819055506000600c6000600a848154811061160c5761160b613c27565b5b906000526020600020906005020160000160009054906101000a900473ffffffffffffffffffffffffffffffffffffffff1673ffffffffffffffffffffffffffffffffffffffff1673ffffffffffffffffffffffffffffffffffffffff16815260200190815260200160002060030160006101000a81548160ff0219169083151502179055508061169c90613a41565b90506115ba565b50565b60007f000000000000000000000000000000000000000000000000000000000000000073ffffffffffffffffffffffffffffffffffffffff166370a08231306040518263ffffffff1660e01b815260040161170191906130a0565b602060405180830381865afa15801561171e573d6000803e3d6000fd5b505050506040513d601f19601f820116820180604052508101906117429190613636565b905090565b61174f612707565b6003600260006101000a81548160ff021916908360038111156117755761177461300e565b5b02179055506117ca600a6007548154811061179357611792613c27565b5b906000526020600020906005020160000160009054906101000a900473ffffffffffffffffffffffffffffffffffffffff16612849565b565b6060600a805480602002602001604051908101604052809291908181526020016000905b82821015611a3857838290600052602060002090600502016040518060a00160405290816000820160009054906101000a900473ffffffffffffffffffffffffffffffffffffffff1673ffffffffffffffffffffffffffffffffffffffff1673ffffffffffffffffffffffffffffffffffffffff168152602001600182018054611879906135f0565b80601f01602080910402602001604051908101604052809291908181526020018280546118a5906135f0565b80156118f25780601f106118c7576101008083540402835291602001916118f2565b820191906000526020600020905b8154815290600101906020018083116118d557829003601f168201915b5050505050815260200160028201805461190b906135f0565b80601f0160208091040260200160405190810160405280929190818152602001828054611937906135f0565b80156119845780601f1061195957610100808354040283529160200191611984565b820191906000526020600020905b81548152906001019060200180831161196757829003601f168201915b5050505050815260200160038201805461199d906135f0565b80601f01602080910402602001604051908101604052809291908181526020018280546119c9906135f0565b8015611a165780601f106119eb57610100808354040283529160200191611a16565b820191906000526020600020905b8154815290600101906020018083116119f957829003601f168201915b50505050508152602001600482015481525050815260200190600101906117f0565b50505050905090565b60026003811115611a5557611a5461300e565b5b600260009054906101000a900460ff166003811115611a7757611a7661300e565b5b14611ab7576040517f08c379a0000000000000000000000000000000000000000000000000000000008152600401611aae90613cc8565b60405180910390fd5b600c60003373ffffffffffffffffffffffffffffffffffffffff1673ffffffffffffffffffffffffffffffffffffffff16815260200190815260200160002060030160009054906101000a900460ff1615611b47576040517f08c379a0000000000000000000000000000000000000000000000000000000008152600401611b3e90613d34565b60405180910390fd5b600a805490508310611b8e576040517f08c379a0000000000000000000000000000000000000000000000000000000008152600401611b8590613da0565b60405180910390fd5b6001600c60003373ffffffffffffffffffffffffffffffffffffffff1673ffffffffffffffffffffffffffffffffffffffff16815260200190815260200160002060030160006101000a81548160ff021916908315150217905550600a8381548110611bfd57611bfc613c27565b5b90600052602060002090600502016004016000815480929190611c1f90613a41565b9190505550600a60075481548110611c3a57611c39613c27565b5b906000526020600020906005020160040154600a8481548110611c6057611c5f613c27565b5b9060005260206000209060050201600401541115611c8057826007819055505b7f9a4b1974a303b6b8937c2f2186a95dc8466a1b5f12f3908d04c7e4afc0079bd9600654600a8581548110611cb857611cb7613c27565b5b906000526020600020906005020160000160009054906101000a900473ffffffffffffffffffffffffffffffffffffffff168484604051611cfc9493929190613dc0565b60405180910390a1505050565b611d11612707565b80600260006101000a81548160ff02191690836003811115611d3657611d3561300e565b5b021790555050565b611d46612707565b600073ffffffffffffffffffffffffffffffffffffffff168173ffffffffffffffffffffffffffffffffffffffff1603611db5576040517f08c379a0000000000000000000000000000000000000000000000000000000008152600401611dac90613e72565b60405180910390fd5b611dbe81612785565b50565b60008111611e04576040517f08c379a0000000000000000000000000000000000000000000000000000000008152600401611dfb90613ede565b60405180910390fd5b807f000000000000000000000000000000000000000000000000000000000000000073ffffffffffffffffffffffffffffffffffffffff166370a08231336040518263ffffffff1660e01b8152600401611e5e91906130a0565b602060405180830381865afa158015611e7b573d6000803e3d6000fd5b505050506040513d601f19601f82011682018060405250810190611e9f9190613636565b1015611ee0576040517f08c379a0000000000000000000000000000000000000000000000000000000008152600401611ed790613f70565b60405180910390fd5b8060098381548110611ef557611ef4613c27565b5b90600052602060002090600502016001015414611f47576040517f08c379a0000000000000000000000000000000000000000000000000000000008152600401611f3e90613fdc565b60405180910390fd5b7f000000000000000000000000000000000000000000000000000000000000000073ffffffffffffffffffffffffffffffffffffffff166323b872dd3330670de0b6b3a764000085611f999190613af7565b6040518463ffffffff1660e01b8152600401611fb793929190613ffc565b6020604051808303816000875af1158015611fd6573d6000803e3d6000fd5b505050506040513d601f19601f82011682018060405250810190611ffa9190613b8e565b612039576040517f08c379a00000000000000000000000000000000000000000000000000000000081526004016120309061407f565b60405180910390fd5b612041612aed565b33816000019073ffffffffffffffffffffffffffffffffffffffff16908173ffffffffffffffffffffffffffffffffffffffff168152505082816020018181525050428160600181815250508181608001818152505060008160a0019015159081151581525050600b81908060018154018082558091505060019003906000526020600020906006020160009091909190915060008201518160000160006101000a81548173ffffffffffffffffffffffffffffffffffffffff021916908373ffffffffffffffffffffffffffffffffffffffff16021790555060208201518160010155604082015181600201908161213a919061390c565b50606082015181600301556080820151816004015560a08201518160050160006101000a81548160ff02191690831515021790555050507ff6f342132c7de5e5a1e99c8efae544c94731f3ff093f5c3c97c6973d9415cdfb3383856040516121a49392919061409f565b60405180910390a1505050565b60085481565b600073ffffffffffffffffffffffffffffffffffffffff163373ffffffffffffffffffffffffffffffffffffffff1603612226576040517f08c379a000000000000000000000000000000000000000000000000000000000815260040161221d90614122565b60405180910390fd5b600c60003373ffffffffffffffffffffffffffffffffffffffff1673ffffffffffffffffffffffffffffffffffffffff16815260200190815260200160002060030160019054906101000a900460ff16156122b6576040517f08c379a00000000000000000000000000000000000000000000000000000000081526004016122ad9061418e565b60405180910390fd5b6000868690501180156122cc5750600084849050115b80156122db5750600082829050115b61231a576040517f08c379a0000000000000000000000000000000000000000000000000000000008152600401612311906141fa565b60405180910390fd5b8585600c60003373ffffffffffffffffffffffffffffffffffffffff1673ffffffffffffffffffffffffffffffffffffffff168152602001908152602001600020600001918261236b929190614225565b508383600c60003373ffffffffffffffffffffffffffffffffffffffff1673ffffffffffffffffffffffffffffffffffffffff16815260200190815260200160002060010191826123bd929190614225565b506000600c60003373ffffffffffffffffffffffffffffffffffffffff1673ffffffffffffffffffffffffffffffffffffffff16815260200190815260200160002060030160006101000a81548160ff0219169083151502179055506001600c60003373ffffffffffffffffffffffffffffffffffffffff1673ffffffffffffffffffffffffffffffffffffffff16815260200190815260200160002060030160016101000a81548160ff02191690831515021790555061247c612aa8565b33816000019073ffffffffffffffffffffffffffffffffffffffff16908173ffffffffffffffffffffffffffffffffffffffff168152505086868080601f016020809104026020016040519081016040528093929190818152602001838380828437600081840152601f19601f82011690508083019250505050505050816020018190525084848080601f016020809104026020016040519081016040528093929190818152602001838380828437600081840152601f19601f82011690508083019250505050505050816040018190525082828080601f016020809104026020016040519081016040528093929190818152602001838380828437600081840152601f19601f8201169050808301925050505050505081606001819052506000816080018181525050600a81908060018154018082558091505060019003906000526020600020906005020160009091909190915060008201518160000160006101000a81548173ffffffffffffffffffffffffffffffffffffffff021916908373ffffffffffffffffffffffffffffffffffffffff160217905550602082015181600101908161262e919061390c565b506040820151816002019081612644919061390c565b50606082015181600301908161265a919061390c565b506080820151816004015550507fdb662c8b79ccb9909891c358aec9651e782d0ad9523566bd659c084b5fefcec7338888888860405161269e9594939291906142f5565b60405180910390a150505050505050565b6002600154036126f4576040517f08c379a00000000000000000000000000000000000000000000000000000000081526004016126eb9061438a565b60405180910390fd5b6002600181905550565b60018081905550565b61270f612a6f565b73ffffffffffffffffffffffffffffffffffffffff1661272d610fb2565b73ffffffffffffffffffffffffffffffffffffffff1614612783576040517f08c379a000000000000000000000000000000000000000000000000000000000815260040161277a906143f6565b60405180910390fd5b565b60008060009054906101000a900473ffffffffffffffffffffffffffffffffffffffff169050816000806101000a81548173ffffffffffffffffffffffffffffffffffffffff021916908373ffffffffffffffffffffffffffffffffffffffff1602179055508173ffffffffffffffffffffffffffffffffffffffff168173ffffffffffffffffffffffffffffffffffffffff167f8be0079c531659141344cd1fd0a4f28419497f9722a3daafe3b4186f6b6457e060405160405180910390a35050565b6128516126af565b600073ffffffffffffffffffffffffffffffffffffffff168173ffffffffffffffffffffffffffffffffffffffff16036128c0576040517f08c379a00000000000000000000000000000000000000000000000000000000081526004016128b790614462565b60405180910390fd5b8073ffffffffffffffffffffffffffffffffffffffff16600a600754815481106128ed576128ec613c27565b5b906000526020600020906005020160000160009054906101000a900473ffffffffffffffffffffffffffffffffffffffff1673ffffffffffffffffffffffffffffffffffffffff1614612975576040517f08c379a000000000000000000000000000000000000000000000000000000000815260040161296c906144f4565b60405180910390fd5b7f000000000000000000000000000000000000000000000000000000000000000073ffffffffffffffffffffffffffffffffffffffff1663a9059cbb82670de0b6b3a76400006008546129c89190613af7565b6040518363ffffffff1660e01b81526004016129e5929190613b39565b6020604051808303816000875af1158015612a04573d6000803e3d6000fd5b505050506040513d601f19601f82011682018060405250810190612a289190613b8e565b507f2e06e81581e774f145d32b1feac204fb2683499d425091cb4fcfc137726008c281600854604051612a5c929190613b39565b60405180910390a1612a6c6126fe565b50565b600033905090565b6040518060a00160405280600081526020016000815260200160608152602001600081526020016000151581525090565b6040518060a00160405280600073ffffffffffffffffffffffffffffffffffffffff168152602001606081526020016060815260200160608152602001600081525090565b6040518060c00160405280600073ffffffffffffffffffffffffffffffffffffffff168152602001600081526020016060815260200160008152602001600081526020016000151581525090565b6000819050919050565b612b4e81612b3b565b82525050565b6000602082019050612b696000830184612b45565b92915050565b600080fd5b600080fd5b600073ffffffffffffffffffffffffffffffffffffffff82169050919050565b6000612ba482612b79565b9050919050565b612bb481612b99565b8114612bbf57600080fd5b50565b600081359050612bd181612bab565b92915050565b600060208284031215612bed57612bec612b6f565b5b6000612bfb84828501612bc2565b91505092915050565b60008115159050919050565b612c1981612c04565b82525050565b6000602082019050612c346000830184612c10565b92915050565b600081519050919050565b600082825260208201905092915050565b6000819050602082019050919050565b612c6f81612b3b565b82525050565b600081519050919050565b600082825260208201905092915050565b60005b83811015612caf578082015181840152602081019050612c94565b60008484015250505050565b6000601f19601f8301169050919050565b6000612cd782612c75565b612ce18185612c80565b9350612cf1818560208601612c91565b612cfa81612cbb565b840191505092915050565b612d0e81612c04565b82525050565b600060a083016000830151612d2c6000860182612c66565b506020830151612d3f6020860182612c66565b5060408301518482036040860152612d578282612ccc565b9150506060830151612d6c6060860182612c66565b506080830151612d7f6080860182612d05565b508091505092915050565b6000612d968383612d14565b905092915050565b6000602082019050919050565b6000612db682612c3a565b612dc08185612c45565b935083602082028501612dd285612c56565b8060005b85811015612e0e5784840389528151612def8582612d8a565b9450612dfa83612d9e565b925060208a01995050600181019050612dd6565b50829750879550505050505092915050565b60006020820190508181036000830152612e3a8184612dab565b905092915050565b612e4b81612b3b565b8114612e5657600080fd5b50565b600081359050612e6881612e42565b92915050565b600060208284031215612e8457612e83612b6f565b5b6000612e9284828501612e59565b91505092915050565b612ea481612b99565b82525050565b600082825260208201905092915050565b6000612ec682612c75565b612ed08185612eaa565b9350612ee0818560208601612c91565b612ee981612cbb565b840191505092915050565b600060a082019050612f096000830188612e9b565b8181036020830152612f1b8187612ebb565b90508181036040830152612f2f8186612ebb565b90508181036060830152612f438185612ebb565b9050612f526080830184612b45565b9695505050505050565b600080fd5b600080fd5b600080fd5b60008083601f840112612f8157612f80612f5c565b5b8235905067ffffffffffffffff811115612f9e57612f9d612f61565b5b602083019150836001820283011115612fba57612fb9612f66565b5b9250929050565b60008060208385031215612fd857612fd7612b6f565b5b600083013567ffffffffffffffff811115612ff657612ff5612b74565b5b61300285828601612f6b565b92509250509250929050565b7f4e487b7100000000000000000000000000000000000000000000000000000000600052602160045260246000fd5b6004811061304e5761304d61300e565b5b50565b600081905061305f8261303d565b919050565b600061306f82613051565b9050919050565b61307f81613064565b82525050565b600060208201905061309a6000830184613076565b92915050565b60006020820190506130b56000830184612e9b565b92915050565b6130c481612b99565b82525050565b600060a0830160008301516130e260008601826130bb565b50602083015184820360208601526130fa8282612ccc565b915050604083015184820360408601526131148282612ccc565b9150506060830151848203606086015261312e8282612ccc565b91505060808301516131436080860182612c66565b508091505092915050565b6000602082019050818103600083015261316881846130ca565b905092915050565b6000819050919050565b600061319561319061318b84612b79565b613170565b612b79565b9050919050565b60006131a78261317a565b9050919050565b60006131b98261319c565b9050919050565b6131c9816131ae565b82525050565b60006020820190506131e460008301846131c0565b92915050565b6000806040838503121561320157613200612b6f565b5b600061320f85828601612e59565b925050602061322085828601612e59565b9150509250929050565b600060a08201905081810360008301526132448188612ebb565b905081810360208301526132588187612ebb565b90506132676040830186612b45565b6132746060830185612c10565b6132816080830184612c10565b9695505050505050565b600060c0820190506132a06000830189612e9b565b6132ad6020830188612b45565b81810360408301526132bf8187612ebb565b90506132ce6060830186612b45565b6132db6080830185612b45565b6132e860a0830184612c10565b979650505050505050565b600081519050919050565b600082825260208201905092915050565b6000819050602082019050919050565b600060a08301600083015161333760008601826130bb565b506020830151848203602086015261334f8282612ccc565b915050604083015184820360408601526133698282612ccc565b915050606083015184820360608601526133838282612ccc565b91505060808301516133986080860182612c66565b508091505092915050565b60006133af838361331f565b905092915050565b6000602082019050919050565b60006133cf826132f3565b6133d981856132fe565b9350836020820285016133eb8561330f565b8060005b85811015613427578484038952815161340885826133a3565b9450613413836133b7565b925060208a019950506001810190506133ef565b50829750879550505050505092915050565b6000602082019050818103600083015261345381846133c4565b905092915050565b60008060006040848603121561347457613473612b6f565b5b600061348286828701612e59565b935050602084013567ffffffffffffffff8111156134a3576134a2612b74565b5b6134af86828701612f6b565b92509250509250925092565b600481106134c857600080fd5b50565b6000813590506134da816134bb565b92915050565b6000602082840312156134f6576134f5612b6f565b5b6000613504848285016134cb565b91505092915050565b6000806000806000806060878903121561352a57613529612b6f565b5b600087013567ffffffffffffffff81111561354857613547612b74565b5b61355489828a01612f6b565b9650965050602087013567ffffffffffffffff81111561357757613576612b74565b5b61358389828a01612f6b565b9450945050604087013567ffffffffffffffff8111156135a6576135a5612b74565b5b6135b289828a01612f6b565b92509250509295509295509295565b7f4e487b7100000000000000000000000000000000000000000000000000000000600052602260045260246000fd5b6000600282049050600182168061360857607f821691505b60208210810361361b5761361a6135c1565b5b50919050565b60008151905061363081612e42565b92915050565b60006020828403121561364c5761364b612b6f565b5b600061365a84828501613621565b91505092915050565b7f55736572206e6f74207265636f72646564000000000000000000000000000000600082015250565b6000613699601183612eaa565b91506136a482613663565b602082019050919050565b600060208201905081810360008301526136c88161368c565b9050919050565b7f496e636f727265637420616d6f756e7400000000000000000000000000000000600082015250565b6000613705601083612eaa565b9150613710826136cf565b602082019050919050565b60006020820190508181036000830152613734816136f8565b9050919050565b7f4e487b7100000000000000000000000000000000000000000000000000000000600052604160045260246000fd5b60008190508160005260206000209050919050565b60006020601f8301049050919050565b600082821b905092915050565b6000600883026137cc7fffffffffffffffffffffffffffffffffffffffffffffffffffffffffffffffff8261378f565b6137d6868361378f565b95508019841693508086168417925050509392505050565b60006138096138046137ff84612b3b565b613170565b612b3b565b9050919050565b6000819050919050565b613823836137ee565b61383761382f82613810565b84845461379c565b825550505050565b600090565b61384c61383f565b61385781848461381a565b505050565b5b8181101561387b57613870600082613844565b60018101905061385d565b5050565b601f8211156138c0576138918161376a565b61389a8461377f565b810160208510156138a9578190505b6138bd6138b58561377f565b83018261385c565b50505b505050565b600082821c905092915050565b60006138e3600019846008026138c5565b1980831691505092915050565b60006138fc83836138d2565b9150826002028217905092915050565b61391582612c75565b67ffffffffffffffff81111561392e5761392d61373b565b5b61393882546135f0565b61394382828561387f565b600060209050601f8311600181146139765760008415613964578287015190505b61396e85826138f0565b8655506139d6565b601f1984166139848661376a565b60005b828110156139ac57848901518255600182019150602085019450602081019050613987565b868310156139c957848901516139c5601f8916826138d2565b8355505b6001600288020188555050505b505050505050565b7f4e487b7100000000000000000000000000000000000000000000000000000000600052601160045260246000fd5b6000613a1882612b3b565b9150613a2383612b3b565b9250828201905080821115613a3b57613a3a6139de565b5b92915050565b6000613a4c82612b3b565b91507fffffffffffffffffffffffffffffffffffffffffffffffffffffffffffffffff8203613a7e57613a7d6139de565b5b600182019050919050565b82818337600083830152505050565b6000613aa48385612eaa565b9350613ab1838584613a89565b613aba83612cbb565b840190509392505050565b6000604082019050613ada6000830186612e9b565b8181036020830152613aed818486613a98565b9050949350505050565b6000613b0282612b3b565b9150613b0d83612b3b565b9250828202613b1b81612b3b565b91508282048414831517613b3257613b316139de565b5b5092915050565b6000604082019050613b4e6000830185612e9b565b613b5b6020830184612b45565b9392505050565b613b6b81612c04565b8114613b7657600080fd5b50565b600081519050613b8881613b62565b92915050565b600060208284031215613ba457613ba3612b6f565b5b6000613bb284828501613b79565b91505092915050565b7f53657373696f6e20566f7465206e6f7420636c6f736564000000000000000000600082015250565b6000613bf1601783612eaa565b9150613bfc82613bbb565b602082019050919050565b60006020820190508181036000830152613c2081613be4565b9050919050565b7f4e487b7100000000000000000000000000000000000000000000000000000000600052603260045260246000fd5b7f566f74696e672073657373696f6e20686176656e74207374617274656420796560008201527f7400000000000000000000000000000000000000000000000000000000000000602082015250565b6000613cb2602183612eaa565b9150613cbd82613c56565b604082019050919050565b60006020820190508181036000830152613ce181613ca5565b9050919050565b7f596f75206861766520616c726561647920766f74656400000000000000000000600082015250565b6000613d1e601683612eaa565b9150613d2982613ce8565b602082019050919050565b60006020820190508181036000830152613d4d81613d11565b9050919050565b7f50726f706f73616c206e6f7420666f756e640000000000000000000000000000600082015250565b6000613d8a601283612eaa565b9150613d9582613d54565b602082019050919050565b60006020820190508181036000830152613db981613d7d565b9050919050565b6000606082019050613dd56000830187612b45565b613de26020830186612e9b565b8181036040830152613df5818486613a98565b905095945050505050565b7f4f776e61626c653a206e6577206f776e657220697320746865207a65726f206160008201527f6464726573730000000000000000000000000000000000000000000000000000602082015250565b6000613e5c602683612eaa565b9150613e6782613e00565b604082019050919050565b60006020820190508181036000830152613e8b81613e4f565b9050919050565b7f4e6f7420636f7272656374207072696365000000000000000000000000000000600082015250565b6000613ec8601183612eaa565b9150613ed382613e92565b602082019050919050565b60006020820190508181036000830152613ef781613ebb565b9050919050565b7f4e6f7420656e6f756768742066756e647320746f20627579207468697320707260008201527f6976696c65676500000000000000000000000000000000000000000000000000602082015250565b6000613f5a602783612eaa565b9150613f6582613efe565b604082019050919050565b60006020820190508181036000830152613f8981613f4d565b9050919050565b7f5065746974206d616c696e207661202e2e2e0000000000000000000000000000600082015250565b6000613fc6601283612eaa565b9150613fd182613f90565b602082019050919050565b60006020820190508181036000830152613ff581613fb9565b9050919050565b60006060820190506140116000830186612e9b565b61401e6020830185612e9b565b61402b6040830184612b45565b949350505050565b7f5472616e73666572206572726575720000000000000000000000000000000000600082015250565b6000614069600f83612eaa565b915061407482614033565b602082019050919050565b600060208201905081810360008301526140988161405c565b9050919050565b60006060820190506140b46000830186612e9b565b6140c16020830185612b45565b6140ce6040830184612b45565b949350505050565b7f6e6f7420636f6e6e656374656400000000000000000000000000000000000000600082015250565b600061410c600d83612eaa565b9150614117826140d6565b602082019050919050565b6000602082019050818103600083015261413b816140ff565b9050919050565b7f4163636f756e7420616c72656164792045786973740000000000000000000000600082015250565b6000614178601583612eaa565b915061418382614142565b602082019050919050565b600060208201905081810360008301526141a78161416b565b9050919050565b7f56616c7565206e6f7420656d7074790000000000000000000000000000000000600082015250565b60006141e4600f83612eaa565b91506141ef826141ae565b602082019050919050565b60006020820190508181036000830152614213816141d7565b9050919050565b600082905092915050565b61422f838361421a565b67ffffffffffffffff8111156142485761424761373b565b5b61425282546135f0565b61425d82828561387f565b6000601f83116001811461428c576000841561427a578287013590505b61428485826138f0565b8655506142ec565b601f19841661429a8661376a565b60005b828110156142c25784890135825560018201915060208501945060208101905061429d565b868310156142df57848901356142db601f8916826138d2565b8355505b6001600288020188555050505b50505050505050565b600060608201905061430a6000830188612e9b565b818103602083015261431d818688613a98565b90508181036040830152614332818486613a98565b90509695505050505050565b7f5265656e7472616e637947756172643a207265656e7472616e742063616c6c00600082015250565b6000614374601f83612eaa565b915061437f8261433e565b602082019050919050565b600060208201905081810360008301526143a381614367565b9050919050565b7f4f776e61626c653a2063616c6c6572206973206e6f7420746865206f776e6572600082015250565b60006143e0602083612eaa565b91506143eb826143aa565b602082019050919050565b6000602082019050818103600083015261440f816143d3565b9050919050565b7f6e6f742076616c6964206163636f756e74000000000000000000000000000000600082015250565b600061444c601183612eaa565b915061445782614416565b602082019050919050565b6000602082019050818103600083015261447b8161443f565b9050919050565b7f596f7520617265206e6f74207468652057696e6e65722053657373696f6e207660008201527f6f74650000000000000000000000000000000000000000000000000000000000602082015250565b60006144de602383612eaa565b91506144e982614482565b604082019050919050565b6000602082019050818103600083015261450d816144d1565b905091905056fea2646970667358221220735ca7c2bc969d6892a64c9aad4a3458bbac389bab61aa67642a701a9e0b443764736f6c63430008130033",
  "linkReferences": {},
  "deployedLinkReferences": {}
}