{
  "_format": "hh-sol-artifact-1",
  "contractName": "Arpa3",
  "sourceName": "contracts/Arpa3.sol",
  "abi": [
    {
      "inputs": [
        {
          "internalType": "address",
          "name": "_rewardToken",
          "type": "address"
        }
      ],
      "stateMutability": "nonpayable",
      "type": "constructor"
    },
    {
      "anonymous": false,
      "inputs": [
        {
          "indexed": false,
          "internalType": "address",
          "name": "_address",
          "type": "address"
        },
        {
          "indexed": false,
          "internalType": "string",
          "name": "_description",
          "type": "string"
        }
      ],
      "name": "AddPrivilege",
      "type": "event"
    },
    {
      "anonymous": false,
      "inputs": [
        {
          "indexed": false,
          "internalType": "address",
          "name": "_address",
          "type": "address"
        },
        {
          "indexed": false,
          "internalType": "string",
          "name": "_name",
          "type": "string"
        },
        {
          "indexed": false,
          "internalType": "string",
          "name": "_firstname",
          "type": "string"
        }
      ],
      "name": "AddProfil",
      "type": "event"
    },
    {
      "anonymous": false,
      "inputs": [
        {
          "indexed": false,
          "internalType": "address",
          "name": "_address",
          "type": "address"
        },
        {
          "indexed": false,
          "internalType": "uint256",
          "name": "_amount",
          "type": "uint256"
        },
        {
          "indexed": false,
          "internalType": "uint256",
          "name": "_indexp",
          "type": "uint256"
        }
      ],
      "name": "BuyToken",
      "type": "event"
    },
    {
      "anonymous": false,
      "inputs": [
        {
          "indexed": false,
          "internalType": "uint256",
          "name": "_session",
          "type": "uint256"
        },
        {
          "indexed": false,
          "internalType": "address",
          "name": "_adresse",
          "type": "address"
        },
        {
          "indexed": false,
          "internalType": "uint256",
          "name": "_nbVote",
          "type": "uint256"
        }
      ],
      "name": "GetWinnerSession",
      "type": "event"
    },
    {
      "anonymous": false,
      "inputs": [
        {
          "indexed": false,
          "internalType": "address",
          "name": "_address",
          "type": "address"
        },
        {
          "indexed": false,
          "internalType": "uint256",
          "name": "_amount",
          "type": "uint256"
        }
      ],
      "name": "GetWinnerToken",
      "type": "event"
    },
    {
      "anonymous": false,
      "inputs": [
        {
          "indexed": false,
          "internalType": "uint256",
          "name": "_session",
          "type": "uint256"
        },
        {
          "indexed": false,
          "internalType": "address",
          "name": "_adresse",
          "type": "address"
        },
        {
          "indexed": false,
          "internalType": "string",
          "name": "motivation",
          "type": "string"
        }
      ],
      "name": "HistoricVote",
      "type": "event"
    },
    {
      "anonymous": false,
      "inputs": [
        {
          "indexed": true,
          "internalType": "address",
          "name": "previousOwner",
          "type": "address"
        },
        {
          "indexed": true,
          "internalType": "address",
          "name": "newOwner",
          "type": "address"
        }
      ],
      "name": "OwnershipTransferred",
      "type": "event"
    },
    {
      "stateMutability": "payable",
      "type": "fallback"
    },
    {
      "inputs": [
        {
          "internalType": "string",
          "name": "_description",
          "type": "string"
        }
      ],
      "name": "addPrivilege",
      "outputs": [],
      "stateMutability": "payable",
      "type": "function"
    },
    {
      "inputs": [
        {
          "internalType": "uint256",
          "name": "_idp",
          "type": "uint256"
        },
        {
          "internalType": "uint256",
          "name": "_amount",
          "type": "uint256"
        }
      ],
      "name": "addPrivilegePrice",
      "outputs": [],
      "stateMutability": "nonpayable",
      "type": "function"
    },
    {
      "inputs": [],
      "name": "amountpriv",
      "outputs": [
        {
          "internalType": "uint256",
          "name": "",
          "type": "uint256"
        }
      ],
      "stateMutability": "view",
      "type": "function"
    },
    {
      "inputs": [
        {
          "internalType": "uint256",
          "name": "_amount",
          "type": "uint256"
        }
      ],
      "name": "approveArpacoin",
      "outputs": [],
      "stateMutability": "nonpayable",
      "type": "function"
    },
    {
      "inputs": [],
      "name": "arpa3Token",
      "outputs": [
        {
          "internalType": "contract IERC20",
          "name": "",
          "type": "address"
        }
      ],
      "stateMutability": "view",
      "type": "function"
    },
    {
      "inputs": [
        {
          "internalType": "uint256",
          "name": "_indexp",
          "type": "uint256"
        },
        {
          "internalType": "uint256",
          "name": "_amount",
          "type": "uint256"
        }
      ],
      "name": "buyPrivilege",
      "outputs": [],
      "stateMutability": "nonpayable",
      "type": "function"
    },
    {
      "inputs": [],
      "name": "counter",
      "outputs": [
        {
          "internalType": "uint256",
          "name": "",
          "type": "uint256"
        }
      ],
      "stateMutability": "view",
      "type": "function"
    },
    {
      "inputs": [],
      "name": "getArpaTokenBalance",
      "outputs": [
        {
          "internalType": "uint256",
          "name": "",
          "type": "uint256"
        }
      ],
      "stateMutability": "view",
      "type": "function"
    },
    {
      "inputs": [],
      "name": "getBalanceSC",
      "outputs": [
        {
          "internalType": "uint256",
          "name": "",
          "type": "uint256"
        }
      ],
      "stateMutability": "view",
      "type": "function"
    },
    {
      "inputs": [],
      "name": "getMyBalanceDep",
      "outputs": [
        {
          "internalType": "uint256",
          "name": "",
          "type": "uint256"
        }
      ],
      "stateMutability": "view",
      "type": "function"
    },
    {
      "inputs": [],
      "name": "getMyEthBalance",
      "outputs": [
        {
          "internalType": "uint256",
          "name": "",
          "type": "uint256"
        }
      ],
      "stateMutability": "view",
      "type": "function"
    },
    {
      "inputs": [],
      "name": "getOrders",
      "outputs": [
        {
          "components": [
            {
              "internalType": "address",
              "name": "winnerAddress",
              "type": "address"
            },
            {
              "internalType": "uint256",
              "name": "privilegeID",
              "type": "uint256"
            },
            {
              "internalType": "string",
              "name": "descprivi",
              "type": "string"
            },
            {
              "internalType": "uint256",
              "name": "timestamprivi",
              "type": "uint256"
            },
            {
              "internalType": "uint256",
              "name": "amountprivi",
              "type": "uint256"
            },
            {
              "internalType": "bool",
              "name": "consoprivi",
              "type": "bool"
            }
          ],
          "internalType": "struct Arpa3.Orders[]",
          "name": "",
          "type": "tuple[]"
        }
      ],
      "stateMutability": "view",
      "type": "function"
    },
    {
      "inputs": [],
      "name": "getPrivilege",
      "outputs": [
        {
          "components": [
            {
              "internalType": "uint256",
              "name": "idP",
              "type": "uint256"
            },
            {
              "internalType": "uint256",
              "name": "amount",
              "type": "uint256"
            },
            {
              "internalType": "string",
              "name": "description",
              "type": "string"
            },
            {
              "internalType": "uint256",
              "name": "nbVote",
              "type": "uint256"
            },
            {
              "internalType": "bool",
              "name": "isActive",
              "type": "bool"
            }
          ],
          "internalType": "struct Arpa3.Privilege[]",
          "name": "",
          "type": "tuple[]"
        }
      ],
      "stateMutability": "view",
      "type": "function"
    },
    {
      "inputs": [],
      "name": "getProposal",
      "outputs": [
        {
          "components": [
            {
              "internalType": "address",
              "name": "addresse",
              "type": "address"
            },
            {
              "internalType": "string",
              "name": "name",
              "type": "string"
            },
            {
              "internalType": "string",
              "name": "firstname",
              "type": "string"
            },
            {
              "internalType": "string",
              "name": "service",
              "type": "string"
            },
            {
              "internalType": "uint256",
              "name": "nbvote",
              "type": "uint256"
            }
          ],
          "internalType": "struct Arpa3.Proposal[]",
          "name": "",
          "type": "tuple[]"
        }
      ],
      "stateMutability": "view",
      "type": "function"
    },
    {
      "inputs": [],
      "name": "getWinner",
      "outputs": [
        {
          "components": [
            {
              "internalType": "address",
              "name": "addresse",
              "type": "address"
            },
            {
              "internalType": "string",
              "name": "name",
              "type": "string"
            },
            {
              "internalType": "string",
              "name": "firstname",
              "type": "string"
            },
            {
              "internalType": "string",
              "name": "service",
              "type": "string"
            },
            {
              "internalType": "uint256",
              "name": "nbvote",
              "type": "uint256"
            }
          ],
          "internalType": "struct Arpa3.Proposal",
          "name": "",
          "type": "tuple"
        }
      ],
      "stateMutability": "view",
      "type": "function"
    },
    {
      "inputs": [],
      "name": "hasVoted",
      "outputs": [
        {
          "internalType": "bool",
          "name": "",
          "type": "bool"
        }
      ],
      "stateMutability": "view",
      "type": "function"
    },
    {
      "inputs": [
        {
          "internalType": "address",
          "name": "_address",
          "type": "address"
        }
      ],
      "name": "isAccountExist",
      "outputs": [
        {
          "internalType": "bool",
          "name": "",
          "type": "bool"
        }
      ],
      "stateMutability": "view",
      "type": "function"
    },
    {
      "inputs": [
        {
          "internalType": "uint256",
          "name": "_idp",
          "type": "uint256"
        },
        {
          "internalType": "bool",
          "name": "_status",
          "type": "bool"
        }
      ],
      "name": "moderatePrivilege",
      "outputs": [],
      "stateMutability": "nonpayable",
      "type": "function"
    },
    {
      "inputs": [],
      "name": "number",
      "outputs": [
        {
          "internalType": "uint256",
          "name": "",
          "type": "uint256"
        }
      ],
      "stateMutability": "view",
      "type": "function"
    },
    {
      "inputs": [
        {
          "internalType": "uint256",
          "name": "",
          "type": "uint256"
        }
      ],
      "name": "ordersArray",
      "outputs": [
        {
          "internalType": "address",
          "name": "winnerAddress",
          "type": "address"
        },
        {
          "internalType": "uint256",
          "name": "privilegeID",
          "type": "uint256"
        },
        {
          "internalType": "string",
          "name": "descprivi",
          "type": "string"
        },
        {
          "internalType": "uint256",
          "name": "timestamprivi",
          "type": "uint256"
        },
        {
          "internalType": "uint256",
          "name": "amountprivi",
          "type": "uint256"
        },
        {
          "internalType": "bool",
          "name": "consoprivi",
          "type": "bool"
        }
      ],
      "stateMutability": "view",
      "type": "function"
    },
    {
      "inputs": [],
      "name": "owner",
      "outputs": [
        {
          "internalType": "address",
          "name": "",
          "type": "address"
        }
      ],
      "stateMutability": "view",
      "type": "function"
    },
    {
      "inputs": [
        {
          "internalType": "uint256",
          "name": "",
          "type": "uint256"
        }
      ],
      "name": "proposalArray",
      "outputs": [
        {
          "internalType": "address",
          "name": "addresse",
          "type": "address"
        },
        {
          "internalType": "string",
          "name": "name",
          "type": "string"
        },
        {
          "internalType": "string",
          "name": "firstname",
          "type": "string"
        },
        {
          "internalType": "string",
          "name": "service",
          "type": "string"
        },
        {
          "internalType": "uint256",
          "name": "nbvote",
          "type": "uint256"
        }
      ],
      "stateMutability": "view",
      "type": "function"
    },
    {
      "inputs": [],
      "name": "renounceOwnership",
      "outputs": [],
      "stateMutability": "nonpayable",
      "type": "function"
    },
    {
      "inputs": [],
      "name": "rewardAmount",
      "outputs": [
        {
          "internalType": "uint256",
          "name": "",
          "type": "uint256"
        }
      ],
      "stateMutability": "view",
      "type": "function"
    },
    {
      "inputs": [
        {
          "internalType": "uint256",
          "name": "_amount",
          "type": "uint256"
        }
      ],
      "name": "setAmountPrivilege",
      "outputs": [],
      "stateMutability": "nonpayable",
      "type": "function"
    },
    {
      "inputs": [
        {
          "internalType": "uint256",
          "name": "_index",
          "type": "uint256"
        },
        {
          "internalType": "bool",
          "name": "_status",
          "type": "bool"
        }
      ],
      "name": "setConsoOrders",
      "outputs": [],
      "stateMutability": "nonpayable",
      "type": "function"
    },
    {
      "inputs": [
        {
          "internalType": "string",
          "name": "_name",
          "type": "string"
        },
        {
          "internalType": "string",
          "name": "_firstname",
          "type": "string"
        },
        {
          "internalType": "string",
          "name": "_service",
          "type": "string"
        }
      ],
      "name": "setProfilAndProposal",
      "outputs": [],
      "stateMutability": "nonpayable",
      "type": "function"
    },
    {
      "inputs": [
        {
          "internalType": "uint256",
          "name": "_amount",
          "type": "uint256"
        }
      ],
      "name": "setRewardAmount",
      "outputs": [],
      "stateMutability": "nonpayable",
      "type": "function"
    },
    {
      "inputs": [
        {
          "internalType": "uint256",
          "name": "_id",
          "type": "uint256"
        },
        {
          "internalType": "string",
          "name": "_motivation",
          "type": "string"
        }
      ],
      "name": "setVote",
      "outputs": [],
      "stateMutability": "nonpayable",
      "type": "function"
    },
    {
      "inputs": [
        {
          "internalType": "enum Arpa3.WorkflowStatus",
          "name": "_step",
          "type": "uint8"
        }
      ],
      "name": "setWorkflowstatus",
      "outputs": [],
      "stateMutability": "nonpayable",
      "type": "function"
    },
    {
      "inputs": [],
      "name": "startVoteSession",
      "outputs": [],
      "stateMutability": "nonpayable",
      "type": "function"
    },
    {
      "inputs": [],
      "name": "stopVoteSession",
      "outputs": [],
      "stateMutability": "nonpayable",
      "type": "function"
    },
    {
      "inputs": [
        {
          "internalType": "address",
          "name": "newOwner",
          "type": "address"
        }
      ],
      "name": "transferOwnership",
      "outputs": [],
      "stateMutability": "nonpayable",
      "type": "function"
    },
    {
      "inputs": [
        {
          "internalType": "address",
          "name": "",
          "type": "address"
        }
      ],
      "name": "users",
      "outputs": [
        {
          "internalType": "string",
          "name": "name",
          "type": "string"
        },
        {
          "internalType": "string",
          "name": "firstname",
          "type": "string"
        },
        {
          "internalType": "uint256",
          "name": "nbVotePrivilege",
          "type": "uint256"
        },
        {
          "internalType": "bool",
          "name": "hasvoted",
          "type": "bool"
        },
        {
          "internalType": "bool",
          "name": "active",
          "type": "bool"
        }
      ],
      "stateMutability": "view",
      "type": "function"
    },
    {
      "inputs": [],
      "name": "votingSessionNumber",
      "outputs": [
        {
          "internalType": "uint256",
          "name": "",
          "type": "uint256"
        }
      ],
      "stateMutability": "view",
      "type": "function"
    },
    {
      "inputs": [],
      "name": "workflowstatus",
      "outputs": [
        {
          "internalType": "enum Arpa3.WorkflowStatus",
          "name": "",
          "type": "uint8"
        }
      ],
      "stateMutability": "view",
      "type": "function"
    },
    {
      "stateMutability": "payable",
      "type": "receive"
    }
  ],
  "bytecode": "0x60a060405260006004556706f05b59d3b2000060055560056008553480156200002757600080fd5b5060405162004fdd38038062004fdd83398181016040528101906200004d9190620001e5565b6200006d62000061620000af60201b60201c565b620000b760201b60201c565b600180819055508073ffffffffffffffffffffffffffffffffffffffff1660808173ffffffffffffffffffffffffffffffffffffffff16815250505062000217565b600033905090565b60008060009054906101000a900473ffffffffffffffffffffffffffffffffffffffff169050816000806101000a81548173ffffffffffffffffffffffffffffffffffffffff021916908373ffffffffffffffffffffffffffffffffffffffff1602179055508173ffffffffffffffffffffffffffffffffffffffff168173ffffffffffffffffffffffffffffffffffffffff167f8be0079c531659141344cd1fd0a4f28419497f9722a3daafe3b4186f6b6457e060405160405180910390a35050565b600080fd5b600073ffffffffffffffffffffffffffffffffffffffff82169050919050565b6000620001ad8262000180565b9050919050565b620001bf81620001a0565b8114620001cb57600080fd5b50565b600081519050620001df81620001b4565b92915050565b600060208284031215620001fe57620001fd6200017b565b5b60006200020e84828501620001ce565b91505092915050565b608051614d806200025d600039600081816109c2015281816110cf015281816115d701528181611a6c015281816122280152818161236a0152612e3b0152614d806000f3fe6080604052600436106102135760003560e01c80638da5cb5b11610118578063b47e9d40116100a0578063f2fde38b1161006f578063f2fde38b1461074d578063f3b3cb6a14610776578063f5ad31751461079f578063f7b2a7be146107c8578063ffdf7cb1146107f35761021a565b8063b47e9d40146106b9578063b9e2bea0146106d0578063c366c56c146106fb578063c6abda3c146107245761021a565b8063a87430ba116100e7578063a87430ba146105cb578063a8a65a781461060c578063a96c879e14610635578063aaa9834614610677578063b32c93561461068e5761021a565b80638da5cb5b146105215780638e7ea5b21461054c5780639867a10314610577578063a730bfaf146105a25761021a565b80633db42de71161019b578063648213381161016a5780636482133814610460578063715018a61461048b578063771f7805146104a25780637f47997e146104cb5780638381f58a146104f65761021a565b80633db42de7146103b657806342e3cf1e146103df57806358e7a5991461040a57806361bc221a146104355761021a565b80632d033284116101e25780632d033284146102da5780632e2dc43e146103055780633a19825d146103305780633cfdf802146103715780633d665f451461038d5761021a565b80630709dec81461021c57806314b4a4f9146102475780631dbe22be146102845780631f21580d146102af5761021a565b3661021a57005b005b34801561022857600080fd5b5061023161081c565b60405161023e9190613018565b60405180910390f35b34801561025357600080fd5b5061026e6004803603810190610269919061309b565b61083b565b60405161027b91906130e3565b60405180910390f35b34801561029057600080fd5b50610299610894565b6040516102a691906132e4565b60405180910390f35b3480156102bb57600080fd5b506102c46109be565b6040516102d19190613018565b60405180910390f35b3480156102e657600080fd5b506102ef610a5f565b6040516102fc9190613018565b60405180910390f35b34801561031157600080fd5b5061031a610a65565b6040516103279190613460565b60405180910390f35b34801561033c57600080fd5b50610357600480360381019061035291906134ae565b610be5565b604051610368959493929190613534565b60405180910390f35b61038b60048036038101906103869190613601565b610de3565b005b34801561039957600080fd5b506103b460048036038101906103af91906134ae565b611078565b005b3480156103c257600080fd5b506103dd60048036038101906103d891906134ae565b6110cd565b005b3480156103eb57600080fd5b506103f4611182565b6040516104019190613018565b60405180910390f35b34801561041657600080fd5b5061041f6111c9565b60405161042c91906136c5565b60405180910390f35b34801561044157600080fd5b5061044a6111dc565b6040516104579190613018565b60405180910390f35b34801561046c57600080fd5b506104756111e2565b60405161048291906130e3565b60405180910390f35b34801561049757600080fd5b506104a0611239565b005b3480156104ae57600080fd5b506104c960048036038101906104c4919061370c565b61124d565b005b3480156104d757600080fd5b506104e06112d9565b6040516104ed9190613018565b60405180910390f35b34801561050257600080fd5b5061050b6112df565b6040516105189190613018565b60405180910390f35b34801561052d57600080fd5b506105366112e5565b604051610543919061374c565b60405180910390f35b34801561055857600080fd5b5061056161130e565b60405161056e91906137eb565b60405180910390f35b34801561058357600080fd5b5061058c6115d5565b604051610599919061386c565b60405180910390f35b3480156105ae57600080fd5b506105c960048036038101906105c49190613887565b6115f9565b005b3480156105d757600080fd5b506105f260048036038101906105ed919061309b565b6116b6565b6040516106039594939291906138c7565b60405180910390f35b34801561061857600080fd5b50610633600480360381019061062e91906134ae565b611816565b005b34801561064157600080fd5b5061065c600480360381019061065791906134ae565b611828565b60405161066e96959493929190613928565b60405180910390f35b34801561068357600080fd5b5061068c611929565b005b34801561069a57600080fd5b506106a3611a68565b6040516106b09190613018565b60405180910390f35b3480156106c557600080fd5b506106ce611b09565b005b3480156106dc57600080fd5b506106e5611b8e565b6040516106f29190613ad6565b60405180910390f35b34801561070757600080fd5b50610722600480360381019061071d9190613af8565b611e03565b005b34801561073057600080fd5b5061074b60048036038101906107469190613b7d565b6120e1565b005b34801561075957600080fd5b50610774600480360381019061076f919061309b565b612116565b005b34801561078257600080fd5b5061079d6004803603810190610798919061370c565b612199565b005b3480156107ab57600080fd5b506107c660048036038101906107c19190613887565b6121e2565b005b3480156107d457600080fd5b506107dd612675565b6040516107ea9190613018565b60405180910390f35b3480156107ff57600080fd5b5061081a60048036038101906108159190613baa565b61267b565b005b60003373ffffffffffffffffffffffffffffffffffffffff1631905090565b6000600c60008373ffffffffffffffffffffffffffffffffffffffff1673ffffffffffffffffffffffffffffffffffffffff16815260200190815260200160002060030160019054906101000a900460ff169050919050565b60606009805480602002602001604051908101604052809291908181526020016000905b828210156109b557838290600052602060002090600502016040518060a001604052908160008201548152602001600182015481526020016002820180546108ff90613c8d565b80601f016020809104026020016040519081016040528092919081815260200182805461092b90613c8d565b80156109785780601f1061094d57610100808354040283529160200191610978565b820191906000526020600020905b81548152906001019060200180831161095b57829003601f168201915b50505050508152602001600382015481526020016004820160009054906101000a900460ff161515151581525050815260200190600101906108b8565b50505050905090565b60007f000000000000000000000000000000000000000000000000000000000000000073ffffffffffffffffffffffffffffffffffffffff166370a08231336040518263ffffffff1660e01b8152600401610a19919061374c565b602060405180830381865afa158015610a36573d6000803e3d6000fd5b505050506040513d601f19601f82011682018060405250810190610a5a9190613cd3565b905090565b60055481565b6060600b805480602002602001604051908101604052809291908181526020016000905b82821015610bdc57838290600052602060002090600602016040518060c00160405290816000820160009054906101000a900473ffffffffffffffffffffffffffffffffffffffff1673ffffffffffffffffffffffffffffffffffffffff1673ffffffffffffffffffffffffffffffffffffffff16815260200160018201548152602001600282018054610b1c90613c8d565b80601f0160208091040260200160405190810160405280929190818152602001828054610b4890613c8d565b8015610b955780601f10610b6a57610100808354040283529160200191610b95565b820191906000526020600020905b815481529060010190602001808311610b7857829003601f168201915b5050505050815260200160038201548152602001600482015481526020016005820160009054906101000a900460ff16151515158152505081526020019060010190610a89565b50505050905090565b600a8181548110610bf557600080fd5b90600052602060002090600502016000915090508060000160009054906101000a900473ffffffffffffffffffffffffffffffffffffffff1690806001018054610c3e90613c8d565b80601f0160208091040260200160405190810160405280929190818152602001828054610c6a90613c8d565b8015610cb75780601f10610c8c57610100808354040283529160200191610cb7565b820191906000526020600020905b815481529060010190602001808311610c9a57829003601f168201915b505050505090806002018054610ccc90613c8d565b80601f0160208091040260200160405190810160405280929190818152602001828054610cf890613c8d565b8015610d455780601f10610d1a57610100808354040283529160200191610d45565b820191906000526020600020905b815481529060010190602001808311610d2857829003601f168201915b505050505090806003018054610d5a90613c8d565b80601f0160208091040260200160405190810160405280929190818152602001828054610d8690613c8d565b8015610dd35780601f10610da857610100808354040283529160200191610dd3565b820191906000526020600020905b815481529060010190602001808311610db657829003601f168201915b5050505050908060040154905085565b610deb612b73565b60011515600c60003373ffffffffffffffffffffffffffffffffffffffff1673ffffffffffffffffffffffffffffffffffffffff16815260200190815260200160002060030160019054906101000a900460ff16151514610e81576040517f08c379a0000000000000000000000000000000000000000000000000000000008152600401610e7890613d4c565b60405180910390fd5b6005543414610ec5576040517f08c379a0000000000000000000000000000000000000000000000000000000008152600401610ebc90613db8565b60405180910390fd5b610ecd612f3b565b600354816000018181525050600081602001818152505082828080601f016020809104026020016040519081016040528093929190818152602001838380828437600081840152601f19601f8201169050808301925050505050505081604001819052506000816080019015159081151581525050600981908060018154018082558091505060019003906000526020600020906005020160009091909190915060008201518160000155602082015181600101556040820151816002019081610f979190613fa9565b506060820151816003015560808201518160040160006101000a81548160ff021916908315150217905550505034600d60003373ffffffffffffffffffffffffffffffffffffffff1673ffffffffffffffffffffffffffffffffffffffff168152602001908152602001600020600082825461101391906140aa565b92505081905550600360008154611029906140de565b919050819055507f79b4967f952c2e2a563ed6ece6722a54e83844ba5ab08f9f5cdaaf27560125de33848460405161106393929190614162565b60405180910390a150611074612bc2565b5050565b611080612bcb565b600081116110c3576040517f08c379a00000000000000000000000000000000000000000000000000000000081526004016110ba906141e0565b60405180910390fd5b8060058190555050565b7f000000000000000000000000000000000000000000000000000000000000000073ffffffffffffffffffffffffffffffffffffffff1663095ea7b333670de0b6b3a76400008461111e9190614200565b6040518363ffffffff1660e01b815260040161113b929190614242565b6020604051808303816000875af115801561115a573d6000803e3d6000fd5b505050506040513d601f19601f8201168201806040525081019061117e9190614280565b5050565b6000600d60003373ffffffffffffffffffffffffffffffffffffffff1673ffffffffffffffffffffffffffffffffffffffff16815260200190815260200160002054905090565b600260009054906101000a900460ff1681565b60035481565b6000600c60003373ffffffffffffffffffffffffffffffffffffffff1673ffffffffffffffffffffffffffffffffffffffff16815260200190815260200160002060030160009054906101000a900460ff16905090565b611241612bcb565b61124b6000612c49565b565b611255612bcb565b60008210611298576040517f08c379a000000000000000000000000000000000000000000000000000000000815260040161128f906142f9565b60405180910390fd5b80600b83815481106112ad576112ac614319565b5b906000526020600020906006020160050160006101000a81548160ff0219169083151502179055505050565b60065481565b60045481565b60008060009054906101000a900473ffffffffffffffffffffffffffffffffffffffff16905090565b611316612f6c565b6003808111156113295761132861364e565b5b600260009054906101000a900460ff16600381111561134b5761134a61364e565b5b1461138b576040517f08c379a000000000000000000000000000000000000000000000000000000000815260040161138290614394565b60405180910390fd5b600a600754815481106113a1576113a0614319565b5b90600052602060002090600502016040518060a00160405290816000820160009054906101000a900473ffffffffffffffffffffffffffffffffffffffff1673ffffffffffffffffffffffffffffffffffffffff1673ffffffffffffffffffffffffffffffffffffffff16815260200160018201805461142090613c8d565b80601f016020809104026020016040519081016040528092919081815260200182805461144c90613c8d565b80156114995780601f1061146e57610100808354040283529160200191611499565b820191906000526020600020905b81548152906001019060200180831161147c57829003601f168201915b505050505081526020016002820180546114b290613c8d565b80601f01602080910402602001604051908101604052809291908181526020018280546114de90613c8d565b801561152b5780601f106115005761010080835404028352916020019161152b565b820191906000526020600020905b81548152906001019060200180831161150e57829003601f168201915b5050505050815260200160038201805461154490613c8d565b80601f016020809104026020016040519081016040528092919081815260200182805461157090613c8d565b80156115bd5780601f10611592576101008083540402835291602001916115bd565b820191906000526020600020905b8154815290600101906020018083116115a057829003601f168201915b50505050508152602001600482015481525050905090565b7f000000000000000000000000000000000000000000000000000000000000000081565b611601612bcb565b60008111611644576040517f08c379a000000000000000000000000000000000000000000000000000000000815260040161163b90614400565b60405180910390fd5b6000821015611688576040517f08c379a000000000000000000000000000000000000000000000000000000000815260040161167f9061446c565b60405180910390fd5b806009838154811061169d5761169c614319565b5b9060005260206000209060050201600101819055505050565b600c6020528060005260406000206000915090508060000180546116d990613c8d565b80601f016020809104026020016040519081016040528092919081815260200182805461170590613c8d565b80156117525780601f1061172757610100808354040283529160200191611752565b820191906000526020600020905b81548152906001019060200180831161173557829003601f168201915b50505050509080600101805461176790613c8d565b80601f016020809104026020016040519081016040528092919081815260200182805461179390613c8d565b80156117e05780601f106117b5576101008083540402835291602001916117e0565b820191906000526020600020905b8154815290600101906020018083116117c357829003601f168201915b5050505050908060020154908060030160009054906101000a900460ff16908060030160019054906101000a900460ff16905085565b61181e612bcb565b8060088190555050565b600b818154811061183857600080fd5b90600052602060002090600602016000915090508060000160009054906101000a900473ffffffffffffffffffffffffffffffffffffffff169080600101549080600201805461188790613c8d565b80601f01602080910402602001604051908101604052809291908181526020018280546118b390613c8d565b80156119005780601f106118d557610100808354040283529160200191611900565b820191906000526020600020905b8154815290600101906020018083116118e357829003601f168201915b5050505050908060030154908060040154908060050160009054906101000a900460ff16905086565b611931612bcb565b6000600481905550600660008154611948906140de565b9190508190555060028060006101000a81548160ff021916908360038111156119745761197361364e565b5b021790555060005b600a80549050811015611a65576000600a828154811061199f5761199e614319565b5b9060005260206000209060050201600401819055506000600c6000600a84815481106119ce576119cd614319565b5b906000526020600020906005020160000160009054906101000a900473ffffffffffffffffffffffffffffffffffffffff1673ffffffffffffffffffffffffffffffffffffffff1673ffffffffffffffffffffffffffffffffffffffff16815260200190815260200160002060030160006101000a81548160ff02191690831515021790555080611a5e906140de565b905061197c565b50565b60007f000000000000000000000000000000000000000000000000000000000000000073ffffffffffffffffffffffffffffffffffffffff166370a08231306040518263ffffffff1660e01b8152600401611ac3919061374c565b602060405180830381865afa158015611ae0573d6000803e3d6000fd5b505050506040513d601f19601f82011682018060405250810190611b049190613cd3565b905090565b611b11612bcb565b6003600260006101000a81548160ff02191690836003811115611b3757611b3661364e565b5b0217905550611b8c600a60075481548110611b5557611b54614319565b5b906000526020600020906005020160000160009054906101000a900473ffffffffffffffffffffffffffffffffffffffff16612d0d565b565b6060600a805480602002602001604051908101604052809291908181526020016000905b82821015611dfa57838290600052602060002090600502016040518060a00160405290816000820160009054906101000a900473ffffffffffffffffffffffffffffffffffffffff1673ffffffffffffffffffffffffffffffffffffffff1673ffffffffffffffffffffffffffffffffffffffff168152602001600182018054611c3b90613c8d565b80601f0160208091040260200160405190810160405280929190818152602001828054611c6790613c8d565b8015611cb45780601f10611c8957610100808354040283529160200191611cb4565b820191906000526020600020905b815481529060010190602001808311611c9757829003601f168201915b50505050508152602001600282018054611ccd90613c8d565b80601f0160208091040260200160405190810160405280929190818152602001828054611cf990613c8d565b8015611d465780601f10611d1b57610100808354040283529160200191611d46565b820191906000526020600020905b815481529060010190602001808311611d2957829003601f168201915b50505050508152602001600382018054611d5f90613c8d565b80601f0160208091040260200160405190810160405280929190818152602001828054611d8b90613c8d565b8015611dd85780601f10611dad57610100808354040283529160200191611dd8565b820191906000526020600020905b815481529060010190602001808311611dbb57829003601f168201915b5050505050815260200160048201548152505081526020019060010190611bb2565b50505050905090565b60026003811115611e1757611e1661364e565b5b600260009054906101000a900460ff166003811115611e3957611e3861364e565b5b14611e79576040517f08c379a0000000000000000000000000000000000000000000000000000000008152600401611e70906144fe565b60405180910390fd5b600c60003373ffffffffffffffffffffffffffffffffffffffff1673ffffffffffffffffffffffffffffffffffffffff16815260200190815260200160002060030160009054906101000a900460ff1615611f09576040517f08c379a0000000000000000000000000000000000000000000000000000000008152600401611f009061456a565b60405180910390fd5b600a805490508310611f50576040517f08c379a0000000000000000000000000000000000000000000000000000000008152600401611f47906145d6565b60405180910390fd5b6001600c60003373ffffffffffffffffffffffffffffffffffffffff1673ffffffffffffffffffffffffffffffffffffffff16815260200190815260200160002060030160006101000a81548160ff021916908315150217905550600a8381548110611fbf57611fbe614319565b5b90600052602060002090600502016004016000815480929190611fe1906140de565b9190505550600a60075481548110611ffc57611ffb614319565b5b906000526020600020906005020160040154600a848154811061202257612021614319565b5b906000526020600020906005020160040154111561204257826007819055505b600460008154612051906140de565b919050819055507f9a4b1974a303b6b8937c2f2186a95dc8466a1b5f12f3908d04c7e4afc0079bd9600654600a85815481106120905761208f614319565b5b906000526020600020906005020160000160009054906101000a900473ffffffffffffffffffffffffffffffffffffffff1684846040516120d494939291906145f6565b60405180910390a1505050565b6120e9612bcb565b80600260006101000a81548160ff0219169083600381111561210e5761210d61364e565b5b021790555050565b61211e612bcb565b600073ffffffffffffffffffffffffffffffffffffffff168173ffffffffffffffffffffffffffffffffffffffff160361218d576040517f08c379a0000000000000000000000000000000000000000000000000000000008152600401612184906146a8565b60405180910390fd5b61219681612c49565b50565b6121a1612bcb565b80600983815481106121b6576121b5614319565b5b906000526020600020906005020160040160006101000a81548160ff0219169083151502179055505050565b60008111612225576040517f08c379a000000000000000000000000000000000000000000000000000000000815260040161221c90614714565b60405180910390fd5b807f000000000000000000000000000000000000000000000000000000000000000073ffffffffffffffffffffffffffffffffffffffff166370a08231336040518263ffffffff1660e01b815260040161227f919061374c565b602060405180830381865afa15801561229c573d6000803e3d6000fd5b505050506040513d601f19601f820116820180604052508101906122c09190613cd3565b1015612301576040517f08c379a00000000000000000000000000000000000000000000000000000000081526004016122f8906147a6565b60405180910390fd5b806009838154811061231657612315614319565b5b90600052602060002090600502016001015414612368576040517f08c379a000000000000000000000000000000000000000000000000000000000815260040161235f90614812565b60405180910390fd5b7f000000000000000000000000000000000000000000000000000000000000000073ffffffffffffffffffffffffffffffffffffffff166323b872dd3330846040518463ffffffff1660e01b81526004016123c593929190614832565b6020604051808303816000875af11580156123e4573d6000803e3d6000fd5b505050506040513d601f19601f820116820180604052508101906124089190614280565b612447576040517f08c379a000000000000000000000000000000000000000000000000000000000815260040161243e906148b5565b60405180910390fd5b61244f612fb1565b33816000019073ffffffffffffffffffffffffffffffffffffffff16908173ffffffffffffffffffffffffffffffffffffffff168152505082816020018181525050600983815481106124a5576124a4614319565b5b906000526020600020906005020160020180546124c190613c8d565b80601f01602080910402602001604051908101604052809291908181526020018280546124ed90613c8d565b801561253a5780601f1061250f5761010080835404028352916020019161253a565b820191906000526020600020905b81548152906001019060200180831161251d57829003601f168201915b50505050508160400181905250428160600181815250508181608001818152505060008160a0019015159081151581525050600b81908060018154018082558091505060019003906000526020600020906006020160009091909190915060008201518160000160006101000a81548173ffffffffffffffffffffffffffffffffffffffff021916908373ffffffffffffffffffffffffffffffffffffffff1602179055506020820151816001015560408201518160020190816125fe9190613fa9565b50606082015181600301556080820151816004015560a08201518160050160006101000a81548160ff02191690831515021790555050507ff6f342132c7de5e5a1e99c8efae544c94731f3ff093f5c3c97c6973d9415cdfb338385604051612668939291906148d5565b60405180910390a1505050565b60085481565b600073ffffffffffffffffffffffffffffffffffffffff163373ffffffffffffffffffffffffffffffffffffffff16036126ea576040517f08c379a00000000000000000000000000000000000000000000000000000000081526004016126e190614958565b60405180910390fd5b600c60003373ffffffffffffffffffffffffffffffffffffffff1673ffffffffffffffffffffffffffffffffffffffff16815260200190815260200160002060030160019054906101000a900460ff161561277a576040517f08c379a0000000000000000000000000000000000000000000000000000000008152600401612771906149c4565b60405180910390fd5b6000868690501180156127905750600084849050115b801561279f5750600082829050115b6127de576040517f08c379a00000000000000000000000000000000000000000000000000000000081526004016127d590614a30565b60405180910390fd5b8585600c60003373ffffffffffffffffffffffffffffffffffffffff1673ffffffffffffffffffffffffffffffffffffffff168152602001908152602001600020600001918261282f929190614a5b565b508383600c60003373ffffffffffffffffffffffffffffffffffffffff1673ffffffffffffffffffffffffffffffffffffffff1681526020019081526020016000206001019182612881929190614a5b565b506000600c60003373ffffffffffffffffffffffffffffffffffffffff1673ffffffffffffffffffffffffffffffffffffffff16815260200190815260200160002060030160006101000a81548160ff0219169083151502179055506001600c60003373ffffffffffffffffffffffffffffffffffffffff1673ffffffffffffffffffffffffffffffffffffffff16815260200190815260200160002060030160016101000a81548160ff021916908315150217905550612940612f6c565b33816000019073ffffffffffffffffffffffffffffffffffffffff16908173ffffffffffffffffffffffffffffffffffffffff168152505086868080601f016020809104026020016040519081016040528093929190818152602001838380828437600081840152601f19601f82011690508083019250505050505050816020018190525084848080601f016020809104026020016040519081016040528093929190818152602001838380828437600081840152601f19601f82011690508083019250505050505050816040018190525082828080601f016020809104026020016040519081016040528093929190818152602001838380828437600081840152601f19601f8201169050808301925050505050505081606001819052506000816080018181525050600a81908060018154018082558091505060019003906000526020600020906005020160009091909190915060008201518160000160006101000a81548173ffffffffffffffffffffffffffffffffffffffff021916908373ffffffffffffffffffffffffffffffffffffffff1602179055506020820151816001019081612af29190613fa9565b506040820151816002019081612b089190613fa9565b506060820151816003019081612b1e9190613fa9565b506080820151816004015550507fdb662c8b79ccb9909891c358aec9651e782d0ad9523566bd659c084b5fefcec73388888888604051612b62959493929190614b2b565b60405180910390a150505050505050565b600260015403612bb8576040517f08c379a0000000000000000000000000000000000000000000000000000000008152600401612baf90614bc0565b60405180910390fd5b6002600181905550565b60018081905550565b612bd3612f33565b73ffffffffffffffffffffffffffffffffffffffff16612bf16112e5565b73ffffffffffffffffffffffffffffffffffffffff1614612c47576040517f08c379a0000000000000000000000000000000000000000000000000000000008152600401612c3e90614c2c565b60405180910390fd5b565b60008060009054906101000a900473ffffffffffffffffffffffffffffffffffffffff169050816000806101000a81548173ffffffffffffffffffffffffffffffffffffffff021916908373ffffffffffffffffffffffffffffffffffffffff1602179055508173ffffffffffffffffffffffffffffffffffffffff168173ffffffffffffffffffffffffffffffffffffffff167f8be0079c531659141344cd1fd0a4f28419497f9722a3daafe3b4186f6b6457e060405160405180910390a35050565b612d15612b73565b600073ffffffffffffffffffffffffffffffffffffffff168173ffffffffffffffffffffffffffffffffffffffff1603612d84576040517f08c379a0000000000000000000000000000000000000000000000000000000008152600401612d7b90614c98565b60405180910390fd5b8073ffffffffffffffffffffffffffffffffffffffff16600a60075481548110612db157612db0614319565b5b906000526020600020906005020160000160009054906101000a900473ffffffffffffffffffffffffffffffffffffffff1673ffffffffffffffffffffffffffffffffffffffff1614612e39576040517f08c379a0000000000000000000000000000000000000000000000000000000008152600401612e3090614d2a565b60405180910390fd5b7f000000000000000000000000000000000000000000000000000000000000000073ffffffffffffffffffffffffffffffffffffffff1663a9059cbb82670de0b6b3a7640000600854612e8c9190614200565b6040518363ffffffff1660e01b8152600401612ea9929190614242565b6020604051808303816000875af1158015612ec8573d6000803e3d6000fd5b505050506040513d601f19601f82011682018060405250810190612eec9190614280565b507f2e06e81581e774f145d32b1feac204fb2683499d425091cb4fcfc137726008c281600854604051612f20929190614242565b60405180910390a1612f30612bc2565b50565b600033905090565b6040518060a00160405280600081526020016000815260200160608152602001600081526020016000151581525090565b6040518060a00160405280600073ffffffffffffffffffffffffffffffffffffffff168152602001606081526020016060815260200160608152602001600081525090565b6040518060c00160405280600073ffffffffffffffffffffffffffffffffffffffff168152602001600081526020016060815260200160008152602001600081526020016000151581525090565b6000819050919050565b61301281612fff565b82525050565b600060208201905061302d6000830184613009565b92915050565b600080fd5b600080fd5b600073ffffffffffffffffffffffffffffffffffffffff82169050919050565b60006130688261303d565b9050919050565b6130788161305d565b811461308357600080fd5b50565b6000813590506130958161306f565b92915050565b6000602082840312156130b1576130b0613033565b5b60006130bf84828501613086565b91505092915050565b60008115159050919050565b6130dd816130c8565b82525050565b60006020820190506130f860008301846130d4565b92915050565b600081519050919050565b600082825260208201905092915050565b6000819050602082019050919050565b61313381612fff565b82525050565b600081519050919050565b600082825260208201905092915050565b60005b83811015613173578082015181840152602081019050613158565b60008484015250505050565b6000601f19601f8301169050919050565b600061319b82613139565b6131a58185613144565b93506131b5818560208601613155565b6131be8161317f565b840191505092915050565b6131d2816130c8565b82525050565b600060a0830160008301516131f0600086018261312a565b506020830151613203602086018261312a565b506040830151848203604086015261321b8282613190565b9150506060830151613230606086018261312a565b50608083015161324360808601826131c9565b508091505092915050565b600061325a83836131d8565b905092915050565b6000602082019050919050565b600061327a826130fe565b6132848185613109565b9350836020820285016132968561311a565b8060005b858110156132d257848403895281516132b3858261324e565b94506132be83613262565b925060208a0199505060018101905061329a565b50829750879550505050505092915050565b600060208201905081810360008301526132fe818461326f565b905092915050565b600081519050919050565b600082825260208201905092915050565b6000819050602082019050919050565b61333b8161305d565b82525050565b600060c0830160008301516133596000860182613332565b50602083015161336c602086018261312a565b50604083015184820360408601526133848282613190565b9150506060830151613399606086018261312a565b5060808301516133ac608086018261312a565b5060a08301516133bf60a08601826131c9565b508091505092915050565b60006133d68383613341565b905092915050565b6000602082019050919050565b60006133f682613306565b6134008185613311565b93508360208202850161341285613322565b8060005b8581101561344e578484038952815161342f85826133ca565b945061343a836133de565b925060208a01995050600181019050613416565b50829750879550505050505092915050565b6000602082019050818103600083015261347a81846133eb565b905092915050565b61348b81612fff565b811461349657600080fd5b50565b6000813590506134a881613482565b92915050565b6000602082840312156134c4576134c3613033565b5b60006134d284828501613499565b91505092915050565b6134e48161305d565b82525050565b600082825260208201905092915050565b600061350682613139565b61351081856134ea565b9350613520818560208601613155565b6135298161317f565b840191505092915050565b600060a08201905061354960008301886134db565b818103602083015261355b81876134fb565b9050818103604083015261356f81866134fb565b9050818103606083015261358381856134fb565b90506135926080830184613009565b9695505050505050565b600080fd5b600080fd5b600080fd5b60008083601f8401126135c1576135c061359c565b5b8235905067ffffffffffffffff8111156135de576135dd6135a1565b5b6020830191508360018202830111156135fa576135f96135a6565b5b9250929050565b6000806020838503121561361857613617613033565b5b600083013567ffffffffffffffff81111561363657613635613038565b5b613642858286016135ab565b92509250509250929050565b7f4e487b7100000000000000000000000000000000000000000000000000000000600052602160045260246000fd5b6004811061368e5761368d61364e565b5b50565b600081905061369f8261367d565b919050565b60006136af82613691565b9050919050565b6136bf816136a4565b82525050565b60006020820190506136da60008301846136b6565b92915050565b6136e9816130c8565b81146136f457600080fd5b50565b600081359050613706816136e0565b92915050565b6000806040838503121561372357613722613033565b5b600061373185828601613499565b9250506020613742858286016136f7565b9150509250929050565b600060208201905061376160008301846134db565b92915050565b600060a08301600083015161377f6000860182613332565b50602083015184820360208601526137978282613190565b915050604083015184820360408601526137b18282613190565b915050606083015184820360608601526137cb8282613190565b91505060808301516137e0608086018261312a565b508091505092915050565b600060208201905081810360008301526138058184613767565b905092915050565b6000819050919050565b600061383261382d6138288461303d565b61380d565b61303d565b9050919050565b600061384482613817565b9050919050565b600061385682613839565b9050919050565b6138668161384b565b82525050565b6000602082019050613881600083018461385d565b92915050565b6000806040838503121561389e5761389d613033565b5b60006138ac85828601613499565b92505060206138bd85828601613499565b9150509250929050565b600060a08201905081810360008301526138e181886134fb565b905081810360208301526138f581876134fb565b90506139046040830186613009565b61391160608301856130d4565b61391e60808301846130d4565b9695505050505050565b600060c08201905061393d60008301896134db565b61394a6020830188613009565b818103604083015261395c81876134fb565b905061396b6060830186613009565b6139786080830185613009565b61398560a08301846130d4565b979650505050505050565b600081519050919050565b600082825260208201905092915050565b6000819050602082019050919050565b600060a0830160008301516139d46000860182613332565b50602083015184820360208601526139ec8282613190565b91505060408301518482036040860152613a068282613190565b91505060608301518482036060860152613a208282613190565b9150506080830151613a35608086018261312a565b508091505092915050565b6000613a4c83836139bc565b905092915050565b6000602082019050919050565b6000613a6c82613990565b613a76818561399b565b935083602082028501613a88856139ac565b8060005b85811015613ac45784840389528151613aa58582613a40565b9450613ab083613a54565b925060208a01995050600181019050613a8c565b50829750879550505050505092915050565b60006020820190508181036000830152613af08184613a61565b905092915050565b600080600060408486031215613b1157613b10613033565b5b6000613b1f86828701613499565b935050602084013567ffffffffffffffff811115613b4057613b3f613038565b5b613b4c868287016135ab565b92509250509250925092565b60048110613b6557600080fd5b50565b600081359050613b7781613b58565b92915050565b600060208284031215613b9357613b92613033565b5b6000613ba184828501613b68565b91505092915050565b60008060008060008060608789031215613bc757613bc6613033565b5b600087013567ffffffffffffffff811115613be557613be4613038565b5b613bf189828a016135ab565b9650965050602087013567ffffffffffffffff811115613c1457613c13613038565b5b613c2089828a016135ab565b9450945050604087013567ffffffffffffffff811115613c4357613c42613038565b5b613c4f89828a016135ab565b92509250509295509295509295565b7f4e487b7100000000000000000000000000000000000000000000000000000000600052602260045260246000fd5b60006002820490506001821680613ca557607f821691505b602082108103613cb857613cb7613c5e565b5b50919050565b600081519050613ccd81613482565b92915050565b600060208284031215613ce957613ce8613033565b5b6000613cf784828501613cbe565b91505092915050565b7f55736572206e6f74207265636f72646564000000000000000000000000000000600082015250565b6000613d366011836134ea565b9150613d4182613d00565b602082019050919050565b60006020820190508181036000830152613d6581613d29565b9050919050565b7f496e636f727265637420616d6f756e7400000000000000000000000000000000600082015250565b6000613da26010836134ea565b9150613dad82613d6c565b602082019050919050565b60006020820190508181036000830152613dd181613d95565b9050919050565b7f4e487b7100000000000000000000000000000000000000000000000000000000600052604160045260246000fd5b60008190508160005260206000209050919050565b60006020601f8301049050919050565b600082821b905092915050565b600060088302613e697fffffffffffffffffffffffffffffffffffffffffffffffffffffffffffffffff82613e2c565b613e738683613e2c565b95508019841693508086168417925050509392505050565b6000613ea6613ea1613e9c84612fff565b61380d565b612fff565b9050919050565b6000819050919050565b613ec083613e8b565b613ed4613ecc82613ead565b848454613e39565b825550505050565b600090565b613ee9613edc565b613ef4818484613eb7565b505050565b5b81811015613f1857613f0d600082613ee1565b600181019050613efa565b5050565b601f821115613f5d57613f2e81613e07565b613f3784613e1c565b81016020851015613f46578190505b613f5a613f5285613e1c565b830182613ef9565b50505b505050565b600082821c905092915050565b6000613f8060001984600802613f62565b1980831691505092915050565b6000613f998383613f6f565b9150826002028217905092915050565b613fb282613139565b67ffffffffffffffff811115613fcb57613fca613dd8565b5b613fd58254613c8d565b613fe0828285613f1c565b600060209050601f8311600181146140135760008415614001578287015190505b61400b8582613f8d565b865550614073565b601f19841661402186613e07565b60005b8281101561404957848901518255600182019150602085019450602081019050614024565b868310156140665784890151614062601f891682613f6f565b8355505b6001600288020188555050505b505050505050565b7f4e487b7100000000000000000000000000000000000000000000000000000000600052601160045260246000fd5b60006140b582612fff565b91506140c083612fff565b92508282019050808211156140d8576140d761407b565b5b92915050565b60006140e982612fff565b91507fffffffffffffffffffffffffffffffffffffffffffffffffffffffffffffffff820361411b5761411a61407b565b5b600182019050919050565b82818337600083830152505050565b600061414183856134ea565b935061414e838584614126565b6141578361317f565b840190509392505050565b600060408201905061417760008301866134db565b818103602083015261418a818486614135565b9050949350505050565b7f6e6f7420656e6f75676820666f722070726976696c6567650000000000000000600082015250565b60006141ca6018836134ea565b91506141d582614194565b602082019050919050565b600060208201905081810360008301526141f9816141bd565b9050919050565b600061420b82612fff565b915061421683612fff565b925082820261422481612fff565b9150828204841483151761423b5761423a61407b565b5b5092915050565b600060408201905061425760008301856134db565b6142646020830184613009565b9392505050565b60008151905061427a816136e0565b92915050565b60006020828403121561429657614295613033565b5b60006142a48482850161426b565b91505092915050565b7f4261642073657474696e67730000000000000000000000000000000000000000600082015250565b60006142e3600c836134ea565b91506142ee826142ad565b602082019050919050565b60006020820190508181036000830152614312816142d6565b9050919050565b7f4e487b7100000000000000000000000000000000000000000000000000000000600052603260045260246000fd5b7f53657373696f6e20566f7465206e6f7420636c6f736564000000000000000000600082015250565b600061437e6017836134ea565b915061438982614348565b602082019050919050565b600060208201905081810360008301526143ad81614371565b9050919050565b7f42616420616d6f756e7420666f722070726976696c6567650000000000000000600082015250565b60006143ea6018836134ea565b91506143f5826143b4565b602082019050919050565b60006020820190508181036000830152614419816143dd565b9050919050565b7f4261642070726976696c656765206964656e7469666965720000000000000000600082015250565b60006144566018836134ea565b915061446182614420565b602082019050919050565b6000602082019050818103600083015261448581614449565b9050919050565b7f566f74696e672073657373696f6e20686176656e74207374617274656420796560008201527f7400000000000000000000000000000000000000000000000000000000000000602082015250565b60006144e86021836134ea565b91506144f38261448c565b604082019050919050565b60006020820190508181036000830152614517816144db565b9050919050565b7f596f75206861766520616c726561647920766f74656400000000000000000000600082015250565b60006145546016836134ea565b915061455f8261451e565b602082019050919050565b6000602082019050818103600083015261458381614547565b9050919050565b7f50726f706f73616c206e6f7420666f756e640000000000000000000000000000600082015250565b60006145c06012836134ea565b91506145cb8261458a565b602082019050919050565b600060208201905081810360008301526145ef816145b3565b9050919050565b600060608201905061460b6000830187613009565b61461860208301866134db565b818103604083015261462b818486614135565b905095945050505050565b7f4f776e61626c653a206e6577206f776e657220697320746865207a65726f206160008201527f6464726573730000000000000000000000000000000000000000000000000000602082015250565b60006146926026836134ea565b915061469d82614636565b604082019050919050565b600060208201905081810360008301526146c181614685565b9050919050565b7f4e6f7420636f7272656374207072696365000000000000000000000000000000600082015250565b60006146fe6011836134ea565b9150614709826146c8565b602082019050919050565b6000602082019050818103600083015261472d816146f1565b9050919050565b7f4e6f7420656e6f756768742066756e647320746f20627579207468697320707260008201527f6976696c65676500000000000000000000000000000000000000000000000000602082015250565b60006147906027836134ea565b915061479b82614734565b604082019050919050565b600060208201905081810360008301526147bf81614783565b9050919050565b7f5065746974206d616c696e207661202e2e2e0000000000000000000000000000600082015250565b60006147fc6012836134ea565b9150614807826147c6565b602082019050919050565b6000602082019050818103600083015261482b816147ef565b9050919050565b600060608201905061484760008301866134db565b61485460208301856134db565b6148616040830184613009565b949350505050565b7f5472616e73666572206572726575720000000000000000000000000000000000600082015250565b600061489f600f836134ea565b91506148aa82614869565b602082019050919050565b600060208201905081810360008301526148ce81614892565b9050919050565b60006060820190506148ea60008301866134db565b6148f76020830185613009565b6149046040830184613009565b949350505050565b7f6e6f7420636f6e6e656374656400000000000000000000000000000000000000600082015250565b6000614942600d836134ea565b915061494d8261490c565b602082019050919050565b6000602082019050818103600083015261497181614935565b9050919050565b7f4163636f756e7420616c72656164792045786973740000000000000000000000600082015250565b60006149ae6015836134ea565b91506149b982614978565b602082019050919050565b600060208201905081810360008301526149dd816149a1565b9050919050565b7f56616c7565206e6f7420656d7074790000000000000000000000000000000000600082015250565b6000614a1a600f836134ea565b9150614a25826149e4565b602082019050919050565b60006020820190508181036000830152614a4981614a0d565b9050919050565b600082905092915050565b614a658383614a50565b67ffffffffffffffff811115614a7e57614a7d613dd8565b5b614a888254613c8d565b614a93828285613f1c565b6000601f831160018114614ac25760008415614ab0578287013590505b614aba8582613f8d565b865550614b22565b601f198416614ad086613e07565b60005b82811015614af857848901358255600182019150602085019450602081019050614ad3565b86831015614b155784890135614b11601f891682613f6f565b8355505b6001600288020188555050505b50505050505050565b6000606082019050614b4060008301886134db565b8181036020830152614b53818688614135565b90508181036040830152614b68818486614135565b90509695505050505050565b7f5265656e7472616e637947756172643a207265656e7472616e742063616c6c00600082015250565b6000614baa601f836134ea565b9150614bb582614b74565b602082019050919050565b60006020820190508181036000830152614bd981614b9d565b9050919050565b7f4f776e61626c653a2063616c6c6572206973206e6f7420746865206f776e6572600082015250565b6000614c166020836134ea565b9150614c2182614be0565b602082019050919050565b60006020820190508181036000830152614c4581614c09565b9050919050565b7f6e6f742076616c6964206163636f756e74000000000000000000000000000000600082015250565b6000614c826011836134ea565b9150614c8d82614c4c565b602082019050919050565b60006020820190508181036000830152614cb181614c75565b9050919050565b7f596f7520617265206e6f74207468652057696e6e65722053657373696f6e207660008201527f6f74650000000000000000000000000000000000000000000000000000000000602082015250565b6000614d146023836134ea565b9150614d1f82614cb8565b604082019050919050565b60006020820190508181036000830152614d4381614d07565b905091905056fea264697066735822122052f20f82fc6c14719628aa23d802a3d95271ddbb94b0c9dd844fbd519ce3a30e64736f6c63430008130033",
  "linkReferences": {},
  "deployedLinkReferences": {}
}